:020000040800F2
:1000000000040020890100088D0100088F0100080C
:10001000910100089301000895010008000000000C
:100020000000000000000000000000009701000830
:1000300099010008000000009B0100082707000844
:100040009F0100089F0100089F0100089F01000810
:100050009F0100089F0100089F0100089F01000800
:100060009F0100089F0100089F0100089F010008F0
:100070009F0100089F0100089F0100089F010008E0
:100080009F0100089F0100089F0100089F010008D0
:100090009F0100089F0100089F0100089F010008C0
:1000A0009F0100089F0100089F0100089F010008B0
:1000B0008D0F00089F0100089F0100089F010008A4
:1000C0009F0100089F0100089F0100089F01000890
:1000D0009F0100089F010008B90900089F0100085E
:1000E0009F0100089F0100089F0100089F01000870
:1000F0009F0100089F0100089F0100089F01000860
:100100000000000000000000000000009F01000847
:100110009F0100089F0100089F010008350F00089B
:100120009F0100089F0100089F0100089F0100082F
:100130009F0100089F01000800000000000000006F
:100140009F0100089F0100089F01000800000000B7
:10015000000000000000000000000000000000009F
:1001600000000000000000009F0100089F0100083F
:100170009F010008000000000000000000000000D7
:10018000000000009F01000805480047FEE7FEE769
:10019000FEE7FEE7FEE7FEE7FEE7FEE7FEE7FEE737
:1001A0003D0600080FB44FEA501200F01F034FF055
:1001B000010000FA03F3044951F8220040EA030069
:1001C00041F822000FBC704700E100E04D6561730B
:1001D0007572656D656E742066696E6973686564B5
:1001E0002E205432203D20002075732028002063EB
:1001F00079636C657329202D3E20555F696E203D23
:10020000200020562E0053616D706C696E672000CF
:10021000206F7574206F6620000D0A0A0A0A0A56BC
:100220006F4D692773206475616C20736C6F706506
:1002300020696E746567726174696F6E2041444312
:1002400020696E697469616C697A656420616E64A5
:100250002072656164792E0D0A436F6E73756C743C
:100260002074686520646F63756D656E7461746970
:100270006F6E20666F7220746865206C69737420DD
:100280006F6620617661696C61626C6520636F6D79
:100290006D616E64732E0D0A005265636569766543
:1002A0006420636F6D6D616E64202700436F6D6D18
:1002B000616E64206E6F74207265636F676E697A19
:1002C00065642E0D0A000D0A00546F20737461726C
:1002D0007420636F6E66696775726174696F6E20F2
:1002E0006D6F64652C20796F75206D757374206651
:1002F000697273742073746F7020746865206F6EF8
:10030000676F696E67206D6561737572656D656E87
:1003100074210D0A00436F6E6669677572617469B6
:100320006F6E206D6F646520737461727465642CE8
:10033000207573652073796E74617820225B6E611D
:100340006D655D3B5B76616C75655D632220746FE6
:100350002061646A757374206170706C6963617484
:10036000696F6E20706172616D65746572732E0DB8
:100370000A55736520737061636520286173636932
:100380006920307832302920746F2065726173657E
:1003900020636861726163746572732E0D0A005088
:1003A0006172616D6574657220220022206973207C
:1003B0006E6F74207265636F676E697A65642E2054
:1003C00045786974696E6720636F6E6669677572D8
:1003D0006174696F6E2E0D0A00506172616D6574F3
:1003E0006572202200222077617320736574207467
:1003F0006F206E65772076616C756520002E0D0A82
:1004000000526563656976656420636F6E6669672F
:1004100020737472696E673A200043616E6E6F7468
:10042000207374617274206E6577206D65617375D9
:1004300072656D656E742C206F6E65206973206324
:10044000757272656E746C7920696E2070726F6758
:10045000726573732E0D0A005468657265206973A6
:10046000206E6F206F6E676F696E67206D656173B8
:100470007572656D656E742C206E6F7468696E6739
:1004800020746F20456E642E0D0A00546865206D3F
:100490006561737572656D656E7420697320676F31
:1004A000696E6720746F20656E6420726567617283
:1004B000646C6573732E0D0A0054686520656D6168
:1004C000737572656D656E742077696C6C206265FA
:1004D0002073746F70706564207768656E2074682F
:1004E000652063757272656E742062757273742014
:1004F000656E64732E0D0A0048656C70206D65731F
:100500007361676520666F72206475616C20736C1F
:100510006F706520696E746567726174696F6E20B3
:100520004144432E0D0A446576656C6F7065642006
:10053000627920566F6A74656368204D69636861EB
:100540006C206174204645452043545520696E2037
:100550005072616775650D0A666F7220636F757200
:10056000736520456D626564646564207379737496
:10057000656D7320647572696E672077696E746546
:10058000722073656D657374657220323032312F5D
:10059000323032322E0D0A0D0A0D0A4C6973742066
:1005A0006F6620737570706F7274656420636F6D11
:1005B0006D616E647320286361736520696E736575
:1005C0006E736974697665293A0D0A0948202D20F1
:1005D0007072696E7420746869732068656C70202D
:1005E0006D6573736167650D0A0953202D2073745F
:1005F0006F70206F6E676F696E67206D65617375D0
:1006000072656D656E74206F7220737461727420F0
:100610006E6577206F6E650D0A0943202D20656E8B
:1006200074657220636F6E66696775726174696F55
:100630006E206D6F64650D0A0000000001B44FF07C
:10064000000080B4604F386080BC01BC4FF00000F7
:1006500080B45E4F386080BC01B44FF0000080B4BD
:100660005B4F386080BC01BC01B44FF0000080B427
:10067000584F386080BC01BC01B44FF0000080B41A
:10068000554F386080BC01BC4FF47A7000F039F8E7
:100690004FF0000080B4514F386080BC4FF0010033
:1006A00080B44F4F386080BC4FF0800080B44D4F15
:1006B000386080BC00F0E4FC00F068F900F0DDFB7D
:1006C0004FF0010000F0DEFA474800F097F8FEE72F
:1006D0000EB53D490B680A68A2EB03028242FADDBF
:1006E0000EBD04B4384A1268A2EB000004BC704787
:1006F00004B5FFF7F6FF88424FF00000A8BF0120C5
:1007000004BD04B54FEAC000A0F1010080B4374F2A
:10071000386080BC364A126842F0070280B4344F19
:100720003A6080BC04BDC0B4274E376807F10107AA
:100730003760C0BC7047244800687047FFB54FF071
:100740005B0000F01EF8204800684FF0030100F045
:10075000B1F84FF008014FF0200200F01DF84FF003
:100760005D0000F00EF84FF0200000F00AF8FFBD29
:1007700000B503E000F005F8A1F101010942F9D14B
:1007800000BD07B51B4A126812F0800FFAD080B482
:10079000194F386080BC07BD0FB5034600F0D7F88D
:1007A000884208DAA1EB00011046FFF7EAFFA1F149
:1007B00001010942F9D113F8010B004202D0FFF701
:1007C000E0FFF8E70FBD0000000400200404002053
:1007D00018040020140400201C0400202804002019
:1007E00024040020200400201902000814E000E086
:1007F00010E000E01C4400402844004007B54FF0E2
:100800000001FFF7C9FF07BD0EB502780B78124251
:1008100004D11B4202D14FF0000007E0D21A04D1EC
:1008200000F1010001F10101EFE710460EBD0EB528
:1008300002788A4206D0002A02D000F10100F7E7D0
:100840004FF000000EBDFEB50446FFF7F0FF00427A
:1008500002D0A0EB040002E04FF0FF30FFE7FEBD46
:1008600030313233343536373839414243444546E6
:100870004748494A4B4C4D4E4F5051525354555690
:100880005758595A00000000FEB503460C464FF079
:1008900000020AE013F8010B00F064F80146394841
:1008A000FFF7D1FF02FB04F2024418780042F1D1B5
:1008B0001046FEBDFEB50D4633494FF00A0213E067
:1008C000B0FBF2F303FB02F3A0EB0303B0FBF2F087
:1008D00003F1300301F8013BA5F101052D4203D1DD
:1008E0004FF02E0301F8013B0042E9D1002D10DB4F
:1008F0000BD04FF0300001F8010BA5F101052D429E
:10090000F9D14FF02E0001F8010B4FF0300001F843
:10091000010B4FF0000008701B4800F001F8FEBD0D
:100920000FB5014600F013F80844A0F1010080EA79
:10093000010081EA000180EA010005E002780B78FD
:1009400001F8012900F8013B8842F7DB0FBD06B52D
:10095000014611F8012B1242FBD1A1F10101A1EBDB
:10096000000006BD0EB561284FF00001A8BF0121AF
:100970007A284FF00002D8BF0122094218BF203860
:100980000EBD000060080008080400200FB585486F
:10099000016841F40031016083484FF04501C160B6
:1009A000016841F00D0141F0200101604FF0260087
:1009B000FFF7F8FB0FBD0000FFB57C4B1B68184626
:1009C000FFF7D0FF02467A480068002803D010469F
:1009D00000F05AF855E0FFF7B1FE7648FFF70EFF3A
:1009E0001846FFF7CEFE7448FFF708FF10464FF099
:1009F0000001FFF75FFFFFF701FF4FF02900FFF74E
:100A0000C0FE6E48FFF7FAFE1046432836D0532842
:100A100025D0482807D0522821D0452807D068483B
:100A2000FFF7ECFE2DE06748FFF7E8FE29E0664897
:100A3000006800280FD0022803D06448FFF7DEFECC
:100A40001FE04FF0030080B45F4F386080BC604807
:100A5000FFF7D4FE15E05F48FFF7D0FE11E05A48DB
:100A60000068002806D1522A0CBF0220012000F0A5
:100A700041F906E05848FFF7C1FE02E000F067F8D0
:100A8000FFE7FFBD272028003EB520281CD00246E6
:100A900047490968012900D00AE03B2A18BF4F499D
:100AA0000DD14FF0020080B4414F386080BC26E089
:100AB000432A18BF4A4902D100F09EF836E00846A2
:100AC000FFF745FF0A541AE03949096801290CBFAC
:100AD000424843480146FFF73AFF004205D0A0F1E3
:100AE00001004FF000020A5009E03149096802296B
:100AF00008BF012180B42E4F396080BCFFE700F0B1
:100B000016F83848FFF77AFE4FF02200FFF739FE5B
:100B10003248FFF773FE4FF03B00FFF732FE3048DC
:100B2000FFF76CFE4FF02200FFF72BFE3EBD03B532
:100B30004FF00D00FFF725FE4FF020004FF082012F
:100B4000FFF716FE4FF00D00FFF71BFE03BD07B5C4
:100B5000FFF7F4FD1C480068002811D14FF0010098
:100B600080B4134F386080BC1F48FFF747FE1F4911
:100B70001F4A4FF0000041F8040B9142FBDB02E0FA
:100B80001C48FFF73BFE07BD415645524147494EC1
:100B9000475F4C454E475448004F564552575249BF
:100BA000544500001C100240004400402444004012
:100BB0002804002099020008840A0008C6020008E0
:100BC000AC020008F8040008040400208B040008AC
:100BD000B9040008580400081A0400082C04002076
:100BE0005404002001040008150300082C04002010
:100BF0007C040020C9020008FFB5EF484FF00A014D
:100C0000FFF742FE01B4ED48ED49FFF7FDFD00425C
:100C100001D1EC4907E0E948EB49FFF7F5FD004257
:100C20001BD1EA49FFE720BC0D604FF00D00FFF734
:100C3000A8FDE748FFF7E2FDE048FFF7DFFDE548E4
:100C4000FFF7DCFD28464FF00001FFF733FEFFF70A
:100C5000D5FDE148FFF7D2FD0DE001BC4FF00D00DE
:100C6000FFF78FFDDD48FFF7C9FDD448FFF7C6FD4C
:100C7000DB48FFF7C3FD4FF0000080B4D94F386068
:100C800080BCFFBD03B54FF00201004208BF09045C
:100C900080B4D54F396080BC03BD03B54FF001016E
:100CA000004208BF090480B4CF4F396080BC03BD47
:100CB00007B5CE490968CE4A21EA020141F48041D4
:100CC000004218BF41F4805180B4C84F396080BCE5
:100CD00007BD07B5C5490968C54A21EA020180B4C4
:100CE000C24F396080BC41F4E04180B4BF4F3960ED
:100CF00080BC07BD0FB580B4BE4F386080BC4FF0DC
:100D00000100FFF7D5FF4FF00000FFF7BBFFC0B4B5
:100D1000B94E376887F001073760C0BC0FBD0FB50B
:100D2000B648006820F0010080B4B44F386080BC41
:100D3000B3480068B3490968A0EB010080B4B24F22
:100D4000386080BC00F08DF880B4B04F386080BC53
:100D50004FF00100FFF796FFFFF7E9FE00F02BF8D8
:100D6000AB4800689749096800F1010080B4A84FBA
:100D7000386080BC884219DBA6489449096809425A
:100D800008BFFFF73BFD01B44FF0000080B4A04F57
:100D9000386080BC01BC97480068022806D04FF03C
:100DA000000080B4934F386080BC03E09148006835
:100DB000FFF7A0FF0FBD03B5FFF7C0FC9648FFF794
:100DC0001DFD9148006800F055F84FF00301FFF752
:100DD00071FDFFF713FD9148FFF710FD8A48006889
:100DE0004FF00001FFF766FDFFF708FD8C48FFF7A5
:100DF00005FD864800684FF00301FFF75BFDFFF734
:100E0000FDFC8848FFF7FAFC4FF02000FFF7B9FC23
:100E100000F001F803BD07B58348FFF7EFFC7C4AFB
:100E2000126810464FF00001FFF744FDFFF7E6FCA3
:100E30007E48FFF7E3FC63480068FFF73BFDFFF7E0
:100E4000DDFC4FF00A01B2FBF1F000FB01F0A2EB78
:100E5000000002464FF02E00FFF793FC013AFBDA48
:100E600007BD02B540F6C41100FB01F07049B0FBAC
:100E7000F1F002BD4FEAC000704707B56D48006849
:100E800040F0210080B46B4F386080BC4FF00C0004
:100E900080B4594F386080BC4FF0070080B4664F73
:100EA000386080BC44F6206080B4644F386080BCF9
:100EB0004FF0010080B4624F386080BC4FF05001A9
:100EC0004FF0050040EA010080B45E4F386080BCFE
:100ED0004FF08040006840F0810080B44FF08047C0
:100EE000386080BC4FF0020080B4574F386080BC3F
:100EF0004FF0F1004FF4904140EA010080B43B4FC5
:100F0000386080BC3D48006840F010004FF002009F
:100F100080B43A4F386080BC454880B4394F38605F
:100F200080BC4FF01C00FFF73DF94FF03700FFF792
:100F300039F907BD01B54548006820F0010080B4CB
:100F4000424F386080BC4FF0010080B4404F3860A1
:100F500080BC4048006820F0010080B43D4F3860FC
:100F600080BC2648006840F0010080B4234F386000
:100F700080BC4FF08040006840F0010080B44FF02A
:100F80008047386080BCFFF7A4FE01BD01B5314841
:100F9000006820F0020080B42E4F386080BC4FF013
:100FA0008040006820F0010080B44FF08047386036
:100FB00080BCFFF7B4FE01BD540400202C040020C7
:100FC000880B000820040020990B0008240400204E
:100FD000D9030008E5030008FD0300089F0300088B
:100FE000AB0300082804002018080048180000403F
:100FF00000700001040400200014004020000040A4
:101000003400004038000040140400201804002080
:101010001C040020C6020008CC010008E8010008FA
:10102000EE01000802020008060200081002000893
:1010300000C409001C100240281400402C14004079
:101040000C140040080000400C0000401014004048
:1010500014000040100000400FB44FEA501200F09E
:101060001F034FF0010000FA03F3044951F8220076
:1010700040EA030041F822000FBC704700E100E0A5
:1010800007B41A48016841F4202101604FF09040F4
:1010900001684FF0FF0221EA02014FF0AA0241EA83
:1010A00002010160124801684FF47F4221EA020107
:1010B0004FF4EE4241EA020101600D4801684FF031
:1010C000FF0221EA02014FF0110241EA0201016030
:1010D000084801684FF00F0221EA02014FF00502B3
:1010E00041EA0201016007BC704700001410024091
:0810F000200000480008004840
:040000050800063DAC
:00000001FF
