:020000040800F2
:1000000000040020890100088D0100088F0100080C
:10001000910100089301000895010008000000000C
:100020000000000000000000000000009701000830
:1000300099010008000000009B0100086F070008FC
:100040009F0100089F0100089F0100089F01000810
:100050009F0100089F0100089F0100089F01000800
:100060009F0100089F0100089F0100089F010008F0
:100070009F0100089F0100089F0100089F010008E0
:100080009F0100089F0100089F0100089F010008D0
:100090009F0100089F0100089F0100089F010008C0
:1000A0009F0100089F0100089F0100089F010008B0
:1000B0001D1000089F0100089F0100089F01000813
:1000C0009F0100089F0100089F0100089F01000890
:1000D0009F0100089F010008010A00089F01000815
:1000E0009F0100089F0100089F0100089F01000870
:1000F0009F0100089F0100089F0100089F01000860
:100100000000000000000000000000009F01000847
:100110009F0100089F0100089F010008C50F00080B
:100120009F0100089F0100089F0100089F0100082F
:100130009F0100089F01000800000000000000006F
:100140009F0100089F0100089F01000800000000B7
:10015000000000000000000000000000000000009F
:1001600000000000000000009F0100089F0100083F
:100170009F010008000000000000000000000000D7
:10018000000000009F01000805480047FEE7FEE769
:10019000FEE7FEE7FEE7FEE7FEE7FEE7FEE7FEE737
:1001A000690600080FB44FEA501200F01F034FF029
:1001B000010000FA03F3044951F8220040EA030069
:1001C00041F822000FBC704700E100E053797374DE
:1001D000656D2072657365742070656E64696E6705
:1001E0002E2E2E0D0A004D6561737572656D656E5C
:1001F000742066696E69736865642E205432203DF0
:100200002000207573202800206379636C657329B2
:10021000202D3E20555F696E203D202D0020562E5A
:100220000053616D706C696E672000206F757420DB
:100230006F6620000D0A0A0A0A0A566F4D69277375
:10024000206475616C20736C6F706520696E7465D5
:1002500067726174696F6E2041444320696E6974EE
:1002600069616C697A656420616E6420726561649D
:10027000792E0D0A436F6E73756C74207468652057
:10028000646F63756D656E746174696F6E20666FFF
:100290007220746865206C697374206F66206176C3
:1002A00061696C61626C6520636F6D6D616E647312
:1002B0002E0D0A00526563656976656420636F6D73
:1002C0006D616E64202700436F6D6D616E64206EFA
:1002D0006F74207265636F676E697A65642E0D0AAC
:1002E000000D0A00546F20737461727420636F6E86
:1002F00066696775726174696F6E206D6F64652CD5
:1003000020796F75206D757374206669727374201F
:1003100073746F7020746865206F6E676F696E67A5
:10032000206D6561737572656D656E74210D0A00CF
:10033000436F6E66696775726174696F6E206D6F69
:10034000646520737461727465642C207573652014
:1003500073796E74617820225B6E616D655D3B5BC5
:1003600076616C75655D632220746F2061646A75C7
:100370007374206170706C69636174696F6E207052
:100380006172616D65746572732E0D0A5573652017
:100390007370616365202861736369692030783206
:1003A000302920746F206572617365206368617203
:1003B0006163746572732E0D0A00506172616D6520
:1003C00074657220220022206973206E6F7420727F
:1003D00065636F676E697A65642E20457869746914
:1003E0006E6720636F6E66696775726174696F6EA0
:1003F0002E0D0A00506172616D65746572202200D5
:1004000022207761732073657420746F206E657786
:100410002076616C756520002E0D0A0052656365BB
:100420006976656420636F6E6669672073747269AC
:100430006E673A200043616E6E6F74207374617250
:1004400074206E6577206D6561737572656D656E7C
:10045000742C206F6E652069732063757272656EEF
:10046000746C7920696E2070726F67726573732E79
:100470000D0A005468657265206973206E6F206FE5
:100480006E676F696E67206D6561737572656D6506
:100490006E742C206E6F7468696E6720746F2045CF
:1004A0006E642E0D0A00546865206D656173757267
:1004B000656D656E7420697320676F696E6720745F
:1004C0006F20656E64207265676172646C6573731A
:1004D0002E0D0A0054686520656D61737572656D37
:1004E000656E742077696C6C2062652073746F7020
:1004F000706564207768656E207468652063757226
:1005000072656E7420627572737420656E64732EEA
:100510000D0A0048656C70206D6573736167652016
:10052000666F72206475616C20736C6F70652069F2
:100530006E746567726174696F6E204144432E0D5D
:100540000A446576656C6F70656420627920566F29
:100550006A74656368204D696368616C206174200A
:100560004645452043545520696E20507261677599
:10057000650D0A666F7220636F7572736520456D35
:100580006265646465642073797374656D73206457
:100590007572696E672077696E7465722073656D18
:1005A000657374657220323032312F323032322E20
:1005B0000D0A0D0A0D0A4C697374206F662073755D
:1005C00070706F7274656420636F6D6D616E6473BB
:1005D00020286361736520696E73656E7369746941
:1005E0007665293A0D0A0948202D207072696E74CB
:1005F00020746869732068656C70206D6573736121
:1006000067650D0A0953202D2073746F70206F6E7B
:10061000676F696E67206D6561737572656D656E74
:1006200074206F72207374617274206E6577206F0E
:100630006E650D0A0943202D20656E746572206376
:100640006F6E66696775726174696F6E206D6F6435
:10065000650D0A0952202D20726573657420737927
:100660007374656D0D0A000001B44FF0000080B492
:10067000674F386080BC01BC4FF0000080B4654F0C
:10068000386080BC01B44FF0000080B4624F386025
:1006900080BC01BC01B44FF0000080B45F4F3860F3
:1006A00080BC01BC01B44FF0000080B45C4F3860E6
:1006B00080BC01BC4FF47A7000F047F84FF00000A6
:1006C00080B4584F386080BC4FF0010080B4564F62
:1006D000386080BC4FF0800080B4544F386080BCDC
:1006E00000F018FD00F076F900F009FC4FF0010071
:1006F00000F0FEFA4E4800F0A5F84FF0000000F1BF
:10070000010000F1010000F1010000F1010000F121
:10071000010000F10100F0E70EB53D490B680A68E1
:10072000A2EB03028242FADD0EBD04B4384A12681D
:10073000A2EB000004BC704704B5FFF7F6FF884247
:100740004FF00000A8BF012004BD04B54FEAC0006F
:10075000A0F1010080B4374F386080BC364A12687F
:1007600042F0070280B4344F3A6080BC04BDC0B48C
:10077000274E376807F101073760C0BC704724482F
:1007800000687047FFB54FF05B0000F01EF820488E
:1007900000684FF0030100F0B1F84FF008014FF08E
:1007A000200200F01DF84FF05D0000F00EF84FF051
:1007B000200000F00AF8FFBD00B503E000F005F8E6
:1007C000A1F101010942F9D100BD07B51B4A126828
:1007D00012F0800FFAD080B4194F386080BC07BD8A
:1007E0000FB5034600F0D7F8884208DAA1EB000104
:1007F0001046FFF7EAFFA1F101010942F9D113F810
:10080000010B004202D0FFF7E0FFF8E70FBD000048
:100810000004002004040020180400201404002018
:100820001C040020280400202404002020040020B0
:100830003402000814E000E010E000E01C44004036
:100840002844004007B54FF00001FFF7C9FF07BD7E
:100850000EB502780B78124204D11B4202D14FF040
:10086000000007E0D21A04D100F1010001F10101FA
:10087000EFE710460EBD0EB502788A4206D0002A78
:1008800002D000F10100F7E74FF000000EBDFEB509
:100890000446FFF7F0FF004202D0A0EB040002E0A4
:1008A0004FF0FF30FFE7FEBD30313233343536379D
:1008B00038394142434445464748494A4B4C4D4EDE
:1008C0004F505152535455565758595A0000000032
:1008D000FEB503460C464FF000020AE013F8010B88
:1008E00000F064F801463948FFF7D1FF02FB04F23B
:1008F000024418780042F1D11046FEBDFEB50D4607
:1009000033494FF00A0213E0B0FBF2F303FB02F3AA
:10091000A0EB0303B0FBF2F003F1300301F8013B5D
:10092000A5F101052D4203D14FF02E0301F8013B43
:100930000042E9D1002D10DB0BD04FF0300001F860
:10094000010BA5F101052D42F9D14FF02E0001F860
:10095000010B4FF0300001F8010B4FF00000087060
:100960001B4800F001F8FEBD0FB5014600F013F87A
:100970000844A0F1010080EA010081EA000180EA58
:10098000010005E002780B7801F8012900F8013B2D
:100990008842F7DB0FBD06B5014611F8012B124264
:1009A000FBD1A1F10101A1EB000006BD0EB561284C
:1009B0004FF00001A8BF01217A284FF00002D8BFF4
:1009C0000122094218BF20380EBD0000A808000807
:1009D000080400200FB58B48016841F40031016024
:1009E00089484FF04501C160016841F00D0141F0B7
:1009F000200101604FF02600FFF7D4FB0FBD00007F
:100A0000FFB5824B1B681846FFF7D0FF02468048AF
:100A10000068002803D0104600F066F860E0FFF799
:100A2000B1FE7C48FFF70EFF1846FFF7CEFE7A486E
:100A3000FFF708FF10464FF00001FFF75FFFFFF7D9
:100A400001FF4FF02900FFF7C0FE7448FFF7FAFEE0
:100A50001046432841D0532830D0522809D0482886
:100A600010D052282AD0452810D06D48FFF7EAFE52
:100A700036E06C48FFF7E6FE6B4880B46B4F386099
:100A800080BCFEE76A48FFF7DDFE29E069480068A0
:100A900000280FD0022803D06748FFF7D3FE1FE0DD
:100AA0004FF0030080B4634F386080BC6348FFF7A9
:100AB000C9FE15E06248FFF7C5FE11E05D48006819
:100AC000002806D1522A0CBF0220012000F050F964
:100AD00006E05C48FFF7B6FE02E000F068F8FFE7CA
:100AE000FFBD2720280000003EB520281CD002466C
:100AF00047490968012900D00AE03B2A18BF52493A
:100B00000DD14FF0020080B4414F386080BC26E028
:100B1000432A18BF4D4902D100F0A4F836E0084638
:100B2000FFF739FF0A541AE03949096801290CBF57
:100B3000454846480146FFF72EFF004205D0A0F188
:100B400001004FF000020A5009E03149096802290A
:100B500008BF012180B42E4F396080BCFFE700F050
:100B600016F83B48FFF76EFE4FF02200FFF72DFE10
:100B70003548FFF767FE4FF03B00FFF726FE33488E
:100B8000FFF760FE4FF02200FFF71FFE3EBD03B5EA
:100B90004FF00D00FFF719FE4FF020004FF08201DB
:100BA000FFF70AFE4FF00D00FFF70FFE03BD07B57C
:100BB000FFF7E8FD1F480068002811D14FF0010041
:100BC00080B4134F386080BC2248FFF73BFE2249B7
:100BD000224A4FF0000041F8040B9142FBDB02E097
:100BE0001F48FFF72FFE07BD415645524147494E6A
:100BF000475F4C454E475448004F5645525752495F
:100C0000544500001C1002400044004024440040B1
:100C100028040020B4020008E20A0008E1020008EB
:100C2000C7020008CC0100080400FA050CED00E042
:100C30001305000804040020A6040008D4040008DA
:100C400073040008350400082C040020540400201C
:100C50001C040008300300082C0400207C04002041
:100C6000E4020008FFB5F8484FF00A01FFF730FE34
:100C700001B4F648F649FFF7EBFD004201D1F54912
:100C800007E0F248F449FFF7E3FD00421BD1F349C6
:100C9000FFE720BC0D604FF00D00FFF796FDF04818
:100CA000FFF7D0FDE948FFF7CDFDEE48FFF7CAFD9D
:100CB00028464FF00001FFF721FEFFF7C3FDEA4889
:100CC000FFF7C0FD0DE001BC4FF00D00FFF77DFD0B
:100CD000E648FFF7B7FDDD48FFF7B4FDE448FFF74E
:100CE000B1FD4FF0000080B4E24F386080BCFFBD22
:100CF00003B54FF00201004208BF090480B4DE4F83
:100D0000396080BC03BD03B54FF00101004208BF4C
:100D1000090480B4D84F396080BC03BD07B5D749FA
:100D20000968D74A21EA020141F48041004218BF14
:100D300041F4805180B4D14F396080BCD148006803
:100D400040F0100080B4CF4F386080BC07BD07B5BD
:100D5000CA490968CA4A21EA020180B4C74F39600A
:100D600080BC41F4E04180B4C44F396080BC07BD11
:100D70000FB580B4C44F386080BC4FF00100FFF75E
:100D8000CDFF4FF00000FFF7B3FFC0B4BF4E376890
:100D900087F001073760C0BC0FBD0FB5B9480068C8
:100DA00020F4807080B4B74F386080BC4FF00100F1
:100DB000FFF79EFFB6480068B6490968A0EB01003E
:100DC00080B4B54F386080BC00F089F880B4B34F70
:100DD000386080BCFFF7DBFE00F02BF8B0480068FD
:100DE0009C49096800F1010080B4AD4F386080BCB7
:100DF000884219DBAB4899490968094208BFFFF7E7
:100E000021FD01B44FF0000080B4A54F386080BCD4
:100E100001BC9D480068022806D04FF0000080B455
:100E2000994F386080BC03E097480068FFF7A0FF47
:100E30000FBD03B5FFF7A6FC9B48FFF703FD9648DF
:100E4000006800F055F84FF00301FFF757FDFFF77A
:100E5000F9FC9648FFF7F6FC8F4800684FF0000158
:100E6000FFF74CFDFFF7EEFC9148FFF7EBFC8B48DA
:100E700000684FF00301FFF741FDFFF7E3FC8D48E9
:100E8000FFF7E0FC4FF02000FFF79FFC00F001F8B7
:100E900003BD07B58848FFF7D5FC814A12681046A4
:100EA0004FF00001FFF72AFDFFF7CCFC8348FFF766
:100EB000C9FC68480068FFF721FDFFF7C3FC4FF04D
:100EC0000A01B2FBF1F000FB01F0A2EB00000246C8
:100ED0004FF02E00FFF779FC013AFBDA07BD02B5AF
:100EE00040F6C41100FB01F07549B0FBF1F002BD02
:100EF00002B44FF07D0100FB01F002BC704707B562
:100F00007048006840F0210080B46E4F386080BCAB
:100F10004FF00C0080B45D4F386080BC4FF007008C
:100F200080B4694F386080BC4FF4487080B4674F1C
:100F3000386080BC4FF0010080B4654F386080BCE1
:100F40004FF0500180B4634F396080BC4FF0050012
:100F500040EA010080B45F4F386080BC4FF08040B1
:100F6000006840F0810080B44FF08047386080BC5A
:100F70004FF0080080B4584F386080BC4FF001003B
:100F800080B4564F386080BC4FF4904080B43B4FE3
:100F9000386080BC3B48006840F010004FF400709F
:100FA00080B4384F386080BC454880B4394F3860D1
:100FB00080BC4FF01C00FFF7F5F84FF03700FFF74B
:100FC000F1F807BD01B54648006820F0010080B483
:100FD000434F386080BC4FF0010080B4414F38600F
:100FE00080BC4148006820F0010080B43E4F38606A
:100FF00080BC2448006840F4807080B4214F386081
:1010000080BC4FF08040006840F0010080B44FF099
:101010008047386080BCFFF79AFE01BD01B53248B9
:10102000006820F0080080B42F4F386080BC4FF07B
:101030008040006820F0010080B44FF080473860A5
:1010400080BCFFF7AAFE01BD540400202C04002040
:10105000E80B000820040020F90B000824040020FD
:10106000F40300080004000818040008BA0300088C
:10107000C603000828040020180800481800004093
:101080000070000120000040040400200014004013
:101090003C000040380000401404002018040020E8
:1010A0001C040020E1020008E6010008020200081A
:1010B000080200081D020008210200082B02000897
:1010C00000E204001C100240281400402C140040D0
:1010D0000C140040080000400C0000401C000040C0
:1010E0001014004014000040100000400FB44FEAFC
:1010F000501200F01F034FF0010000FA03F30449FF
:1011000051F8220040EA030041F822000FBC70476A
:1011100000E100E007B41E48016841F420210160AD
:101120004FF0904001681B4A21EA02011A4A41EA45
:1011300002010160194801684FF47F4221EA02016F
:101140004FF4EE4241EA02010160144801684FF099
:10115000FF0221EA02014FF0110241EA020101609F
:101160000F4801684FF0F00221EA02014FF0A0029F
:1011700041EA020101600B4801684FF00F0221EAC9
:1011800002014FF0050241EA0201016007BC70470D
:1011900014100240FF000C00AA00080020000048C4
:0811A00024000048000800488B
:040000050800066980
:00000001FF
