:020000040800F2
:1000000000040020890100088D0100088F0100080C
:10001000910100089301000895010008000000000C
:100020000000000000000000000000009701000830
:1000300099010008000000009B0100085707000814
:100040009F0100089F0100089F0100089F01000810
:100050009F0100089F0100089F0100089F01000800
:100060009F0100089F0100089F0100089F010008F0
:100070009F0100089F0100089F0100089F010008E0
:100080009F0100089F0100089F0100089F010008D0
:100090009F0100089F0100089F0100089F010008C0
:1000A0009F0100089F0100089F0100089F010008B0
:1000B000FF0F00089F0100089F0100089F01000832
:1000C0009F0100089F0100089F0100089F01000890
:1000D0009F0100089F010008E90900089F0100082E
:1000E0009F0100089F0100089F0100089F01000870
:1000F0009F0100089F0100089F0100089F01000860
:100100000000000000000000000000009F01000847
:100110009F0100089F0100089F010008A70F000829
:100120009F0100089F0100089F0100089F0100082F
:100130009F0100089F01000800000000000000006F
:100140009F0100089F0100089F01000800000000B7
:10015000000000000000000000000000000000009F
:1001600000000000000000009F0100089F0100083F
:100170009F010008000000000000000000000000D7
:10018000000000009F01000805480047FEE7FEE769
:10019000FEE7FEE7FEE7FEE7FEE7FEE7FEE7FEE737
:1001A0006D0600080FB44FEA501200F01F034FF025
:1001B000010000FA03F3044951F8220040EA030069
:1001C00041F822000FBC704700E100E053797374DE
:1001D000656D2072657365742070656E64696E6705
:1001E0002E2E2E0D0A004D6561737572656D656E5C
:1001F000742066696E69736865642E205432203DF0
:100200002000206D73202800204B6379636C657398
:1002100029202D3E20555F696E203D202D00206D48
:10022000562E0053616D706C696E672000206F75EB
:1002300074206F6620000D0A0A0A0A0A566F4D697B
:100240002773206475616C20736C6F706520696E14
:10025000746567726174696F6E2041444320696EF2
:10026000697469616C697A656420616E6420726585
:100270006164792E0D0A436F6E73756C7420746817
:100280006520646F63756D656E746174696F6E204F
:10029000666F7220746865206C697374206F6620C5
:1002A000617661696C61626C6520636F6D6D616E12
:1002B00064732E0D0A005265636569766564206378
:1002C0006F6D6D616E64202700436F6D6D616E64AC
:1002D000206E6F74207265636F676E697A65642E35
:1002E0000D0A000D0A00546F20737461727420634C
:1002F0006F6E66696775726174696F6E206D6F6489
:10030000652C20796F75206D757374206669727322
:10031000742073746F7020746865206F6E676F69E6
:100320006E67206D6561737572656D656E74210D04
:100330000A00436F6E66696775726174696F6E203B
:100340006D6F646520737461727465642C207573BD
:10035000652073796E74617820225B6E616D655DD6
:100360003B5B76616C75655D632220746F20616410
:100370006A757374206170706C69636174696F6E03
:1003800020706172616D65746572732E0D0A55730C
:10039000652073706163652028617363696920302B
:1003A0007832302920746F2065726173652063682C
:1003B00061726163746572732E0D0A00506172611F
:1003C0006D6574657220220022206973206E6F743F
:1003D000207265636F676E697A65642E204578695F
:1003E00074696E6720636F6E6669677572617469A0
:1003F0006F6E2E0D0A00506172616D65746572201A
:10040000220022207761732073657420746F206E40
:1004100065772076616C756520002E0D0A005265A7
:1004200063656976656420636F6E666967207374BF
:1004300072696E673A200043616E6E6F7420737448
:10044000617274206E6577206D6561737572656D7C
:10045000656E742C206F6E652069732063757272EF
:10046000656E746C7920696E2070726F6772657347
:10047000732E0D0A005468657265206973206E6FD3
:10048000206F6E676F696E67206D65617375726549
:100490006D656E742C206E6F7468696E6720746F62
:1004A00020656E642E0D0A00546865206D656173C9
:1004B0007572656D656E7420697320676F696E670C
:1004C00020746F20656E64207265676172646C656C
:1004D00073732E0D0A0054686520656D6173757223
:1004E000656D656E742077696C6C2062652073742D
:1004F0006F70706564207768656E2074686520632E
:10050000757272656E7420627572737420656E64A4
:10051000732E0D0A0048656C70206D6573736167FA
:100520006520666F72206475616C20736C6F7065F6
:1005300020696E746567726174696F6E204144430F
:100540002E0D0A446576656C6F70656420627920B3
:10055000566F6A74656368204D696368616C2061D9
:1005600074204645452043545520696E20507261E1
:100570006775650D0A666F7220636F75727365200B
:10058000456D6265646465642073797374656D7329
:1005900020647572696E672077696E746572207366
:1005A000656D657374657220323032312F323032AE
:1005B000322E0D0A0D0A0D0A4C697374206F6620E5
:1005C000737570706F7274656420636F6D6D616EAA
:1005D000647320286361736520696E73656E736947
:1005E00074697665293A0D0A0948202D20707269D0
:1005F0006E7420746869732068656C70206D657313
:10060000736167650D0A0953202D2073746F702084
:100610006F6E676F696E67206D6561737572656D6A
:10062000656E74206F72207374617274206E6577CA
:10063000206F6E650D0A0943202D20656E7465726A
:1006400020636F6E66696775726174696F6E206D85
:100650006F64650D0A0951202D2072657365742041
:1006600073797374656D0D0A0000000001B44FF0DA
:10067000000080B4604F386080BC01BC4FF00000C7
:1006800080B45E4F386080BC01B44FF0000080B48D
:100690005B4F386080BC01BC01B44FF0000080B4F7
:1006A000584F386080BC01BC01B44FF0000080B4EA
:1006B000554F386080BC01BC4FF47A7000F039F8B7
:1006C0004FF0000080B4514F386080BC4FF0010003
:1006D00080B44F4F386080BC4FF0800080B44D4FE5
:1006E000386080BC00F008FD00F068F900F0F8FB0D
:1006F0004FF0010000F0F0FA474800F097F8FEE7ED
:100700000EB53D490B680A68A2EB03028242FADD8E
:100710000EBD04B4384A1268A2EB000004BC704756
:1007200004B5FFF7F6FF88424FF00000A8BF012094
:1007300004BD04B54FEAC000A0F1010080B4374FFA
:10074000386080BC364A126842F0070280B4344FE9
:100750003A6080BC04BDC0B4274E376807F101077A
:100760003760C0BC7047244800687047FFB54FF041
:100770005B0000F01EF8204800684FF0030100F015
:10078000B1F84FF008014FF0200200F01DF84FF0D3
:100790005D0000F00EF84FF0200000F00AF8FFBDF9
:1007A00000B503E000F005F8A1F101010942F9D11B
:1007B00000BD07B51B4A126812F0800FFAD080B452
:1007C000194F386080BC07BD0FB5034600F0D7F85D
:1007D000884208DAA1EB00011046FFF7EAFFA1F119
:1007E00001010942F9D113F8010B004202D0FFF7D1
:1007F000E0FFF8E70FBD0000000400200404002023
:1008000018040020140400201C04002028040020E8
:1008100024040020200400203602000814E000E038
:1008200010E000E01C4400402844004007B54FF0B1
:100830000001FFF7C9FF07BD0EB502780B78124221
:1008400004D11B4202D14FF0000007E0D21A04D1BC
:1008500000F1010001F10101EFE710460EBD0EB5F8
:1008600002788A4206D0002A02D000F10100F7E7A0
:100870004FF000000EBDFEB50446FFF7F0FF00424A
:1008800002D0A0EB040002E04FF0FF30FFE7FEBD16
:1008900030313233343536373839414243444546B6
:1008A0004748494A4B4C4D4E4F5051525354555660
:1008B0005758595A00000000FEB503460C464FF049
:1008C00000020AE013F8010B00F064F80146394811
:1008D000FFF7D1FF02FB04F2024418780042F1D185
:1008E0001046FEBDFEB50D4633494FF00A0213E037
:1008F000B0FBF2F303FB02F3A0EB0303B0FBF2F057
:1009000003F1300301F8013BA5F101052D4203D1AC
:100910004FF02E0301F8013B0042E9D1002D10DB1E
:100920000BD04FF0300001F8010BA5F101052D426D
:10093000F9D14FF02E0001F8010B4FF0300001F813
:10094000010B4FF0000008701B4800F001F8FEBDDD
:100950000FB5014600F013F80844A0F1010080EA49
:10096000010081EA000180EA010005E002780B78CD
:1009700001F8012900F8013B8842F7DB0FBD06B5FD
:10098000014611F8012B1242FBD1A1F10101A1EBAB
:10099000000006BD0EB561284FF00001A8BF01217F
:1009A0007A284FF00002D8BF0122094218BF203830
:1009B0000EBD000090080008080400200FB58B4809
:1009C000016841F40031016089484FF04501C16080
:1009D000016841F00D0141F0200101604FF0260057
:1009E000FFF7E0FB0FBD0000FFB5824B1B68184608
:1009F000FFF7D0FF024680480068002803D0104669
:100A000000F066F860E0FFF7B1FE7C48FFF70EFFEC
:100A10001846FFF7CEFE7A48FFF708FF10464FF062
:100A20000001FFF75FFFFFF701FF4FF02900FFF71D
:100A3000C0FE7448FFF7FAFE1046432841D0532801
:100A400030D0512809D0482810D052282AD0452823
:100A500010D06D48FFF7EAFE36E06C48FFF7E6FE7F
:100A60006B4880B46B4F386080BCFEE76A48FFF784
:100A7000DDFE29E06948006800280FD0022803D075
:100A80006748FFF7D3FE1FE04FF0030080B4634FC9
:100A9000386080BC6348FFF7C9FE15E06248FFF785
:100AA000C5FE11E05D480068002806D1522A0CBF3F
:100AB0000220012000F050F906E05C48FFF7B6FE86
:100AC00002E000F068F8FFE7FFBD272028000000E3
:100AD0003EB520281CD0024647490968012900D0AC
:100AE0000AE03B2A18BF52490DD14FF0020080B4F2
:100AF000414F386080BC26E0432A18BF4D4902D1DF
:100B000000F0A4F836E00846FFF739FF0A541AE06F
:100B10003949096801290CBF454846480146FFF795
:100B20002EFF004205D0A0F101004FF000020A5054
:100B300009E031490968022908BF012180B42E4F1C
:100B4000396080BCFFE700F016F83B48FFF76EFE07
:100B50004FF02200FFF72DFE3548FFF767FE4FF0FC
:100B60003B00FFF726FE3348FFF760FE4FF0220000
:100B7000FFF71FFE3EBD03B54FF00D00FFF719FE56
:100B80004FF020004FF08201FFF70AFE4FF00D00FA
:100B9000FFF70FFE03BD07B5FFF7E8FD1F4800682C
:100BA000002811D14FF0010080B4134F386080BC91
:100BB0002248FFF73BFE2249224A4FF0000041F84D
:100BC000040B9142FBDB02E01F48FFF72FFE07BD3D
:100BD000415645524147494E475F4C454E47544860
:100BE000004F564552575249544500001C100240D0
:100BF000004400402444004028040020B6020008BD
:100C0000CA0A0008E3020008C9020008CC01000873
:100C10000400FA050CED00E01505000804040020AE
:100C2000A8040008D604000875040008370400086A
:100C30002C040020540400201E0400083203000885
:100C40002C0400207C040020E6020008FFB5F748D1
:100C50004FF00A01FFF730FE01B4F548F549FFF700
:100C6000EBFD004201D1F44907E0F148F349FFF7F9
:100C7000E3FD00421BD1F249FFE720BC0D604FF0BD
:100C80000D00FFF796FDEF48FFF7D0FDE848FFF7AE
:100C9000CDFDED48FFF7CAFD28464FF00001FFF7F4
:100CA00021FEFFF7C3FDE948FFF7C0FD0DE001BCE1
:100CB0004FF00D00FFF77DFDE548FFF7B7FDDC487D
:100CC000FFF7B4FDE348FFF7B1FD4FF0000080B43B
:100CD000E14F386080BCFFBD03B54FF00201004218
:100CE00008BF090480B4DD4F396080BC03BD03B583
:100CF0004FF00101004208BF090480B4D74F3960AA
:100D000080BC03BD07B5D6490968D64A21EA02016D
:100D100041F48041004218BF41F4805180B4D04F6B
:100D2000396080BCD048006840F0100080B4CE4FDD
:100D3000386080BC07BD07B5C9490968C94A21EABE
:100D4000020180B4C64F396080BC41F4E04180B4F8
:100D5000C34F396080BC07BD0FB580B4C34F386046
:100D600080BC4FF00100FFF7CDFF4FF00000FFF710
:100D7000B3FFC0B4BE4E376887F001073760C0BC10
:100D80000FBD0FB5B848006820F4807080B4B64F2E
:100D9000386080BC4FF00100FFF79EFFB548006847
:100DA000B5490968A0EB010080B4B44F386080BC3D
:100DB00000F089F880B4B24F386080BCFFF7DBFEEA
:100DC00000F02BF8AF4800689B49096800F101006A
:100DD00080B4AC4F386080BC884219DBAA4898497F
:100DE0000968094208BFFFF721FD01B44FF0000078
:100DF00080B4A44F386080BC01BC9C4800680228C5
:100E000006D04FF0000080B4984F386080BC03E0FB
:100E100096480068FFF7A0FF0FBD03B5FFF7A6FCDB
:100E20009A48FFF703FD9548006800F056F84FF028
:100E30000301FFF757FDFFF7F9FC9548FFF7F6FCB4
:100E40008E4800684FF00301FFF74CFDFFF7EEFC02
:100E50009048FFF7EBFC8A4800684FF00101FFF76C
:100E600041FDFFF7E3FC8C48FFF7E0FC4FF020006A
:100E7000FFF79FFC00F001F803BD07B58748FFF7B7
:100E8000D5FC804A126810464FF00001FFF72AFD9A
:100E9000FFF7CCFC8248FFF7C9FC67480068FFF702
:100EA00021FDFFF7C3FC4FF00A01B2FBF1F000FB9C
:100EB00001F0A2EB000002464FF02E00FFF779FC94
:100EC000013AFBDA07BD02B540F6C41100FB01F0A0
:100ED0004FF4FA41B0FBF1F002BD4FEAD000704789
:100EE00007B57048006840F0210080B46D4F38604D
:100EF00080BC4FF00C0080B45D4F386080BC4FF078
:100F0000070080B4684F386080BC4FF4487080B4EC
:100F1000664F386080BC4FF0010080B4644F386089
:100F200080BC4FF0500180B4624F396080BC4FF0FC
:100F3000050040EA010080B45E4F386080BC4FF08D
:100F40008040006840F0810080B44FF080473860F6
:100F500080BC4FF0080080B4574F386080BC4FF021
:100F6000010080B4554F386080BC4FF4904080B48D
:100F70003B4F386080BC3C48006840F010004FF4A4
:100F8000007080B4384F386080BC4D4880B43A4F10
:100F9000386080BC4FF01C00FFF704F94FF03700B9
:100FA000FFF700F907BD01B54648006820F00100D1
:100FB00080B4444F386080BC4FF0010080B4424F91
:100FC000386080BC4148006820F0010080B43F4F89
:100FD000386080BC2448006840F4807080B4224FA0
:100FE000386080BC4FF08040006840F0010080B461
:100FF0004FF08047386080BCFFF79DFE01BD01B512
:101000003248006820F0080080B4304F386080BC5F
:101010004FF08040006820F0010080B44FF080471E
:10102000386080BCFFF7ADFE01BD00005404002015
:101030002C040020D00B000820040020E10B000845
:1010400024040020F6030008020400081A04000823
:10105000BC030008C8030008280400201808004842
:10106000180000400070000120000040040400202F
:10107000001400403C0000403800004014040020F0
:10108000180400201C040020E3020008E601000808
:1010900002020008080200081E02000823020008DD
:1010A0002D0200081C100240281400402C1400409F
:1010B0000C140040080000400C0000401C000040E0
:1010C00000E2040010140040140000401000004032
:1010D0000FB44FEA501200F01F034FF0010000FA66
:1010E00003F3044951F8220040EA030041F82200CA
:1010F0000FBC704700E100E007B41E48016841F4EE
:10110000202101604FF0904001681B4A21EA020152
:101110001A4A41EA02010160194801684FF47F420E
:1011200021EA02014FF4EE4241EA02010160144853
:1011300001684FF0FF0221EA02014FF0110241EA7B
:10114000020101600F4801684FF0F00221EA02013C
:101150004FF0A00241EA020101600B4801684FF024
:101160000F0221EA02014FF0050241EA020101608B
:1011700007BC704714100240FF000C00AA000800D2
:0C1180002000004824000048000800483F
:040000050800066D7C
:00000001FF
