:020000040800F2
:1000000000040020890100088D0100088F0100080C
:10001000910100089301000895010008000000000C
:100020000000000000000000000000009701000830
:1000300099010008000000009B0100087F070008EC
:100040009F0100089F0100089F0100089F01000810
:100050009F0100089F0100089F0100089F01000800
:100060009F0100089F0100089F0100089F010008F0
:100070009F0100089F0100089F0100089F010008E0
:100080009F0100089F0100089F0100089F010008D0
:100090009F0100089F0100089F0100089F010008C0
:1000A0009F0100089F0100089F0100089F010008B0
:1000B000B71000089F0100089F0100089F01000879
:1000C0009F0100089F0100089F0100089F01000890
:1000D0009F0100089F010008110A00089F01000805
:1000E0009F0100089F0100089F0100089F01000870
:1000F0009F0100089F0100089F0100089F01000860
:100100000000000000000000000000009F01000847
:100110009F0100089F0100089F0100085F10000870
:100120009F0100089F0100089F0100089F0100082F
:100130009F0100089F01000800000000000000006F
:100140009F0100089F0100089F01000800000000B7
:10015000000000000000000000000000000000009F
:1001600000000000000000009F0100089F0100083F
:100170009F010008000000000000000000000000D7
:10018000000000009F01000805480047FEE7FEE769
:10019000FEE7FEE7FEE7FEE7FEE7FEE7FEE7FEE737
:1001A000950600080FB44FEA501200F01F034FF0FD
:1001B000010000FA03F3044951F8220040EA030069
:1001C00041F822000FBC704700E100E053797374DE
:1001D000656D2072657365742070656E64696E6705
:1001E0002E2E2E0D0A004D6561737572656D656E5C
:1001F000742066696E69736865642E205432203DF0
:100200002000206D73202800204B6379636C657398
:1002100029202D3E20555F696E203D202D00206D48
:10022000562E0053616D706C6520002F000D0A0A78
:100230000A0A0A566F4D692773206475616C207332
:100240006C6F706520696E746567726174696F6E3A
:100250002041444320696E697469616C697A656400
:1002600020616E642072656164792E0D0A436F6EA1
:1002700073756C742074686520646F63756D656E4A
:10028000746174696F6E20666F7220746865206C8B
:10029000697374206F6620617661696C61626C6558
:1002A00020636F6D6D616E64732E0D0A005265637D
:1002B000656976656420636F6D6D616E64202700EB
:1002C000436F6D6D616E64206E6F74207265636F35
:1002D000676E697A65642E0D0A0043757272656EE9
:1002E000746C79207573656420636F6E66696775D9
:1002F000726174696F6E20286E616D652D76616C18
:100300007565207061697273293A0D0A000D0A0043
:10031000546F20737461727420636F6E66696775C1
:10032000726174696F6E206D6F64652C20796F75D2
:10033000206D7573742066697273742073746F70A6
:1003400020746865206F6E676F696E67206D6561E8
:10035000737572656D656E74210D0A00436F6E666C
:10036000696775726174696F6E206D6F6465207363
:100370007461727465642C207573652073796E7472
:10038000617820225B6E616D655D3B5B76616C75AB
:10039000655D632220746F2061646A7573742061E7
:1003A00070706C69636174696F6E20706172616DE9
:1003B00065746572732E0D0A5573652073706163E1
:1003C0006520286173636969203078323029207490
:1003D0006F20657261736520636861726163746523
:1003E00072732E0D0A00506172616D657465722022
:1003F000220022206973206E6F74207265636F671C
:100400006E697A65642E2045786974696E67206329
:100410006F6E66696775726174696F6E2E0D0A0082
:10042000506172616D6574657220220022207761CF
:10043000732073657420746F206E65772076616C0D
:10044000756520002E0D0A00526563656976656446
:1004500020636F6E66696720737472696E673A20F5
:100460000043616E6E6F74207374617274206E65E8
:1004700077206D6561737572656D656E742C206F84
:100480006E652069732063757272656E746C792075
:10049000696E2070726F67726573732E0D0A005457
:1004A00068657265206973206E6F206F6E676F6973
:1004B0006E67206D6561737572656D656E742C2055
:1004C0006E6F7468696E6720746F20656E642E0DA0
:1004D0000A00546865206D6561737572656D656E9F
:1004E0007420697320676F696E6720746F20656E72
:1004F00064207265676172646C6573732E0D0A0007
:1005000054686520656D61737572656D656E7420E4
:1005100077696C6C2062652073746F7070656420FD
:100520007768656E207468652063757272656E7495
:1005300020627572737420656E64732E0D0A004814
:10054000656C70206D65737361676520666F7220DE
:100550006475616C20736C6F706520696E7465677B
:10056000726174696F6E204144432E0D0A446576B2
:10057000656C6F70656420627920566F6A7465637C
:1005800068204D696368616C206174204645452090
:1005900043545520696E205072616775650D0A6677
:1005A0006F7220636F7572736520456D6265646458
:1005B00065642073797374656D7320647572696EF8
:1005C000672077696E7465722073656D65737465F5
:1005D0007220323032312F323032322E0D0A0D0A73
:1005E0000D0A4C697374206F6620737570706F729A
:1005F00074656420636F6D6D616E64732028636140
:10060000736520696E73656E736974697665293ADE
:100610000D0A0948202D207072696E742074686973
:10062000732068656C70206D6573736167650D0A72
:100630000953202D2073746F70206F6E676F696E81
:1006400067206D6561737572656D656E74206F727C
:10065000207374617274206E6577206F6E650D0A69
:100660000943202D20656E74657220636F6E666984
:100670006775726174696F6E206D6F64650D0A092C
:1006800051202D2072657365742073797374656DC4
:100690000D0A000001B44FF0000080B4604F3860D4
:1006A00080BC01BC4FF0000080B45E4F386080BC5D
:1006B00001B44FF0000080B45B4F386080BC01BCD7
:1006C00001B44FF0000080B4584F386080BC01BCCA
:1006D00001B44FF0000080B4554F386080BC01BCBD
:1006E0004FF47A7000F039F84FF0000080B4514FA9
:1006F000386080BC4FF0010080B44F4F386080BC40
:100700004FF0800080B44D4F386080BC00F044FD55
:1007100000F068F900F040FC4FF0010000F039FBF8
:10072000474800F097F8FEE70EB53D490B680A68A8
:10073000A2EB03028242FADD0EBD04B4384A12680D
:10074000A2EB000004BC704704B5FFF7F6FF884237
:100750004FF00000A8BF012004BD04B54FEAC0005F
:10076000A0F1010080B4374F386080BC364A12686F
:1007700042F0070280B4344F3A6080BC04BDC0B47C
:10078000274E376807F101073760C0BC704724481F
:1007900000687047FFB54FF05B0000F01EF820487E
:1007A00000684FF0030100F0B1F84FF008014FF07E
:1007B000200200F01DF84FF05D0000F00EF84FF041
:1007C000200000F00AF8FFBD00B503E000F005F8D6
:1007D000A1F101010942F9D100BD07B51B4A126818
:1007E00012F0800FFAD080B4194F386080BC07BD7A
:1007F0000FB5034600F0D7F8884208DAA1EB0001F4
:100800001046FFF7EAFFA1F101010942F9D113F8FF
:10081000010B004202D0FFF7E0FFF8E70FBD000038
:100820000004002004040020180400201404002008
:100830001C040020280400202404002020040020A0
:100840002D02000814E000E010E000E01C4400402D
:100850002844004007B54FF00001FFF7C9FF07BD6E
:100860000EB502780B78124204D11B4202D14FF030
:10087000000007E0D21A04D100F1010001F10101EA
:10088000EFE710460EBD0EB502788A4206D0002A68
:1008900002D000F10100F7E74FF000000EBDFEB5F9
:1008A0000446FFF7F0FF004202D0A0EB040002E094
:1008B0004FF0FF30FFE7FEBD30313233343536378D
:1008C00038394142434445464748494A4B4C4D4ECE
:1008D0004F505152535455565758595A0000000022
:1008E000FEB503460C464FF000020AE013F8010B78
:1008F00000F064F801463948FFF7D1FF02FB04F22B
:10090000024418780042F1D11046FEBDFEB50D46F6
:1009100033494FF00A0213E0B0FBF2F303FB02F39A
:10092000A0EB0303B0FBF2F003F1300301F8013B4D
:10093000A5F101052D4203D14FF02E0301F8013B33
:100940000042E9D1002D10DB0BD04FF0300001F850
:10095000010BA5F101052D42F9D14FF02E0001F850
:10096000010B4FF0300001F8010B4FF00000087050
:100970001B4800F001F8FEBD0FB5014600F013F86A
:100980000844A0F1010080EA010081EA000180EA48
:10099000010005E002780B7801F8012900F8013B1D
:1009A0008842F7DB0FBD06B5014611F8012B124254
:1009B000FBD1A1F10101A1EB000006BD0EB561283C
:1009C0004FF00001A8BF01217A284FF00002D8BFE4
:1009D0000122094218BF20380EBD0000B8080008E7
:1009E000080400200FB59248016841F4003101600D
:1009F00090484FF04501C160016841F00D0141F0A0
:100A0000200101604FF02600FFF7CCFB0FBD000076
:100A1000FFB5894B1B681846FFF7D0FF0246874891
:100A20000068002803D0104600F06AF865E0FFF780
:100A3000B1FE8348FFF70EFF1846FFF7CEFE814850
:100A4000FFF708FF10464FF00001FFF75FFFFFF7C9
:100A500001FF4FF02900FFF7C0FE7B48FFF7FAFEC9
:100A60001046432846D0532835D051280ED0492867
:100A700009D0482813D052282DD0452813D07348C8
:100A8000FFF7E8FE39E000F063F936E07048FFF761
:100A9000E1FE704880B4704F386080BCFEE76F485C
:100AA000FFF7D8FE29E06E48006800280FD0022822
:100AB00003D06C48FFF7CEFE1FE04FF0030080B478
:100AC000674F386080BC6848FFF7C4FE15E0674890
:100AD000FFF7C0FE11E062480068002806D1522AE4
:100AE0000CBF0220012000F094F906E06048FFF7F7
:100AF000B1FE02E000F067F8FFE7FFBD2720280005
:100B00003EB520281CD002464C490968012900D076
:100B10000AE03B2A18BF57490DD14FF0020080B4BC
:100B2000464F386080BC26E0432A18BF524902D1A4
:100B300000F0AEF836E00846FFF735FF0A541AE039
:100B40003E49096801290CBF4A484B480146FFF756
:100B50002AFF004205D0A0F101004FF000020A5028
:100B600009E036490968022908BF012180B4334FE2
:100B7000396080BCFFE700F016F84048FFF76AFED6
:100B80004FF02200FFF729FE3A48FFF763FE4FF0CF
:100B90003B00FFF722FE3848FFF75CFE4FF02200D3
:100BA000FFF71BFE3EBD03B54FF00D00FFF715FE2E
:100BB0004FF020004FF08201FFF706FE4FF00D00CE
:100BC000FFF70BFE03BD07B5FFF7E4FD24480068FF
:100BD000002813D14FF0010080B4184F386080BC5A
:100BE0002748FFF737FE00F0B3F82649264A4FF0B2
:100BF000000041F8040B9142FBDB02E02348FFF7C1
:100C000029FE07BD415645524147494E475F4C4575
:100C10004E475448004F56455257524954450000DC
:100C2000040C0008150C00082004002024040020F7
:100C30001C100240004400402444004028040020CE
:100C4000AD020008FC0A00080D030008C0020008FD
:100C5000CC0100080400FA050CED00E03F05000897
:100C600004040020D2040008000500089F040008C6
:100C7000610400082C0400205404002048040008EB
:100C80005C0300082C0400207C04002010030008F2
:100C9000FFB524484FF00A01FFF722FE01B44FF0E0
:100CA000000409E02048214951F82410FFF7D8FD3D
:100CB000004204D004F10104022CF3D11CE01C49D1
:100CC00051F8241020BC0D604FF00D00FFF785FD9A
:100CD0001848FFF7BFFD1448FFF7BCFD1648FFF7A3
:100CE000B9FD28464FF00001FFF710FEFFF7B2FDF7
:100CF0001248FFF7AFFD0DE001BC4FF00D00FFF70C
:100D00006CFD0F48FFF7A6FD0748FFF7A3FD0D4850
:100D1000FFF7A0FD4FF0000080B40B4F386080BC9F
:100D2000FFBD0000540400202C040020200C00080B
:100D3000280C0008200400082C04000844040008C3
:100D4000E6030008F203000828040020203D2000EC
:100D5000FFB5E448FFF77EFD4FF0000416E0E248DF
:100D600050F82400FFF776FDE048FFF773FDE048F8
:100D700050F8240000684FF00001FFF7C7FDFFF7AF
:100D800069FDDC48FFF766FD04F10104022CE6D1A1
:100D9000FFBD03B54FF00201004208BF090480B453
:100DA000D54F396080BC03BD03B54FF0010100424F
:100DB00008BF090480B4D04F396080BC03BD07B5BB
:100DC000CE490968CE4A21EA020141F4804100423D
:100DD00018BF41F4805180B4C84F396080BCC94805
:100DE000006840F0100080B4C64F386080BC07BD7A
:100DF00007B5C2490968C24A21EA020180B4BF4F5F
:100E0000396080BC41F4E04180B4BC4F396080BCA3
:100E100007BD0FB580B4BC4F386080BC4FF00100F7
:100E2000FFF7CDFF4FF00000FFF7B3FFC0B4B74EA0
:100E3000376887F001073760C0BC0FBD0FB5B148F8
:100E4000006820F4807080B4AE4F386080BC4FF0F2
:100E50000100FFF79EFFAE480068AE490968A0EBAD
:100E6000010080B4AC4F386080BC00F088F880B4DA
:100E7000AA4F386080BCFFF796FE00F02AF8A84819
:100E80000068A849096800F1010080B4A44F3860E7
:100E900080BC884218DBA4490968094208BFFFF7F3
:100EA000D9FC01B44FF0000080B49D4F386080BC85
:100EB00001BC95480068022806D04FF0000080B4BD
:100EC000914F386080BC03E08F480068FFF7A1FFB6
:100ED0000FBD03B5FFF75EFC9448FFF7BBFC8E48DF
:100EE000006800F056F84FF00301FFF70FFDFFF721
:100EF000B1FC8F48FFF7AEFC874800684FF0030154
:100F0000FFF704FDFFF7A6FC8A48FFF7A3FC834820
:100F100000684FF00101FFF7F9FCFFF79BFC8648E2
:100F2000FFF798FC4FF02000FFF757FC00F001F8A6
:100F300003BD07B58148FFF78DFC794A126810465A
:100F40004FF00001FFF7E2FCFFF784FC7C48FFF75D
:100F500081FC74480068FFF7D9FCFFF77BFC4FF079
:100F60000A01B2FBF1F000FB01F0A2EB0000024627
:100F70004FF02E00FFF731FC013AFBDA07BD02B556
:100F800040F6C41100FB01F04FF4FA41B0FBF1F060
:100F900002BD4FEAD000704707B56A48006840F0CC
:100FA000210080B4674F386080BC4FF00C0080B4E3
:100FB000564F386080BC4FF0070080B4624F3860F5
:100FC00080BC4FF4487080B4604F386080BC4FF0F4
:100FD000010080B45E4F386080BC4FF0500180B497
:100FE0005C4F396080BC4FF0050040EA010080B4DE
:100FF000584F386080BC4FF08040006840F081005E
:1010000080B44FF08047386080BC4FF0080080B457
:10101000514F386080BC4FF0010080B44F4F3860B2
:1010200080BC4FF4904080B4344F386080BC354869
:10103000006840F010004FF4007080B4314F386009
:1010400080BC474880B4334F386080BC4FF01C00F0
:10105000FFF7A8F84FF03700FFF7A4F807BD01B578
:101060004048006820F0010080B43E4F386080BCEA
:101070004FF0010080B43C4F386080BC3B480068B2
:1010800020F0010080B4394F386080BC1D480068F2
:1010900040F4807080B41B4F386080BC4FF08040BB
:1010A000006840F0010080B44FF08047386080BC99
:1010B000FFF79EFE01BD01B52C48006820F0080036
:1010C00080B42A4F386080BC4FF08040006820F028
:1010D000010080B44FF08047386080BCFFF7AEFE5F
:1010E00001BD0000DA020008200C00084C0D0008C9
:1010F000280C00080D0300081808004818000040DC
:101100000070000120000040040400200014004092
:101110003C00004038000040140400201804002067
:101120001C0400202004002024040020E601000804
:1011300002020008080200081E020008230200083C
:101140002B0200081C100240281400402C14004000
:101150000C140040080000400C0000401C0000403F
:1011600000E2040010140040140000401000004091
:101170000FB44FEA501200F01F034FF0010000FAC5
:1011800003F3044951F8220040EA030041F8220029
:101190000FBC704700E100E007B41E48016841F44D
:1011A000202101604FF0904001681B4A21EA0201B2
:1011B0001A4A41EA02010160194801684FF47F426E
:1011C00021EA02014FF4EE4241EA020101601448B3
:1011D00001684FF0FF0221EA02014FF0110241EADB
:1011E000020101600F4801684FF0F00221EA02019C
:1011F0004FF0A00241EA020101600B4801684FF084
:101200000F0221EA02014FF0050241EA02010160EA
:1012100007BC704714100240FF000C00AA00080031
:0C1220002000004824000048000800489E
:040000050800069554
:00000001FF
