:020000040800F2
:1000000000040020890100088D0100088F0100080C
:10001000910100089301000895010008000000000C
:100020000000000000000000000000009701000830
:1000300099010008000000009B0100084D0A00081B
:100040009F0100089F0100089F0100089F01000810
:100050009F0100089F0100089F0100089F01000800
:100060009F0100089F0100089F0100089F010008F0
:100070009F0100089F0100089F0100089F010008E0
:100080009F0100089F0100089F0100089F010008D0
:100090009F0100089F0100089F0100089F010008C0
:1000A0009F0100089F0100089F0100089F010008B0
:1000B0001F1700089F0100089F0100089F0100080A
:1000C0009F0100089F0100089F0100089F01000890
:1000D0009F0100089F010008450D00089F010008CE
:1000E0009F0100089F0100089F0100089F01000870
:1000F0009F0100089F0100089F0100089F01000860
:100100000000000000000000000000009F01000847
:100110009F0100089F0100089F010008C716000802
:100120009F0100089F0100089F0100089F0100082F
:100130009F0100089F01000800000000000000006F
:100140009F0100089F0100089F01000800000000B7
:10015000000000000000000000000000000000009F
:1001600000000000000000009F0100089F0100083F
:100170009F010008000000000000000000000000D7
:10018000000000009F01000805480047FEE7FEE769
:10019000FEE7FEE7FEE7FEE7FEE7FEE7FEE7FEE737
:1001A000190900080FB44FEA501200F01F034FF076
:1001B000010000FA03F3044951F8220040EA030069
:1001C00041F822000FBC704700E100E053797374DE
:1001D000656D2072657365742070656E64696E6705
:1001E0002E2E2E0D0A004D6561737572656D656E5C
:1001F000742066696E6973686564002073656C6558
:100200006374656420666F722061646A7573746DCF
:10021000656E7473207573696E67202B2F2D2E0DFC
:100220000A0053656C6563746564206572726F7251
:1002300020636F7272656374696F6E2070617261A2
:100240006D6574657220726573657420746F2064C7
:10025000656661756C742076616C75652E0D0A009B
:100260004E6F206572726F7220636F727265637475
:10027000696F6E20706172616D657465722073655F
:100280006C656374656420666F722061646A75735F
:10029000746D656E742E20446F20736F20666972D2
:1002A0007374207573696E6720636F6D6D616E6422
:1002B0007320274427206F7220274F272E0D0A0016
:1002C0005432203D2000206D73202800204B63799C
:1002D000636C657329202D3E202D555F696E203D8E
:1002E0002000206D562E0053616D706C6520002F2C
:1002F000000D0A0A0A0A0A566F4D692773206475B1
:10030000616C20736C6F706520696E7465677261D3
:1003100074696F6E2041444320696E697469616C31
:10032000697A656420616E642072656164792E0D5E
:100330000A436F6E73756C742074686520646F6314
:10034000756D656E746174696F6E20666F7220746E
:100350006865206C697374206F6620617661696CD2
:1003600061626C6520636F6D6D616E64732E0D0A42
:1003700000526563656976656420636F6D6D616EBB
:1003800064202700436F6D6D616E64206E6F742072
:100390007265636F676E697A65642E0D0A00437536
:1003A0007272656E746C79207573656420636F6E0C
:1003B00066696775726174696F6E20286F6E65205B
:1003C000706572206C696E653A206E616D652C20D7
:1003D00076616C75652C20636F6D6D656E74202978
:1003E0003A0D0A000D0A00546F2073746172742074
:1003F000636F6E66696775726174696F6E206D6F89
:1004000064652C20796F75206D7573742066697230
:1004100073742073746F7020746865206F6E676FDB
:10042000696E67206D6561737572656D656E7421A7
:100430000D0A00436F6E66696775726174696F6E4D
:10044000206D6F646520737461727465642C20750F
:1004500073652073796E74617820225B6E616D65BF
:100460005D3B5B76616C75655D632220746F206116
:10047000646A757374206170706C69636174696F0C
:100480006E20706172616D65746572732E0D0A5510
:1004900073652073706163652028617363696920E7
:1004A000307832302920746F206572617365206363
:1004B0006861726163746572732E0D0A0050617217
:1004C000616D6574657220220022206973206E6F51
:1004D00074207265636F676E697A65642E20457853
:1004E0006974696E6720636F6E666967757261749F
:1004F000696F6E2E0D0A00506172616D65746572D0
:1005000020220022207761732073657420746F208D
:100510006E65772076616C756520002E0D0A00529D
:100520006563656976656420636F6E6669672073CD
:100530007472696E673A200043616E6E6F74207347
:1005400074617274206E6577206D65617375726574
:100550006D656E742C206F6E6520697320637572F3
:1005600072656E746C7920696E2070726F67726547
:1005700073732E0D0A005468657265206973206ECE
:100580006F206F6E676F696E67206D65617375723E
:10059000656D656E742C206E6F7468696E6720746B
:1005A0006F20656E642E0D0A00546865206D6561CC
:1005B000737572656D656E7420697320676F696EFF
:1005C0006720746F20656E64207265676172646C69
:1005D0006573732E0D0A0054686520656D6173752F
:1005E00072656D656E742077696C6C20626520732E
:1005F000746F70706564207768656E20746865201C
:1006000063757272656E7420627572737420656EA4
:1006100064732E0D0A0048656C70206D65737361FC
:10062000676520666F72206475616C20736C6F70F3
:100630006520696E746567726174696F6E204144EC
:10064000432E0D0A446576656C6F7065642062798F
:1006500020566F6A74656368204D696368616C2019
:100660006174204645452043545520696E205072E0
:10067000616775650D0A666F7220636F75727365C9
:1006800020456D6265646465642073797374656D7B
:100690007320647572696E672077696E7465722065
:1006A00073656D657374657220323032312F32306C
:1006B00032322E0D0A0D0A0D0A4C697374206F66D2
:1006C00020737570706F7274656420636F6D6D61F7
:1006D0006E647320286361736520696E73656E7341
:1006E0006974697665293A0D0A0948202E2E2E2054
:1006F0007072696E7420746869732068656C70200C
:100700006D6573736167650D0A0953202E2E2E20C7
:100710007374617274206E65772073696E676C659F
:100720002D73686F74206D6561737572656D656E8C
:10073000740D0A0952202E2E2E20737461727420BB
:100740006E657720636F6E74696E756F7573206D5B
:100750006561737572656D656E740D0A0945202EAD
:100760002E2E20656E64206F6E676F696E67206342
:100770006F6E74696E756F7573206D6561737572D8
:10078000656D656E740D0A0943202E2E2E20656E50
:1007900074657220636F6E66696775726174696FE4
:1007A0006E206D6F64650D0A0951202E2E2E207269
:1007B000657365742073797374656D0D0A0949203A
:1007C0002E2E2E207072696E742073797374656D8D
:1007D00020696E666F726D6174696F6E2028637533
:1007E0007272656E742076616C756573206F662019
:1007F000636F6E66696775726174696F6E20706190
:1008000072616D73290D0A0D0A4D6561737572650C
:100810006D656E74206572726F7220636F7272659F
:100820006374696F6E2061646A7573746D656E744C
:10083000733A0D0A094F202E2E2E2053656C6563E6
:1008400074206D6561737572656D656E74206F6679
:1008500066736574206173207468652070617261CD
:100860006D6574657220746F2061646A7573740DB0
:100870000A0944202E2E2E2053656C656374207463
:10088000686520736C6F7065202864657269766195
:1008900074697665292061732074686520706172BF
:1008A000616D6574657220746F2061646A7573741C
:1008B0000D0A092B202E2E2E20496E63726561735E
:1008C00065207468652076616C7565206F6620739D
:1008D000656C656374656420706172616D657465D3
:1008E000720D0A092D202E2E2E204465637265613B
:1008F0007365207468652076616C7565206F66206D
:1009000073656C656374656420706172616D657494
:1009100065720D0A0000000001B44FF0000080B4C1
:10092000724F386080BC01BC4FF0000080B4704F43
:10093000386080BC01B44FF0000080B46D4F386067
:1009400080BC01BC01B44FF0000080B46A4F386035
:1009500080BC01BC01B44FF0000080B4674F386028
:1009600080BC01BC01B44FF0000080B4644F38601B
:1009700080BC01BC4FF47A7000F056F84FF00000D4
:1009800080B4604F386080BC4FF0010080B45E4F8F
:10099000386080BC4FF0100080B45C4F386080BC81
:1009A0005B4880B45B4F386080BC42F2EF6080B43B
:1009B000594F386080BC4FF4487080B4574F38604E
:1009C00080BC40F6D51080B4554F386080BC4FF0E5
:1009D000280080B4534F386080BC00F011FF00F055
:1009E00097F900F008FE4FF0010000F0D3FC4E48EC
:1009F00000F0A4F8FEE70EB53C490B680A68A2EBCC
:100A000003028242FADD0EBD04B4384A1268A2EB3A
:100A1000000004BC704704B5FFF7F6FF88424FF0B2
:100A20000000A8BF012004BD04B54FEAC000A0F13A
:100A3000010080B43D4F386080BC3D4A126842F0EE
:100A4000070280B43A4F3A6080BC04BDC0B4274E60
:100A5000376807F101073760C0BC7047234800685A
:100A60007047FFB54FF05B0000F01EF81F480068AC
:100A70004FF0030100F0CDF84FF008014FF02002D5
:100A800000F01DF84FF05D0000F00EF84FF0200070
:100A900000F00AF8FFBD00B503E000F005F8A1F191
:100AA00001010942F9D100BD07B5224A126812F0CE
:100AB000800FFAD080B4204F386080BC07BD0FB5DE
:100AC000034600F006F9884208DAA1EB000110465F
:100AD000FFF7EAFFA1F101010942F9D113F8010B77
:100AE000004202D0FFF7E0FFF8E70FBD000400204E
:100AF0000404002020040020180400201404002016
:100B00001C040020400400202804002024040020AD
:100B100065FFFFFF300400202C0400203404002077
:100B2000380400203C040020F102000814E000E03A
:100B300010E000E01C4400402844004007B54FF09E
:100B40000001FFF7BCFF07BD0EB502780B7812421B
:100B500004D11B4202D14FF0000007E0D21A04D1A9
:100B600000F1010001F10101EFE710460EBD0EB5E5
:100B700002788A4206D0002A02D000F10100F7E78D
:100B80004FF000000EBDFEB50446FFF7F0FF004237
:100B900002D0A0EB040002E04FF0FF30FFE7FEBD03
:100BA00030313233343536373839414243444546A3
:100BB0004748494A4B4C4D4E4F505152535455564D
:100BC0005758595A00000000FEB502782D2A4FF000
:100BD000000208BF012208BF013004B403460C46DE
:100BE0004FF000020AE013F8010B00F07DF8014617
:100BF0004548FFF7C8FF02FB04F2024418780042A0
:100C0000F1D110464FF0000104BC124218BF081A7F
:100C1000FEBDFEB500284FF00002B8BF012204B4AB
:100C2000124203D04FF00002A2EB00000D463749FC
:100C30004FF00A0213E0B0FBF2F303FB02F3A0EB68
:100C40000303B0FBF2F003F1300301F8013BA5F11F
:100C500001052D4203D14FF02E0301F8013B004264
:100C6000E9D1002D10DB0BD04FF0300001F8010B63
:100C7000A5F101052D42F9D14FF02E0001F8010B2D
:100C80004FF0300001F8010B04BC124203D04FF0CA
:100C90002D0001F8010B4FF0000008701B4800F018
:100CA00001F8FEBD0FB5014600F013F80844A0F1AD
:100CB000010080EA010081EA000180EA010005E00C
:100CC00002780B7801F8012900F8013B8842F7DB34
:100CD0000FBD06B5014611F8012B1242FBD1A1F15F
:100CE0000101A1EB000006BD0EB561284FF0000127
:100CF000A8BF01217A284FF00002D8BF0122094283
:100D000018BF20380EBD0000A00B0008080400200A
:100D10000FB50A48016841F40031016008484FF0FE
:100D20004501C160016841F00D0141F02001016001
:100D30004FF02600FFF736FA0FBD00001C100240EE
:100D400000440040FFB54E4B1B681846FFF7CCFF30
:100D500002464C480068002803D0104600F0BEF858
:100D60008CE010462B2830D02D282ED04648006825
:100D70000228464808BFFFF7E1FE104643287AD014
:100D8000532869D0512842D049283DD0482847D01F
:100D9000522861D0452847D0442807D04F2805D095
:100DA0002A281DD03A48FFF7C9FE67E0442807BF4C
:100DB0003848394939483A493A4B18600846FFF7EC
:100DC000BDFE3948FFF7BAFE58E036490A681242BC
:100DD00015D02D28136814BF0133013B13604DE07B
:100DE00030490A6812420AD02C4B9A420CBF2F4C51
:100DF00042F2EF6414602E48FFF7A0FE3EE004BF0D
:100E00002C48FFF79BFE39E000F085FA36E02A48CF
:100E1000FFF794FE294880B4294F386080BCFEE774
:100E20002848FFF78BFE29E01748006800280FD0FC
:100E3000022803D02448FFF781FE1FE04FF0030093
:100E400080B4114F386080BC2048FFF777FE15E072
:100E50001F48FFF773FE11E00B480068002806D119
:100E6000522A0CBF0220012000F0D4FA06E01948F3
:100E7000FFF764FE02E000F094F8FFE7FFBD00001A
:100E8000244400404004002004040020E40300083F
:100E9000840300082C040020851000083004002082
:100EA000D710000820040020FB01000865FFFFFFA9
:100EB0002202000860020008CC0100080400FA05C4
:100EC0000CED00E016060008A9050008D70500088B
:100ED0007605000838050008272028003EB52028A0
:100EE0001CD00246BC490968012900D00AE03B2A0F
:100EF00018BFBA490DD14FF0020080B4B64F386028
:100F000080BC26E0432A18BFB54902D100F0A0F901
:100F100036E00846FFF7DDFE0A541AE0AE490968DC
:100F200001290CBFAD48AE480146FFF7D2FE004292
:100F300005D0A0F101004FF000020A5009E0A649D7
:100F40000968022908BF012180B4A34F396080BC21
:100F5000FFE700F016F8A348FFF7F0FD4FF022007E
:100F6000FFF7A2FD9D48FFF7E9FD4FF03B00FFF7BB
:100F70009BFD9B48FFF7E2FD4FF02200FFF794FD39
:100F80003EBD03B54FF00D00FFF78EFD4FF0200082
:100F90004FF08201FFF77FFD4FF00D00FFF784FD5A
:100FA00003BD07B5FFF75DFD8F480068002813D12A
:100FB0004FF0010080B4884F386080BC8B48FFF749
:100FC000BDFD00F0A8F98A498A4A4FF0000041F8B7
:100FD000040B9142FBDB02E08748FFF7AFFD07BD42
:100FE000415645524147494E475F4C454E4754484C
:100FF000004F564552575249544500496620302CFF
:10100000207072696E747320656163682072657305
:10101000756C74206F6E20736570617261746520E9
:101020006C696E652E20496620312C206C617374CA
:10103000206C696E65206973206F766572777269BE
:101040007474656E2E004E6F2E206F662073616D76
:10105000706C6573207573656420666F72206176AD
:1010600065726167696E672E204E656564206E6FDC
:1010700074206265206120706F776572206F662032
:1010800074776F2E004D4541535F5343414C4500EB
:101090005363616C696E6720666163746F7220666A
:1010A0006F72206572726F7220636F727265637403
:1010B000696F6E2E2056616C75652031303030308E
:1010C00020636F72726573706F6E647320746F202B
:1010D000756E6974792E004D4541535F4F464653F6
:1010E000455400436F6E7374616E74206F6666734F
:1010F00065742028696E20312F3130206D562920EB
:10110000616464656420746F207363616C6564203E
:101110006D6561737572656D656E7420746F2063A3
:101120006F727265637420666F722073656E736F81
:1011300072206572726F722E00565F5245460052E1
:1011400065666572656E636520766F6C7461676550
:1011500020696E206D562E00534F46545F53544104
:1011600052545F4C454E004475726174696F6E2035
:101170006F6620736F66742D73746172742070656E
:1011800072696F6420696E206D6963726F73656345
:101190006F6E64732E0054315F4455520046697877
:1011A0006564206C656E677468206F66206669727E
:1011B000737420696E746567726174696F6E2070F4
:1011C000686173652054312028676976656E2069EF
:1011D0006E206D73292E000040040020440400207E
:1011E0006C0400201F0500080404002033040008DC
:1011F0004404002094040020E7030008E00F0008E6
:10120000F10F000885100008D710000858110008D9
:101210003911000896110008240400202804002039
:101220002C04002030040020340400203804002066
:101230003C04002046100008FB0F00089010000836
:10124000E3100008671100083F1100089D11000815
:10125000FFB524484FF00A01FFF7B6FC01B44FF088
:10126000000409E02048214951F82410FFF76CFCE4
:10127000004204D004F10104072CF3D11CE01C4906
:1012800051F8241020BC0D604FF00D00FFF70CFC4E
:101290001848FFF753FC1448FFF750FC1648FFF7B7
:1012A0004DFC28464FF00001FFF7B3FCFFF746FC6A
:1012B0001248FFF743FC0DE001BC4FF00D00FFF7B3
:1012C000F3FB0F48FFF73AFC0748FFF737FC0D48E0
:1012D000FFF734FC4FF0000080B40B4F386080BC47
:1012E000FFBD00006C04002044040020FC11000835
:1012F00018120008F7040008030500081B05000881
:10130000BD040008C904000840040020203D20005E
:10131000202E2E2E2000FFB51748FFF70FFC4FF0B0
:10132000000426E0154850F824004FF014014FF057
:101330002002FFF7C4FB1248FFF700FC114850F8E9
:10134000240000684FF00001FFF763FC4FF00C0130
:101350004FF02002FFF7B3FB0B48FFF7EFFB0B4802
:1013600050F82400FFF7EAFB0948FFF7E7FB04F118
:101370000104072CD6D1FFBD9E030008FC11000814
:101380000C1300081812000810130008341200088B
:10139000E403000803B54FF00201004208BF09044E
:1013A00080B4EA4F396080BC03BD03B54FF0010142
:1013B000004208BF090480B4E44F396080BC03BD1B
:1013C00007B5E3490968E34A21EA020141F4804193
:1013D000004218BF41F4805180B4DD4F396080BCB9
:1013E000DD48006840F0100080B4DB4F386080BCFE
:1013F00007BD07B5D6490968D64A21EA020180B47B
:10140000D34F396080BC41F4E04180B4D04F3960A3
:1014100080BC07BD0FB5D148006880B4D04F38609C
:1014200080BCD04800684FF4FA5100FB01F080B452
:10143000CD4F386080BC80B4CC4F386080BC4FF05A
:101440000100FFF7BDFF4FF00000FFF7A3FFC0B49E
:10145000C74E376887F001073760C0BC0FBD02B4C4
:10146000C449096800FB01F042F21071B0FBF1F0D1
:1014700002BC704702B4C0490968084402BC704706
:101480000FB5B548006820F4807080B4B24F386062
:1014900080BC4FF00100FFF77DFFB8480068B249FB
:1014A0000968A0EB010080B4B54F386080BCFFF73D
:1014B000D6FF00F08FF8FFF7DDFF80B4B14F386042
:1014C00080BCFFF75EFD00F02EF8AF480068AF4922
:1014D000096800F1010080B4AB4F386080BC8842DD
:1014E0001CDBAB48AB490968094208BFFFF726FB84
:1014F00001B44FF0000080B4A34F386080BC01BC41
:101500009A480068022809D04FF0000080B4974F35
:10151000386080BC9E48FFF711FB03E093480068E9
:10152000FFF778FF0FBD03B5FFF79BFA9A48FFF767
:1015300005FB9348006800F05BF84FF00301FFF7EC
:1015400068FBFFF7FBFA9548FFF7F8FA8C4800684C
:101550004FF00301FFF75DFBFFF7F0FA9048FFF74C
:10156000EDFA884800684FF00101FFF752FBFFF7E2
:10157000E5FA8C48FFF7E2FA4FF02000FFF794FA03
:1015800000F001F803BD07B58748FFF7D7FA7E4A98
:10159000126802F101004FF00001FFF73AFBFFF77C
:1015A000CDFA8248FFF7CAFA78480068FFF731FBA6
:1015B000FFF7C4FA4FF00A01B2FBF1F000FB01F0B3
:1015C000A2EB000002464FF02E00FFF76DFA013A41
:1015D000FBDA07BD06B57649096800FB01F06149F1
:1015E00009684FF4487201FB02F1B0FBF1F006BD4F
:1015F0004FEAD000704707B56E48006840F0210000
:1016000080B46C4F386080BC4FF00C0080B4584FF1
:10161000386080BC4FF0070080B4674F386080BCF2
:101620004E48006880B44E4F386080BC4FF00100D7
:1016300080B4624F386080BC4FF0500180B4604F7E
:10164000396080BC4FF0050040EA010080B45C4F77
:10165000386080BC4FF08040006840F0810080B46A
:101660004FF08047386080BC4FF0080080B4554F81
:10167000386080BC4FF0010080B4534F386080BCAC
:101680004FF4904080B4324F386080BC32480068DC
:1016900040F010004FF4007080B42F4F386080BCD1
:1016A000304800684FF4FA5100FB01F080B42E4F2F
:1016B000386080BC4FF01C00FEF774FD4FF037001F
:1016C000FEF770FD07BD01B54048006820F001003D
:1016D00080B43E4F386080BC4FF0010080B43C4F76
:1016E000386080BC3B48006820F0010080B4394F6E
:1016F000386080BC1848006840F4807080B4164F91
:10170000386080BC4FF08040006840F0010080B439
:101710004FF08047386080BCFFF76BFE01BD01B51C
:101720002C48006820F0080080B42A4F386080BC44
:101730004FF08040006820F0010080B44FF08047F7
:10174000386080BCFFF79CFE01BD0000180800480F
:101750001800004000700001200000403404002008
:101760002C1400403C0400203800004004040020F9
:10177000001400402C040020300400203C000040F5
:1017800014040020180400201C040020240400205D
:10179000E403000828040020C0020008C602000874
:1017A000CC020008E2020008E7020008EF0200088D
:1017B000380400201C100240281400400C14004083
:1017C000080000400C0000401C00004010140040C5
:1017D00014000040100000400FB44FEA501200F017
:1017E0001F034FF0010000FA03F3044951F82200EF
:1017F00040EA030041F822000FBC704700E100E01E
:1018000007B41E48016841F4202101604FF0904068
:1018100001681B4A21EA02011A4A41EA02010160F9
:10182000194801684FF47F4221EA02014FF4EE4269
:1018300041EA02010160144801684FF0FF0221EA09
:1018400002014FF0110241EA020101600F480168F4
:101850004FF0F00221EA02014FF0A00241EA02013A
:1018600001600B4801684FF00F0221EA02014FF0BE
:10187000050241EA0201016007BC704714100240F2
:10188000FF000C00AA0008002000004824000048C7
:041890000008004804
:0400000508000919CD
:00000001FF
