:020000040800F2
:1000000000040020890100088D0100088F0100080C
:10001000910100089301000895010008000000000C
:100020000000000000000000000000009701000830
:1000300099010008000000009B010008590A00080F
:100040009F0100089F0100089F0100089F01000810
:100050009F0100089F0100089F0100089F01000800
:100060009F0100089F0100089F0100089F010008F0
:100070009F0100089F0100089F0100089F010008E0
:100080009F0100089F0100089F0100089F010008D0
:100090009F0100089F0100089F0100089F010008C0
:1000A0009F0100089F0100089F0100089F010008B0
:1000B0001F1800089F0100089F0100089F01000809
:1000C0009F0100089F0100089F0100089F01000890
:1000D0009F0100089F010008550D00089F010008BE
:1000E0009F0100089F0100089F0100089F01000870
:1000F0009F0100089F0100089F0100089F01000860
:100100000000000000000000000000009F01000847
:100110009F0100089F0100089F010008C717000801
:100120009F0100089F0100089F0100089F0100082F
:100130009F0100089F01000800000000000000006F
:100140009F0100089F0100089F01000800000000B7
:10015000000000000000000000000000000000009F
:1001600000000000000000009F0100089F0100083F
:100170009F010008000000000000000000000000D7
:10018000000000009F01000805480047FEE7FEE769
:10019000FEE7FEE7FEE7FEE7FEE7FEE7FEE7FEE737
:1001A000190900080FB44FEA501200F01F034FF076
:1001B000010000FA03F3044951F8220040EA030069
:1001C00041F822000FBC704700E100E053797374DE
:1001D000656D2072657365742070656E64696E6705
:1001E0002E2E2E0D0A004D6561737572656D656E5C
:1001F000742066696E6973686564002073656C6558
:100200006374656420666F722061646A7573746DCF
:10021000656E7473207573696E67202B2F2D2E0DFC
:100220000A0053656C6563746564206572726F7251
:1002300020636F7272656374696F6E2070617261A2
:100240006D6574657220726573657420746F2064C7
:10025000656661756C742076616C75652E0D0A009B
:100260004E6F206572726F7220636F727265637475
:10027000696F6E20706172616D657465722073655F
:100280006C656374656420666F722061646A75735F
:10029000746D656E742E20446F20736F20666972D2
:1002A0007374207573696E6720636F6D6D616E6422
:1002B0007320274427206F7220274F272E0D0A0016
:1002C0005432203D2000206D73202800204B63799C
:1002D000636C657329202D3E202D555F696E203D8E
:1002E0002000206D562E0053616D706C6520002F2C
:1002F000000D0A0A0A0A0A566F4D692773206475B1
:10030000616C20736C6F706520696E7465677261D3
:1003100074696F6E2041444320696E697469616C31
:10032000697A656420616E642072656164792E0D5E
:100330000A436F6E73756C742074686520646F6314
:10034000756D656E746174696F6E20666F7220746E
:100350006865206C697374206F6620617661696CD2
:1003600061626C6520636F6D6D616E64732E0D0A42
:1003700000526563656976656420636F6D6D616EBB
:1003800064202700436F6D6D616E64206E6F742072
:100390007265636F676E697A65642E0D0A00437536
:1003A0007272656E746C79207573656420636F6E0C
:1003B00066696775726174696F6E20286F6E65205B
:1003C000706572206C696E653A206E616D652C20D7
:1003D00076616C75652C20636F6D6D656E74202978
:1003E0003A0D0A000D0A00546F2073746172742074
:1003F000636F6E66696775726174696F6E206D6F89
:1004000064652C20796F75206D7573742066697230
:1004100073742073746F7020746865206F6E676FDB
:10042000696E67206D6561737572656D656E7421A7
:100430000D0A00436F6E66696775726174696F6E4D
:10044000206D6F646520737461727465642C20750F
:1004500073652073796E74617820225B6E616D65BF
:100460005D3B5B76616C75655D632220746F206116
:10047000646A757374206170706C69636174696F0C
:100480006E20706172616D65746572732E0D0A5510
:1004900073652073706163652028617363696920E7
:1004A000307832302920746F206572617365206363
:1004B0006861726163746572732E0D0A0050617217
:1004C000616D6574657220220022206973206E6F51
:1004D00074207265636F676E697A65642E20457853
:1004E0006974696E6720636F6E666967757261749F
:1004F000696F6E2E0D0A00506172616D65746572D0
:1005000020220022207761732073657420746F208D
:100510006E65772076616C756520002E0D0A00529D
:100520006563656976656420636F6E6669672073CD
:100530007472696E673A200043616E6E6F74207347
:1005400074617274206E6577206D65617375726574
:100550006D656E742C206F6E6520697320637572F3
:1005600072656E746C7920696E2070726F67726547
:1005700073732E0D0A005468657265206973206ECE
:100580006F206F6E676F696E67206D65617375723E
:10059000656D656E742C206E6F7468696E6720746B
:1005A0006F20656E642E0D0A00546865206D6561CC
:1005B000737572656D656E7420697320676F696EFF
:1005C0006720746F20656E64207265676172646C69
:1005D0006573732E0D0A0054686520656D6173752F
:1005E00072656D656E742077696C6C20626520732E
:1005F000746F70706564207768656E20746865201C
:1006000063757272656E7420627572737420656EA4
:1006100064732E0D0A0048656C70206D65737361FC
:10062000676520666F72206475616C20736C6F70F3
:100630006520696E746567726174696F6E204144EC
:10064000432E0D0A446576656C6F7065642062798F
:1006500020566F6A74656368204D696368616C2019
:100660006174204645452043545520696E205072E0
:10067000616775650D0A666F7220636F75727365C9
:1006800020456D6265646465642073797374656D7B
:100690007320647572696E672077696E7465722065
:1006A00073656D657374657220323032312F32306C
:1006B00032322E0D0A0D0A0D0A4C697374206F66D2
:1006C00020737570706F7274656420636F6D6D61F7
:1006D0006E647320286361736520696E73656E7341
:1006E0006974697665293A0D0A0948202E2E2E2054
:1006F0007072696E7420746869732068656C70200C
:100700006D6573736167650D0A0953202E2E2E20C7
:100710007374617274206E65772073696E676C659F
:100720002D73686F74206D6561737572656D656E8C
:10073000740D0A0952202E2E2E20737461727420BB
:100740006E657720636F6E74696E756F7573206D5B
:100750006561737572656D656E740D0A0945202EAD
:100760002E2E20656E64206F6E676F696E67206342
:100770006F6E74696E756F7573206D6561737572D8
:10078000656D656E740D0A0943202E2E2E20656E50
:1007900074657220636F6E66696775726174696FE4
:1007A0006E206D6F64650D0A0951202E2E2E207269
:1007B000657365742073797374656D0D0A0949203A
:1007C0002E2E2E207072696E742073797374656D8D
:1007D00020696E666F726D6174696F6E2028637533
:1007E0007272656E742076616C756573206F662019
:1007F000636F6E66696775726174696F6E20706190
:1008000072616D73290D0A0D0A4D6561737572650C
:100810006D656E74206572726F7220636F7272659F
:100820006374696F6E2061646A7573746D656E744C
:10083000733A0D0A094F202E2E2E2053656C6563E6
:1008400074206D6561737572656D656E74206F6679
:1008500066736574206173207468652070617261CD
:100860006D6574657220746F2061646A7573740DB0
:100870000A0944202E2E2E2053656C656374207463
:10088000686520736C6F7065202864657269766195
:1008900074697665292061732074686520706172BF
:1008A000616D6574657220746F2061646A7573741C
:1008B0000D0A092B202E2E2E20496E63726561735E
:1008C00065207468652076616C7565206F6620739D
:1008D000656C656374656420706172616D657465D3
:1008E000720D0A092D202E2E2E204465637265613B
:1008F0007365207468652076616C7565206F66206D
:1009000073656C656374656420706172616D657494
:1009100065720D0A0000000001B44FF0000080B4C1
:10092000754F386080BC01BC4FF0000080B4734F3D
:10093000386080BC01B44FF0000080B4704F386064
:1009400080BC01BC01B44FF0000080B46D4F386032
:1009500080BC01BC01B44FF0000080B46A4F386025
:1009600080BC01BC01B44FF0000080B4674F386018
:1009700080BC01BC4FF47A7000F05CF84FF00000CE
:1009800080B4634F386080BC4FF0010080B4614F89
:10099000386080BC4FF0100080B45F4F386080BC7E
:1009A0004FF0000080B45D4F386080BC5C4880B47C
:1009B0005C4F386080BC42F2EF6080B45A4F3860C0
:1009C00080BC4FF4487080B4584F386080BC40F60B
:1009D000D51080B4564F386080BC4FF0280080B4EA
:1009E000544F386080BC00F089FF00F099F900F0A6
:1009F00082FE4FF0010000F00DFD4F4800F0A6F818
:100A0000FEE70EB53C490B680A68A2EB030282427E
:100A1000FADD0EBD04B4384A1268A2EB000004BC33
:100A2000704704B5FFF7F6FF88424FF00000A8BFFB
:100A3000012004BD04B54FEAC000A0F1010080B45C
:100A40003E4F386080BC3E4A126842F0070280B4D4
:100A50003B4F3A6080BC04BDC0B4274E376807F1F5
:100A600001073760C0BC7047234800687047FFB576
:100A70004FF05B0000F01EF81F4800684FF00301C4
:100A800000F0CFF84FF008014FF0200200F01DF801
:100A90004FF05D0000F00EF84FF0200000F00AF873
:100AA000FFBD00B503E000F005F8A1F10101094226
:100AB000F9D100BD07B5234A126812F0800FFAD0B1
:100AC00080B4214F386080BC07BD0FB5034600F0ED
:100AD00008F9884208DAA1EB00011046FFF7EAFFA7
:100AE000A1F101010942F9D113F8010B004202D032
:100AF000FFF7E0FFF8E70FBD00040020040400202A
:100B00002004002018040020140400201C040020ED
:100B10004404002028040020240400204004002075
:100B200065FFFFFF300400202C0400203404002067
:100B3000380400203C040020F102000814E000E02A
:100B400010E000E01C4400402844004007B54FF08E
:100B50000001FFF7BAFF07BD0EB502780B7812420D
:100B600004D11B4202D14FF0000007E0D21A04D199
:100B700000F1010001F10101EFE710460EBD0EB5D5
:100B800002788A4206D0002A02D000F10100F7E77D
:100B90004FF000000EBDFEB50446FFF7F0FF004227
:100BA00002D0A0EB040002E04FF0FF30FFE7FEBDF3
:100BB0003031323334353637383941424344454693
:100BC0004748494A4B4C4D4E4F505152535455563D
:100BD0005758595A00000000FEB502782D2A4FF0F0
:100BE000000208BF012208BF013004B403460C46CE
:100BF0004FF000020AE013F8010B00F07DF8014607
:100C00004548FFF7C8FF02FB04F20244187800428F
:100C1000F1D110464FF0000104BC124218BF081A6F
:100C2000FEBDFEB500284FF00002B8BF012204B49B
:100C3000124203D04FF00002A2EB00000D463749EC
:100C40004FF00A0213E0B0FBF2F303FB02F3A0EB58
:100C50000303B0FBF2F003F1300301F8013BA5F10F
:100C600001052D4203D14FF02E0301F8013B004254
:100C7000E9D1002D10DB0BD04FF0300001F8010B53
:100C8000A5F101052D42F9D14FF02E0001F8010B1D
:100C90004FF0300001F8010B04BC124203D04FF0BA
:100CA0002D0001F8010B4FF0000008701B4800F008
:100CB00001F8FEBD0FB5014600F013F80844A0F19D
:100CC000010080EA010081EA000180EA010005E0FC
:100CD00002780B7801F8012900F8013B8842F7DB24
:100CE0000FBD06B5014611F8012B1242FBD1A1F14F
:100CF0000101A1EB000006BD0EB561284FF0000117
:100D0000A8BF01217A284FF00002D8BF0122094272
:100D100018BF20380EBD0000B00B000808040020EA
:100D20000FB50A48016841F40031016008484FF0EE
:100D30004501C160016841F00D0141F020010160F1
:100D40004FF02600FFF72EFA0FBD00001C100240E6
:100D500000440040FFB54E4B1B681846FFF7CCFF20
:100D600002464C480068002803D0104600F0BEF848
:100D70008CE010462B2830D02D282ED04648006815
:100D80000228464808BFFFF7E1FE104643287AD004
:100D9000532869D0512842D049283DD0482847D00F
:100DA000522861D0452847D0442807D04F2805D085
:100DB0002A281DD03A48FFF7C9FE67E0442807BF3C
:100DC0003848394939483A493A4B18600846FFF7DC
:100DD000BDFE3948FFF7BAFE58E036490A681242AC
:100DE00015D02D28136814BF0133013B13604DE06B
:100DF00030490A6812420AD02C4B9A420CBF2F4C41
:100E000042F2EF6414602E48FFF7A0FE3EE004BFFC
:100E10002C48FFF79BFE39E000F0BDFA36E02A4887
:100E2000FFF794FE294880B4294F386080BCFEE764
:100E30002848FFF78BFE29E01748006800280FD0EC
:100E4000022803D02448FFF781FE1FE04FF0030083
:100E500080B4114F386080BC2048FFF777FE15E062
:100E60001F48FFF773FE11E00B480068002806D109
:100E7000522A0CBF0220012000F014FB06E01948A2
:100E8000FFF764FE02E000F094F8FFE7FFBD00000A
:100E9000244400404404002004040020E40300082B
:100EA000840300082C040020951000083004002062
:100EB000E710000820040020FB01000865FFFFFF89
:100EC0002202000860020008CC0100080400FA05B4
:100ED0000CED00E016060008A9050008D70500087B
:100EE0007605000838050008272028003EB5202890
:100EF0001CD00246D5490968012900D00AE03B2AE6
:100F000018BFD3490DD14FF0020080B4CF4F3860E5
:100F100080BC26E0432A18BFCE4902D100F0D8F9A0
:100F200036E00846FFF7DDFE0A541AE0C7490968B3
:100F300001290CBFC648C7480146FFF7D2FE004250
:100F400005D0A0F101004FF000020A5009E0BF49AE
:100F50000968022908BF012180B4BC4F396080BCF8
:100F6000FFE700F016F8BC48FFF7F0FD4FF0220055
:100F7000FFF7A0FDB648FFF7E9FD4FF03B00FFF794
:100F800099FDB448FFF7E2FD4FF02200FFF792FD14
:100F90003EBD03B54FF00D00FFF78CFD4FF0200074
:100FA0004FF08201FFF77DFD4FF00D00FFF782FD4E
:100FB00003BD07B5FFF75BFDA8480068002813D103
:100FC0004FF0010080B4A14F386080BCA448FFF707
:100FD000BDFD00F0E0F9A349A34A4FF0000041F83D
:100FE000040B9142FBDB02E0A048FFF7AFFD07BD19
:100FF000415645524147494E475F4C454E4754483C
:10100000004F564552575249544500496620302CEE
:10101000207072696E7473206561636820726573F5
:10102000756C74206F6E20736570617261746520D9
:101030006C696E652E20496620312C206C617374BA
:10104000206C696E65206973206F766572777269AE
:101050007474656E2E004E6F2E206F662073616D66
:10106000706C6573207573656420666F722061769D
:1010700065726167696E672E204E656564206E6FCC
:1010800074206265206120706F776572206F662022
:1010900074776F2E004D4541535F5343414C4500DB
:1010A0005363616C696E6720666163746F7220665A
:1010B0006F72206572726F7220636F7272656374F3
:1010C000696F6E2E2056616C75652031303030307E
:1010D00020636F72726573706F6E647320746F201B
:1010E000756E6974792E004D4541535F4F464653E6
:1010F000455400436F6E7374616E74206F6666733F
:1011000065742028696E20312F3130206D562920DA
:10111000616464656420746F207363616C6564202E
:101120006D6561737572656D656E7420746F206393
:101130006F727265637420666F722073656E736F71
:1011400072206572726F722E00565F5245460052D1
:1011500065666572656E636520766F6C7461676540
:1011600020696E206D562E00534F46545F535441F4
:1011700052545F4C454E004475726174696F6E2025
:101180006F6620736F66742D73746172742070655E
:1011900072696F6420696E206D6963726F73656335
:1011A0006F6E64732E0054315F4455520046697867
:1011B0006564206C656E677468206F66206669726E
:1011C000737420696E746567726174696F6E2070E4
:1011D000686173652054312028676976656E2069DF
:1011E0006E206D73292E005052494E545F53414D6D
:1011F000504C455300496620312C206561636820BE
:10120000636F6C6C65637465642073616D706C658D
:10121000206973207072696E74656420746F207425
:101220006865206F75747075742E20496620302CA7
:10123000206F6E6C792061766572616765732061DD
:101240007265207072696E7465642E00440400201B
:1012500048040020700400201F050008040400203A
:10126000330400084804002098040020E703000825
:10127000F00F00080110000895100008E7100008A2
:101280006811000849110008A6110008E7110008BC
:1012900024040020280400202C0400203004002016
:1012A00034040020380400203C04002040040020C6
:1012B000561000080B100008A0100008F3100008DA
:1012C000771100084F110008AD110008F511000852
:1012D000FFB524484FF00A01FFF77EFC01B44FF040
:1012E000000409E02048214951F82410FFF734FC9C
:1012F000004204D004F10104082CF3D11CE01C4985
:1013000051F8241020BC0D604FF00D00FFF7D2FB08
:101310001848FFF71BFC1448FFF718FC1648FFF7A6
:1013200015FC28464FF00001FFF77BFCFFF70EFC91
:101330001248FFF70BFC0DE001BC4FF00D00FFF76A
:10134000B9FB0F48FFF702FC0748FFF7FFFB0D480A
:10135000FFF7FCFB4FF0000080B40B4F386080BCFF
:10136000FFBD000070040020480400207012000837
:1013700090120008F7040008030500081B05000888
:10138000BD040008C904000844040020203D2000DA
:10139000202E2E2E2000FFB51748FFF7D7FB4FF069
:1013A000000426E0154850F824004FF014014FF0D7
:1013B0002002FFF78AFB1248FFF7C8FB114850F8DC
:1013C000240000684FF00001FFF72BFC4FF00C01E8
:1013D0004FF02002FFF779FB0B48FFF7B7FB0B48F4
:1013E00050F82400FFF7B2FB0948FFF7AFFB04F108
:1013F0000104082CD6D1FFBD9E030008701200081E
:101400008C1300089012000890130008B012000816
:10141000E403000803B54FF00201004208BF0904CD
:1014200080B41C4F396080BC03BD03B54FF001018F
:10143000004208BF090480B4164F396080BC03BD68
:1014400007B515490968154A21EA020141F48041AE
:10145000004218BF41F4805180B40F4F396080BC06
:101460000F48006840F0100080B40D4F386080BC19
:1014700007BD07B508490968084A21EA020180B496
:10148000054F396080BC41F4E04180B4024F3960BF
:1014900080BC07BD1808004818000040007000011B
:1014A000200000400FB5E949096880B4E84F396071
:1014B00080BCE84909684FF4FA5201FB02F180B49C
:1014C000E54F396080BC80B4E44F386080BC4FF099
:1014D0000100FFF7B5FF4FF00000FFF79BFFC0B41E
:1014E000DF4E376887F001073760C0BC0FBD02B41C
:1014F000DC49096800FB01F042F21071B0FBF1F029
:1015000002BC704702B4D8490968084402BC70475D
:101510000FB5D648006820F4807080B4D34F38608F
:1015200080BC4FF00100FFF775FFD1480068CA4941
:101530000968A0EB0100C0B4CE4E3768074437609D
:10154000C0BC0446FFF7D3FF00F0C4F8FFF7DAFF92
:10155000C0B4C94E376807443760C0BC0546C748A9
:101560000068C749096880F00100084201D1FFF70F
:1015700010FDC2480068004205D02046294600F010
:1015800055F800F080F8BE4800680042FFD1BD4821
:101590000068BD49096800F1010080B4B94F3860A6
:1015A00080BC88423DDBB54800680042FFF7F1FC93
:1015B000B0480068B0490968B24A1268B0FBF2F05E
:1015C000B1FBF2F100F032F8B048AD4909680942C8
:1015D00008BFFFF7BBFA01B44FF0000080B4A94F79
:1015E000386080BC01BC01B44FF0000080B4A14F52
:1015F000386080BC01BC01B44FF0000080B49E4F45
:10160000386080BC01BC95480068022809D04FF0C2
:10161000000080B4914F386080BC9C48FFF796FA78
:1016200003E08E480068FFF73DFF0FBDFFB504469D
:101630000D46FFF71CFA9648FFF788FA204600F09F
:1016400057F84FF00301FFF7ECFAFFF77FFA9148E4
:10165000FFF77CFA20464FF00301FFF7E2FAFFF7AD
:1016600075FA8D48FFF772FA28464FF00101FFF72F
:10167000D8FAFFF76BFA8948FFF768FA4FF02000B5
:10168000FFF718FAFFBD07B58548FFF75FFA7D4AF7
:10169000126802F101004FF00001FFF7C2FAFFF7F4
:1016A00055FA8048FFF752FA77480068FFF7B9FA11
:1016B000FFF74CFA4FF00A01B2FBF1F000FB01F02A
:1016C000A2EB000002464FF02E00FFF7F3F9013ABB
:1016D000FBDA07BD06B57449096800FB01F05D49F6
:1016E00009684FF4487201FB02F1B0FBF1F006BD4E
:1016F0004FEAD000704707B56C48006840F0210001
:1017000080B46A4F386080BC4FF00C0080B4544FF6
:10171000386080BC4FF0070080B4654F386080BCF3
:101720004A48006880B44A4F386080BC4FF00100DE
:1017300080B4604F386080BC4FF0500180B45E4F81
:10174000396080BC4FF0050040EA010080B45A4F78
:10175000386080BC4FF08040006840F0810080B469
:101760004FF08047386080BC4FF0080080B4534F82
:10177000386080BC4FF0010080B4514F386080BCAD
:101780004FF4904080B44F4F386080BC37480068B9
:1017900040F010004FF4007080B4344F386080BCCB
:1017A0002C4800684FF4FA5100FB01F080B42A4F36
:1017B000386080BC4FF01C00FEF7F4FC4FF037009F
:1017C000FEF7F0FC07BD01B53F48006820F00100BE
:1017D00080B43D4F386080BC4FF0010080B43B4F77
:1017E000386080BC3A48006820F0010080B4384F6F
:1017F000386080BC1D48006840F4807080B41B4F86
:10180000386080BC4FF08040006840F0010080B438
:101810004FF08047386080BCFFF72BFE01BD01B55B
:101820002B48006820F0080080B4294F386080BC45
:101830004FF08040006820F0010080B44FF08047F6
:10184000386080BCFFF764FE01BD00003404002056
:101850002C1400403C040020380000400404002008
:10186000001400402C040020300400202000004020
:101870003C00004014040020180400204004002014
:10188000280400201C04002024040020E403000895
:10189000C0020008C6020008CC020008E2020008EC
:1018A000E7020008EF020008380400201C10024084
:1018B000281400400C140040080000400C000040B8
:1018C0001C000040180000401014004014000040AC
:1018D000100000400FB44FEA501200F01F034FF009
:1018E000010000FA03F3044951F8220040EA030022
:1018F00041F822000FBC704700E100E007B41E4829
:10190000016841F4202101604FF0904001681B4ABA
:1019100021EA02011A4A41EA0201016019480168FC
:101920004FF47F4221EA02014FF4EE4241EA020104
:101930000160144801684FF0FF0221EA02014FF0F4
:10194000110241EA020101600F4801684FF0F00204
:1019500021EA02014FF0A00241EA020101600B48B6
:1019600001684FF00F0221EA02014FF0050241EA3F
:101970000201016007BC704714100240FF000C0018
:10198000AA00080020000048240000480008004881
:0400000508000919CD
:00000001FF
