:020000040800F2
:1000000000040020890100088D0100088F0100080C
:10001000910100089301000895010008000000000C
:100020000000000000000000000000009701000830
:1000300099010008000000009B01000893070008D8
:100040009F0100089F0100089F0100089F01000810
:100050009F0100089F0100089F0100089F01000800
:100060009F0100089F0100089F0100089F010008F0
:100070009F0100089F0100089F0100089F010008E0
:100080009F0100089F0100089F0100089F010008D0
:100090009F0100089F0100089F0100089F010008C0
:1000A0009F0100089F0100089F0100089F010008B0
:1000B000811100089F0100089F0100089F010008AE
:1000C0009F0100089F0100089F0100089F01000890
:1000D0009F0100089F010008250A00089F010008F1
:1000E0009F0100089F0100089F0100089F01000870
:1000F0009F0100089F0100089F0100089F01000860
:100100000000000000000000000000009F01000847
:100110009F0100089F0100089F01000829110008A5
:100120009F0100089F0100089F0100089F0100082F
:100130009F0100089F01000800000000000000006F
:100140009F0100089F0100089F01000800000000B7
:10015000000000000000000000000000000000009F
:1001600000000000000000009F0100089F0100083F
:100170009F010008000000000000000000000000D7
:10018000000000009F01000805480047FEE7FEE769
:10019000FEE7FEE7FEE7FEE7FEE7FEE7FEE7FEE737
:1001A000A90600080FB44FEA501200F01F034FF0E9
:1001B000010000FA03F3044951F8220040EA030069
:1001C00041F822000FBC704700E100E053797374DE
:1001D000656D2072657365742070656E64696E6705
:1001E0002E2E2E0D0A004D6561737572656D656E5C
:1001F000742066696E69736865642E205432203DF0
:100200002000206D73202800204B6379636C657398
:1002100029202D3E20555F696E203D202D00206D48
:10022000562E0053616D706C6520002F000D0A0A78
:100230000A0A0A566F4D692773206475616C207332
:100240006C6F706520696E746567726174696F6E3A
:100250002041444320696E697469616C697A656400
:1002600020616E642072656164792E0D0A436F6EA1
:1002700073756C742074686520646F63756D656E4A
:10028000746174696F6E20666F7220746865206C8B
:10029000697374206F6620617661696C61626C6558
:1002A00020636F6D6D616E64732E0D0A005265637D
:1002B000656976656420636F6D6D616E64202700EB
:1002C000436F6D6D616E64206E6F74207265636F35
:1002D000676E697A65642E0D0A0043757272656EE9
:1002E000746C79207573656420636F6E66696775D9
:1002F000726174696F6E20286F6E65207065722060
:100300006C696E653A206E616D652C2076616C7546
:10031000652C20636F6D6D656E7420293A0D0A009F
:100320000D0A00546F20737461727420636F6E66DF
:10033000696775726174696F6E206D6F64652C20DA
:10034000796F75206D75737420666972737420738C
:10035000746F7020746865206F6E676F696E6720B8
:100360006D6561737572656D656E74210D0A00436C
:100370006F6E66696775726174696F6E206D6F6408
:100380006520737461727465642C207573652073C5
:10039000796E74617820225B6E616D655D3B5B7682
:1003A000616C75655D632220746F2061646A75738A
:1003B00074206170706C69636174696F6E20706124
:1003C00072616D65746572732E0D0A5573652073C5
:1003D0007061636520286173636969203078323009
:1003E0002920746F20657261736520636861726192
:1003F00063746572732E0D0A00506172616D6574CD
:10040000657220220022206973206E6F742072654D
:10041000636F676E697A65642E2045786974696ECA
:100420006720636F6E66696775726174696F6E2E9F
:100430000D0A00506172616D6574657220220022A0
:10044000207761732073657420746F206E65772048
:1004500076616C756520002E0D0A00526563656932
:1004600076656420636F6E66696720737472696E67
:10047000673A200043616E6E6F742073746172740A
:10048000206E6577206D6561737572656D656E743C
:100490002C206F6E652069732063757272656E74AF
:1004A0006C7920696E2070726F67726573732E0DA0
:1004B0000A005468657265206973206E6F206F6E44
:1004C000676F696E67206D6561737572656D656EC6
:1004D000742C206E6F7468696E6720746F20656E6F
:1004E000642E0D0A00546865206D65617375726530
:1004F0006D656E7420697320676F696E6720746F15
:1005000020656E64207265676172646C6573732E1A
:100510000D0A0054686520656D61737572656D65BF
:100520006E742077696C6C2062652073746F7070D4
:100530006564207768656E207468652063757272E3
:10054000656E7420627572737420656E64732E0D0F
:100550000A0048656C70206D65737361676520667D
:100560006F72206475616C20736C6F706520696EAA
:10057000746567726174696F6E204144432E0D0A81
:10058000446576656C6F70656420627920566F6A89
:1005900074656368204D696368616C2061742046EE
:1005A00045452043545520696E205072616775653A
:1005B0000D0A666F7220636F7572736520456D62F8
:1005C00065646465642073797374656D7320647504
:1005D00072696E672077696E7465722073656D65E8
:1005E0007374657220323032312F323032322E0D38
:1005F0000A0D0A0D0A4C697374206F6620737570BA
:10060000706F7274656420636F6D6D616E647320CA
:10061000286361736520696E73656E7369746976AA
:1006200065293A0D0A0948202D207072696E7420E0
:10063000746869732068656C70206D657373616799
:10064000650D0A0953202D2073746F70206F6E673B
:100650006F696E67206D6561737572656D656E7427
:10066000206F72207374617274206E6577206F6ED4
:10067000650D0A0943202D20656E74657220636F35
:100680006E66696775726174696F6E206D6F6465FF
:100690000D0A0951202D20726573657420737973DA
:1006A00074656D0D0A00000001B44FF0000080B4C5
:1006B000604F386080BC01BC4FF0000080B45E4FDA
:1006C000386080BC01B44FF0000080B45B4F3860EC
:1006D00080BC01BC01B44FF0000080B4584F3860BA
:1006E00080BC01BC01B44FF0000080B4554F3860AD
:1006F00080BC01BC4FF47A7000F039F84FF0000074
:1007000080B4514F386080BC4FF0010080B44F4F2F
:10071000386080BC4FF0800080B44D4F386080BCA2
:1007200000F0A2FD00F068F900F09BFC4FF0010022
:1007300000F094FB474800F097F8FEE70EB53D49FE
:100740000B680A68A2EB03028242FADD0EBD04B414
:10075000384A1268A2EB000004BC704704B5FFF7EA
:10076000F6FF88424FF00000A8BF012004BD04B589
:100770004FEAC000A0F1010080B4374F386080BC60
:10078000364A126842F0070280B4344F3A6080BCA7
:1007900004BDC0B4274E376807F101073760C0BCFD
:1007A0007047244800687047FFB54FF05B0000F0C9
:1007B0001EF8204800684FF0030100F0B1F84FF038
:1007C00008014FF0200200F01DF84FF05D0000F02E
:1007D0000EF84FF0200000F00AF8FFBD00B503E06E
:1007E00000F005F8A1F101010942F9D100BD07B5FA
:1007F0001B4A126812F0800FFAD080B4194F38608B
:1008000080BC07BD0FB5034600F0D7F8884208DA70
:10081000A1EB00011046FFF7EAFFA1F10101094237
:10082000F9D113F8010B004202D0FFF7E0FFF8E71F
:100830000FBD000000040020040400201804002064
:10084000140400201C04002028040020240400209C
:10085000200400202D02000814E000E010E000E079
:100860001C4400402844004007B54FF00001FFF74A
:10087000C9FF07BD0EB502780B78124204D11B42A6
:1008800002D14FF0000007E0D21A04D100F10100BC
:1008900001F10101EFE710460EBD0EB502788A4264
:1008A00006D0002A02D000F10100F7E74FF0000067
:1008B0000EBDFEB50446FFF7F0FF004202D0A0EBEC
:1008C000040002E04FF0FF30FFE7FEBD303132336D
:1008D0003435363738394142434445464748494A1A
:1008E0004B4C4D4E4F505152535455565758595AE0
:1008F00000000000FEB503460C464FF000020AE07F
:1009000013F8010B00F064F801463948FFF7D1FFF6
:1009100002FB04F2024418780042F1D11046FEBDF9
:10092000FEB50D4633494FF00A0213E0B0FBF2F377
:1009300003FB02F3A0EB0303B0FBF2F003F130037F
:1009400001F8013BA5F101052D4203D14FF02E0323
:1009500001F8013B0042E9D1002D10DB0BD04FF034
:10096000300001F8010BA5F101052D42F9D14FF03E
:100970002E0001F8010B4FF0300001F8010B4FF091
:10098000000008701B4800F001F8FEBD0FB50146DD
:1009900000F013F80844A0F1010080EA010081EAA8
:1009A000000180EA010005E002780B7801F80129D6
:1009B00000F8013B8842F7DB0FBD06B5014611F890
:1009C000012B1242FBD1A1F10101A1EB000006BDF8
:1009D0000EB561284FF00001A8BF01217A284FF021
:1009E0000002D8BF0122094218BF20380EBD000006
:1009F000CC080008080400200FB5B648016841F48F
:100A000000310160B4484FF04501C160016841F018
:100A10000D0141F0200101604FF02600FFF7C2FBFD
:100A20000FBD0000FFB5AD4B1B681846FFF7D0FFA8
:100A30000246AB480068002803D0104600F06AF870
:100A400065E0FFF7B1FEA748FFF70EFF1846FFF776
:100A5000CEFEA548FFF708FF10464FF00001FFF754
:100A60005FFFFFF701FF4FF02900FFF7C0FE9F482F
:100A7000FFF7FAFE1046432846D0532835D05128B8
:100A80000ED0492809D0482813D052282DD0452807
:100A900013D09748FFF7E8FE39E000F0AEF936E0F2
:100AA0009448FFF7E1FE944880B4944F386080BCCE
:100AB000FEE79348FFF7D8FE29E092480068002837
:100AC0000FD0022803D09048FFF7CEFE1FE04FF072
:100AD000030080B48B4F386080BC8C48FFF7C4FEA5
:100AE00015E08B48FFF7C0FE11E08648006800283B
:100AF00006D1522A0CBF0220012000F0EFF906E0D7
:100B00008448FFF7B1FE02E000F067F8FFE7FFBDA1
:100B1000272028003EB520281CD0024670490968CD
:100B2000012900D00AE03B2A18BF7B490DD14FF0C4
:100B3000020080B46A4F386080BC26E0432A18BFA8
:100B4000764902D100F0F6F836E00846FFF735FFA7
:100B50000A541AE06249096801290CBF6E486F48BF
:100B60000146FFF72AFF004205D0A0F101004FF037
:100B700000020A5009E05A490968022908BF012108
:100B800080B4574F396080BCFFE700F016F8644826
:100B9000FFF76AFE4FF02200FFF729FE5E48FFF7DD
:100BA00063FE4FF03B00FFF722FE5C48FFF75CFE60
:100BB0004FF02200FFF71BFE3EBD03B54FF00D00C6
:100BC000FFF715FE4FF020004FF08201FFF706FE01
:100BD0004FF00D00FFF70BFE03BD07B5FFF7E4FD77
:100BE00048480068002813D14FF0010080B43C4F02
:100BF000386080BC4B48FFF737FE00F0FEF84A49EA
:100C00004A4A4FF0000041F8040B9142FBDB02E03E
:100C10004748FFF729FE07BD415645524147494E17
:100C2000475F4C454E475448004F5645525752492E
:100C3000544500496620302C207072696E74732010
:100C40006561636820726573756C74206F6E2073C4
:100C500065706172617465206C696E652E204966ED
:100C600020312C206F7574707574206973206F7635
:100C700065727772697474656E2E004E6F2E206FE8
:100C8000662073616D706C65732075736564206692
:100C90006F7220617665726167696E672E204E659E
:100CA0006564206E6F74206265206120706F7765C7
:100CB00072206F662074776F2E000000180C0008F9
:100CC000290C000820040020240400207B0C0008CC
:100CD000330C00081C100240004400402444004033
:100CE00028040020AD020008100B000820030008B3
:100CF000C0020008CC0100080400FA050CED00E079
:100D00005205000804040020E5040008130500084B
:100D1000B2040008740400082C04002054040020CD
:100D20005B0400086F0300082C0400207C040020F2
:100D300023030008FFB524484FF00A01FFF7DAFD4E
:100D400001B44FF0000409E02048214951F8241073
:100D5000FFF790FD004204D004F10104022CF3D10E
:100D60001CE01C4951F8241020BC0D604FF00D0010
:100D7000FFF73DFD1848FFF777FD1448FFF774FDB6
:100D80001648FFF771FD28464FF00001FFF7C8FD38
:100D9000FFF76AFD1248FFF767FD0DE001BC4FF059
:100DA0000D00FFF724FD0F48FFF75EFD0748FFF732
:100DB0005BFD0D48FFF758FD4FF0000080B40B4F6E
:100DC000386080BCFFBD0000540400202C040020CB
:100DD000BC0C0008C40C0008330400083F040008E1
:100DE00057040008F903000805040008280400203F
:100DF000203D2000202E2E2E2000FFB5EB48FFF7CF
:100E000033FD4FF0000426E0E94850F824004FF08D
:100E100014014FF02002FFF7F5FCE648FFF724FD30
:100E2000E54850F8240000684FF00001FFF778FD16
:100E30004FF00C014FF02002FFF7E4FCDF48FFF712
:100E400013FDDF4850F82400FFF70EFDDD48FFF7E3
:100E50000BFD04F10104022CD6D1FFBD03B54FF008
:100E60000201004208BF090480B4D74F396080BC3A
:100E700003BD03B54FF00101004208BF090480B46F
:100E8000D14F396080BC03BD07B5D0490968D04A4D
:100E900021EA020141F48041004218BF41F480512F
:100EA00080B4CA4F396080BCCA48006840F0100066
:100EB00080B4C84F386080BC07BD07B5C349096816
:100EC000C34A21EA020180B4C04F396080BC41F4BA
:100ED000E04180B4BD4F396080BC07BD0FB580B420
:100EE000BD4F386080BC4FF00100FFF7CDFF4FF0E1
:100EF0000000FFF7B3FFC0B4B84E376887F00107B2
:100F00003760C0BC0FBD0FB5B248006820F48070D8
:100F100080B4B04F386080BC4FF00100FFF79EFFF7
:100F2000AF480068AF490968A0EB010080B4AE4F3C
:100F3000386080BC00F088F880B4AC4F386080BC6A
:100F4000FFF73BFE00F02AF8A9480068A9490968A4
:100F500000F1010080B4A64F386080BC884218DBE5
:100F6000A5490968094208BFFFF77EFC01B44FF0AC
:100F7000000080B49E4F386080BC01BC9648006879
:100F8000022806D04FF0000080B4934F386080BC38
:100F900003E091480068FFF7A1FF0FBD03B5FFF71D
:100FA00003FC9648FFF760FC8F48006800F056F895
:100FB0004FF00301FFF7B4FCFFF756FC9048FFF732
:100FC00053FC894800684FF00301FFF7A9FCFFF7C5
:100FD0004BFC8C48FFF748FC844800684FF0010147
:100FE000FFF79EFCFFF740FC8748FFF73DFC4FF002
:100FF0002000FFF7FCFB00F001F803BD07B58348B4
:10100000FFF732FC7A4A126810464FF00001FFF7F2
:1010100087FCFFF729FC7E48FFF726FC754800682F
:10102000FFF77EFCFFF720FC4FF00A01B2FBF1F066
:1010300000FB01F0A2EB000002464FF02E00FFF78C
:10104000D6FB013AFBDA07BD02B540F6C41100FB3E
:1010500001F04FF4FA41B0FBF1F002BD4FEAD000CD
:10106000704707B56B48006840F0210080B4694FB5
:10107000386080BC4FF00C0080B4584F386080BCA2
:101080004FF0070080B4644F386080BC4FF4487064
:1010900080B4624F386080BC4FF0010080B4604F74
:1010A000386080BC4FF0500180B45E4F396080BC26
:1010B0004FF0050040EA010080B45A4F386080BC10
:1010C0004FF08040006840F0810080B44FF08047CE
:1010D000386080BC4FF0080080B4534F386080BC4B
:1010E0004FF0010080B4514F386080BC4FF4904005
:1010F00080B4364F386080BC3648006840F010003D
:101100004FF4007080B4334F386080BC484880B4DE
:10111000344F386080BC4FF01C00FFF743F84FF0AD
:101120003700FFF73FF807BD01B54248006820F0DF
:10113000010080B43F4F386080BC4FF0010080B4A4
:101140003D4F386080BC3D48006820F0010080B40D
:101150003A4F386080BC1F48006840F4807080B40B
:101160001C4F386080BC4FF08040006840F00100A8
:1011700080B44FF08047386080BCFFF79EFE01BD11
:1011800001B52E48006820F0080080B42B4F38606D
:1011900080BC4FF08040006820F0010080B44FF028
:1011A0008047386080BCFFF7AEFE01BDDA02000860
:1011B000BC0C0008F00D0008C40C0008F40D000879
:1011C000CC0C000820030008180800481800004054
:1011D00000700001200000400404002000140040C2
:1011E0003C00004038000040140400201804002097
:1011F0001C0400202004002024040020E601000834
:1012000002020008080200081E020008230200086B
:101210002B0200081C100240281400402C1400402F
:101220000C140040080000400C0000401C0000406E
:1012300000E20400101400401400004010000040C0
:101240000FB44FEA501200F01F034FF0010000FAF4
:1012500003F3044951F8220040EA030041F8220058
:101260000FBC704700E100E007B41E48016841F47C
:10127000202101604FF0904001681B4A21EA0201E1
:101280001A4A41EA02010160194801684FF47F429D
:1012900021EA02014FF4EE4241EA020101601448E2
:1012A00001684FF0FF0221EA02014FF0110241EA0A
:1012B000020101600F4801684FF0F00221EA0201CB
:1012C0004FF0A00241EA020101600B4801684FF0B3
:1012D0000F0221EA02014FF0050241EA020101601A
:1012E00007BC704714100240FF000C00AA00080061
:0C12F000200000482400004800080048CE
:04000005080006A940
:00000001FF
