:020000040800F2
:1000000000040020890100088D0100088F0100080C
:10001000910100089301000895010008000000000C
:100020000000000000000000000000009701000830
:1000300099010008000000009B0100082904000845
:100040009F0100089F0100089F0100089F01000810
:100050009F0100089F0100089F0100089F01000800
:100060009F0100089F0100089F0100089F010008F0
:100070009F0100089F0100089F0100089F010008E0
:100080009F0100089F0100089F0100089F010008D0
:100090009F0100089F0100089F0100089F010008C0
:1000A0009F0100089F0100089F0100089F010008B0
:1000B0009F0100089F0100089F0100089F010008A0
:1000C0009F0100089F0100089F0100089F01000890
:1000D0009F0100089F0100089F0100089F01000880
:1000E0009F0100089F0100089F0100089F01000870
:1000F0009F0100089F0100089F0100089F01000860
:100100000000000000000000000000009F01000847
:100110009F0100089F0100089F0100089F0100083F
:100120009F0100089F0100089F0100089F0100082F
:100130009F0100089F01000800000000000000006F
:100140009F0100089F0100089F01000800000000B7
:10015000000000000000000000000000000000009F
:1001600000000000000000009F0100089F0100083F
:100170009F010008000000000000000000000000D7
:10018000000000009F01000805480047FEE7FEE769
:10019000FEE7FEE7FEE7FEE7FEE7FEE7FEE7FEE737
:1001A000A501000801B44FF0000080B4AB4F3860E7
:1001B00080BC01BC00F043F94FF47A7000F024F9E0
:1001C00000F0AAF800F001F8FCE70FB500F0E6F83F
:1001D000A3480068A349D1E810F0A348006840F69E
:1001E000B83100F005F9004268D100F0CCF80042C7
:1001F0006FD04FF0320000F0E3F8004269D04FF0CA
:10020000010000F0B5F864E09748006840F6C411BA
:1002100000F0EEF800425DD100F0B5F8004258D190
:100220004FF0320000F0CCF8004252D04FF0040002
:1002300000F09EF84DE08C4800684FF4167100F015
:10024000D7F800423AD100F09EF8004241D14FF079
:10025000320000F0B5F800423BD04FF0030000F050
:1002600087F836E0814800684FF4167100F0C0F856
:1002700000423AD0C0B47E4E376887F0200737601E
:10028000C0BC03B4754800687849086003BC2CE022
:10029000764800684FF0960100F0AAF8004224D09A
:1002A000C0B4734E376887F020073760C0BC03B412
:1002B0006A4800686D49086003BC16E04FF004000E
:1002C00000F056F805E04FF0010180B4694F396045
:1002D00080BC0FBD4FF0200180B4674F396080BCF7
:1002E0004FF0020000F044F8F3E700F04CF8004251
:1002F000E9D0604800680042EBD04FF47A7000F01B
:100300005FF80042E5D000F007F8E2E700001700D0
:100310002E0045005B00000000B501B44FF0000066
:1003200080B4524F386080BC01BC01B44FF0000073
:1003300080B4524F386080BC01BC01B44FF0000063
:1003400080B44F4F386080BC01BC01B44FF0000056
:1003500080B4484F386080BC01BC4FF0000000F012
:1003600007F84FF0200180B4464F396080BC00BDD3
:1003700080B43B4F386080BC03B4384800683A49C9
:10038000086003BC7047404800686FEA000010F442
:10039000005F4FF0000018BF0120704705B5FFF760
:1003A000F2FF364A1268904209D080B4334F386069
:1003B00080BC03B4294800683149086003BC05BD0E
:1003C00002B501462E48006800F012F802BD03B4E1
:1003D0002248016801F10101016003BC70470EB5BC
:1003E0001E490B680A68A2EB03028242FADD0EBDC9
:1003F00004B41A4A1268A2EB00028A424FF00000CD
:10040000A8BF012004BC704704B54FEAC00080B407
:100410001E4F386080BC1E4A126842F0070280B44A
:100420001B4F3A6080BC04BD00B503B40B480168A3
:1004300001F10101016003BCFFF7C9FF00BD1548D0
:10044000016841F4202101604FF09040016821F4DF
:10045000406141F4806101607047000000040020A9
:10046000080400200C030008040400200C040020F1
:10047000140000481804002028000048140400203C
:1004800010040020180000481008004814E000E0A4
:0804900010E000E0141002402E
:04000005080001A549
:00000001FF
