:020000040800F2
:1000000000040020890100088D0100088F0100080C
:10001000910100089301000895010008000000000C
:100020000000000000000000000000009701000830
:1000300099010008000000009B0100086704000807
:100040009F0100089F0100089F0100089F01000810
:100050009F0100089F0100089F0100089F01000800
:100060009F0100089F0100089F0100089F010008F0
:100070009F0100089F0100089F0100089F010008E0
:100080009F0100089F0100089F0100089F010008D0
:100090009F0100089F0100089F0100089F010008C0
:1000A0009F0100089F0100089F0100089F010008B0
:1000B0009F0100089F0100089F0100089F010008A0
:1000C0009F0100089F0100089F0100089F01000890
:1000D0009F0100089F0100089F0100089F01000880
:1000E0009F0100089F0100089F0100089F01000870
:1000F0009F0100089F0100089F0100089F01000860
:100100000000000000000000000000009F01000847
:100110009F0100089F0100089F0100089F0100083F
:100120009F0100089F0100089F0100089F0100082F
:100130009F0100089F01000800000000000000006F
:100140009F0100089F0100089F01000800000000B7
:10015000000000000000000000000000000000009F
:1001600000000000000000009F0100089F0100083F
:100170009F010008000000000000000000000000D7
:10018000000000009F01000805480047FEE7FEE769
:10019000FEE7FEE7FEE7FEE7FEE7FEE7FEE7FEE737
:1001A000A501000801B44FF0000080B4BC4F3860D6
:1001B00080BC01BC00F062F94FF47A7000F043F9A2
:1001C00000F0B2F800F001F8FCE70FB500F005F917
:1001D000B4480068B449D1E810F0B448006843F668
:1001E000982100F024F900426AD100F0EBF80042B7
:1001F00077D04FF0320000F002F9004271D000F0E9
:10020000C6F880B4AA4F386080BC4FF0010000F0FF
:10021000CEF866E0A6490968A448006800F007F92E
:1002200000425FD100F0CEF800425AD14FF03200C8
:1002300000F0E5F8004254D042E09C4800684FF4DA
:10024000167100F0F4F800423AD100F0BBF8004219
:1002500047D14FF0320000F0D2F8004241D04FF0C9
:10026000030000F0A4F83CE0924800684FF41671D7
:1002700000F0DDF8004240D0C0B48F4E376887F000
:1002800030073760C0BC03B48548006889490860FE
:1002900003BC32E0874800684FF0960100F0C7F8D1
:1002A00000422AD0C0B4844E376887F021073760F7
:1002B000C0BC03B47A4800687E49086003BC1CE0F7
:1002C0004FF0220080B47D4F386080BC4FF00400B6
:1002D00000F06DF805E04FF0010180B4784F39600F
:1002E00080BC0FBD4FF0220180B4744F396080BCD8
:1002F0004FF0020000F05BF8F3E77248006800423C
:10030000E9D06F4800680042EBD04FF47A7000F0FB
:1003100076F80042E5D000F007F8E2E700001D00A3
:10032000300047005D00000000B501B44FF0000050
:1003300080B4604F386080BC01BC01B44FF0000055
:1003400080B4604F386080BC01BC01B44FF0000045
:1003500080B45D4F386080BC01BC01B44FF0000038
:1003600080B4574F386080BC01BC01B44FF000002E
:1003700080B44F4F386080BC01BC4FF0000000F0EB
:1003800016F8524980B4524F396080BC00BD06B4A3
:10039000434800684FF41651B0FBF1F202FB01F242
:1003A000A0EB02004FF4C871084406BC704780B44B
:1003B0003C4F386080BC03B4394800683B49086052
:1003C00003BC7047434800686FEA000010F4005F08
:1003D0004FF0000018BF0120704705B5FFF7F2FF8E
:1003E000384A1268904209D080B4364F386080BCD9
:1003F00003B42B4800683449086003BC05BD02B54E
:1004000001463148006800F012F802BD03B42448E8
:10041000016801F10101016003BC70470EB520497C
:100420000B680A68A2EB03028242FADD0EBD04B437
:100430001B4A1268A2EB00028A424FF00000A8BFDC
:10044000012004BC704704B54FEAC00080B4224FBD
:10045000386080BC214A126842F0070280B41F4F06
:100460003A6080BC04BD00B503B40D48016801F1D9
:100470000101016003BCFFF7C9FF00BD1848016816
:1004800041F4202101604FF09040016840F60F7266
:1004900021EA020140F2055241EA0201016070477F
:1004A00000040020080400201C03000804040020AD
:1004B0001C0400200C040020140000482800004800
:1004C0001804002014040020100400202200110051
:1004D000180000481008004814E000E010E000E0B8
:0404E00014100240B2
:04000005080001A549
:00000001FF
