:020000040800F2
:1000000030040020890100088D0100088F010008DC
:10001000910100089301000895010008000000000C
:100020000000000000000000000000009701000830
:1000300099010008000000009B010008270E00083D
:100040009F0100089F0100089F0100089F01000810
:100050009F0100089F0100089F0100089F01000800
:100060009F0100089F0100089F0100089F010008F0
:100070009F0100089F0100089F0100089F010008E0
:100080009F0100089F0100089F0100089F010008D0
:100090009F0100089F0100089F0100089F010008C0
:1000A0009F0100089F0100089F0100089F010008B0
:1000B0009F0100089F0100089F0100089F010008A0
:1000C0009F0100089F0100089F0100089F01000890
:1000D0009F0100089F0100081B1000089F010008F5
:1000E0009F0100089F0100089F0100089F01000870
:1000F0009F0100089F0100089F0100089F01000860
:100100000000000000000000000000009F01000847
:100110009F0100089F0100089F0100089F0100083F
:100120009F0100089F0100089F0100089F0100082F
:100130009F0100089F01000800000000000000006F
:100140009F0100089F0100089F01000800000000B7
:10015000000000000000000000000000000000009F
:1001600000000000000000009F0100089F0100083F
:100170009F010008000000000000000000000000D7
:10018000000000009F01000805480047FEE7FEE769
:10019000FEE7FEE7FEE7FEE7FEE7FEE7FEE7FEE737
:1001A000690500080FB44FEA501200F01F034FF02A
:1001B000010000FA03F3044951F8220040EA030069
:1001C00041F822000FBC704700E100E054686572FE
:1001D00065206973206E6F20616374697665207491
:1001E00065737420746F20656E64210D0A00546875
:1001F00065207465737420697320616C7265616435
:100200007920696E2070726F67726573732E205447
:100210006F20737461727420616761696E2C207144
:10022000756974207468652063757272656E7420D8
:10023000746573742066697273742C20706C6561C8
:1002400073652E0D0A0052656365697665642063E7
:100250006F6D6D616E64202700272E0D0A00436FBD
:100260006D6D616E64206E6F74207265636F676E72
:10027000697A65642E0D0A000D0A004E2F41005464
:10028000686572652069732063757272656E746C3F
:1002900079206E6F207465737420696E2070726FA0
:1002A00067726573732C20666F7220776869636864
:1002B00020726573756C747320636F756C64206253
:1002C0006520646973706C617965642E0D0A000D98
:1002D0000A0D0A57656C636F6D6520746F20566F49
:1002E0006D692773207265616374696F6E20746530
:1002F00073746572207632210D0A53656520746827
:100300006520646F63756D656E746174696F6E20CE
:10031000666F7220696E737472756374696F6E7341
:100320002E0D0A004170706C69636174696F6E20F4
:100330007061757365642E0D0A004170706C69639D
:100340006174696F6E20726573756D656420616696
:100350007465722000207365636F6E64732E0D0ADE
:10036000005465737420656E646564210D0A005441
:100370006573742073746172746564210D0A00548E
:1003800065737420737461746973746963733A205C
:100390004475726174696F6E2000206D696E7574AA
:1003A000657320616E642000207365636F6E6473F3
:1003B000202870617573656420002025206F6620F9
:1003C00074696D65292E0D0A0020736964652068C3
:1003D00069742000206F7574206F6620002C2061E6
:1003E00063637572616379200020252E2052656158
:1003F0006374696F6E2074696D653A2000206D73B7
:1004000020617665726167652C2000206D73206223
:100410006573742E0D0A0057616974696E672066F2
:100420006F72207573657220746F207072657373BC
:1004300020004C656674005269676874004D6964F9
:10044000646C650057617461206861696C20796F24
:100450007520646F696E672C206661696C757265C2
:100460003F20004D79206772616E646D6120686184
:100470007320666173746572207265616374696F5D
:100480006E7300596F752070726573736564200018
:1004900020746F6F20736F6F6E00496E636F72729E
:1004A00065637420627574746F6E202D206578709A
:1004B0006563746564200020616E6420676F74203A
:1004C00000457863656C6C656E742028746861748F
:1004D000206D65616E732073746F6F6F6F6F6F70D7
:1004E00069642921205265616374696F6E20746F9D
:1004F0006F6B2000206D73004E657720626573740A
:100500002074696D652028696D70726F76656D6500
:100510006E7420627920002073696465206D6973B0
:100520007365642E0D0A005465737420656E6465EE
:1005300064210D0A004E6577207465737420676529
:100540006E6572617465643A204475726174696F96
:100550006E2000206D732C207465737465642073A5
:10056000696465200000000001B44FF0000080B411
:100570003B4F386080BC01BC01B44FF0000080B438
:10058000384F386080BC01BC00F0C6FD00F059FC5B
:10059000354800F0D5FC4FF47A7000F032FC00F0E2
:1005A00056F880B4314F386080BC4FF0000000F046
:1005B00003FC00F067F8FCE703B52C4A12684FF023
:1005C000010002F0010100F097FD4FF0020002F07F
:1005D000020100F091FD03BD07B501B44FF000002A
:1005E00080B4224F386080BC01BC4FF496704FF449
:1005F000487100F0D1FB80B41D4F386080BC4FF0D3
:10060000010000F0D9FB00F022F880B4194F3860E7
:1006100080BC00F02BFC184800F092FC14480068E5
:100620004FF0000100F092FC00F08AFC134800F04B
:1006300087FC1048006800F08EFA00F081FC4FF053
:100640002E0000F02DFC0E4800F07AFC07BD02B52C
:100650004FF001004FF0020100F09EFB02BD0000D0
:10066000300400203C040020CF0200085004002089
:1006700044040020540400203505000853050008F8
:10068000780200080FB500F0FDFD00F080F8A348E7
:10069000006800425DD1FFF78FFFA1480068A149C3
:1006A000D1E810F0A04800684FF4FA7100F0A0FB08
:1006B00000424ED0C0B49D4E376887F003073760C4
:1006C000C0BC4FF0000000F077FB42E09849096899
:1006D0009548006800F08CFB00423AD095480068CD
:1006E00080B4924F386080BC4FF0020000F064FB91
:1006F00000F0BCFB904800F023FC8E48006800F03E
:100700002AFA00F01DFC8D4800F01AFC21E0864812
:1007100000684FF4967100F06BFB004219D04FF067
:1007200000004FF0000100F021FA12E07E4800685E
:100730004FF4C87100F05CFB00420AD001B44FF0E6
:10074000000080B4794F386080BC01BCFFF744FFE3
:10075000FFE70FBD000014003500440000B54FF066
:10076000000000F046FD00420ED04FF0020000F005
:1007700040FD004208D04FF0010000F03AFD004279
:1007800002D04FF0010000BD4FF0000000BDFFB5EA
:10079000FFF7E4FF004262D04FF0000000F01CFDC4
:1007A000004201D000F0C4FA4FF0020000F00CFD4E
:1007B00001464FF0010000F007FD40EA010212423D
:1007C0004DD0084215D04FF0020000F005FD004268
:1007D00045D04FF0010000F0FFFC00423FD000F098
:1007E00055F8004202D000F08DF938E000F062F8D0
:1007F00035E04B480068C0B401284FF00006A8BFA0
:10080000012602284FF00007D8BF0127B7424FF05A
:10081000000008BF0120C0BC004220D03F48006853
:1008200000421CD14FF0020000F0D6FC4FEA40011C
:100830004FF0010000F0D0FC40EA01004049D1E84F
:1008400010F0FEE74FF0020007E04FF0010004E077
:1008500005E0070004000100000000F001F8FFBD02
:1008600007B502462E480068012809D031480068C3
:10087000904202D100F008FA07E04FF0020101E0D7
:100880004FF00101104600F071F907BD24480068DF
:10089000C0B401284FF00006A8BF012603284FF07E
:1008A0000007D8BF0127B7424FF0000008BF012062
:1008B000C0BC7047FFB5FFF7E9FF004229D103B480
:1008C000204800682049086003BC03B41D48006844
:1008D0001E49086003BC01B44FF0000080B41C4FF7
:1008E000386080BC01BC00F0C1FA1A4800F028FB57
:1008F00019491A4A4FF0000041F8040B9142FBD10C
:100900004FF416701649086048608860FFF764FE6F
:1009100002E0144800F014FBFFBD00003C0400207E
:10092000380400205407000834040020500400203C
:100930004404002054040020170400087802000832
:100940005208000830040020480400204004002021
:100950004C0400206F03000864040020940400206D
:1009600088040020EE01000806B5A54951F82010C2
:10097000002904BF4FF4167004E0A24A52F8202068
:10098000B2FBF1F006BDFFB5034600F0E4F84FF00E
:1009900005014FF0200200F08EFA9B4800F0D0FADB
:1009A0004FF00001964850F82340204600F0CEFA60
:1009B0004FF003014FF0200200F07DFA934800F061
:1009C000BFFA934850F8235028464FF0000100F03A
:1009D000BDFA4FF003014FF0200200F06CFA8D4891
:1009E00000F0AEFA002D10D042F2107000FB04F0BF
:1009F000B0FBF5F04FF0020100F0A8FA4FF005014E
:100A00004FF0200200F057FA06E083484FF005014E
:100A10004FF0200200F04FFA804800F091FA002CCD
:100A200006D17D4800F08CFA7D4800F089FA1FE07D
:100A30001846FFF799FF4FF0000100F087FA4FF0DA
:100A400004014FF0200200F036FA764800F078FA00
:100A5000754850F823004FF0000100F077FA4FF08E
:100A600004014FF0200200F026FA704800F068FA06
:100A7000FFBDFFB5FFF70AFF00423FD06C4800F012
:100A80005FFA6C48006800F0ACF903464EF660244B
:100A9000B3FBF4F04FF0000100F058FA00F050FA08
:100AA000654800F04DFAB3FBF4F000FB04F0A3EB53
:100AB00000004FF0030100F049FA00F041FA5F48EE
:100AC00000F03EFA5E480068004205D042F2107421
:100AD00000FB04F0B0FBF3F04FF0020100F036FA37
:100AE00000F02EFA574800F02BFA4FF00200FFF703
:100AF0004AFF4FF00100FFF746FF02E0524800F0C6
:100B00001FFAFFBDFFB5FFF7C1FE00421FD04F48DF
:100B10000068004209D04E48006800F062F9C0B495
:100B2000474E376807443760C0BC00F09FF949481A
:100B300000F006FAFFF79DFF4FF0000000F03CF9CF
:100B4000FFF785FD80B4444F386080BC02E0434825
:100B500000F0F6F9FFBD022802D0012802D003E020
:100B60003F4870473F4870473F4870471FB50C46A5
:100B7000034600F07BF93D4800F0E2F9002C0ED06E
:100B8000012C00D00FE03A4800F0DAF91846FFF7E0
:100B9000E2FF00F0D5F9374800F0D2F914E036480A
:100BA00000F0CEF910E0354800F0CAF9344800688A
:100BB000FFF7D1FF00F0C4F9324800F0C1F9184640
:100BC000FFF7C9FF00F0BCF94FF02E0000F068F904
:100BD000134800F0B5F94FF0030080B41E4F3860A1
:100BE00080BC4FF0030000F0E7F8254B1B68084974
:100BF00051F8232002F1010241F823201FBD00001B
:100C0000640400207C040020C9030008D403000809
:100C100070040020DD0300087B020008E9030008DF
:100C200078020008FD030008880400200B04000877
:100C30007F030008480400209A030008A803000866
:100C40004C040020BA0300087F0200083C04002086
:100C5000400400202705000850040020CC010008B3
:100C600032040008370400083D040008440400086A
:100C70008304000890040008630400089A04000834
:100C800054040020B7040008FEB5054600F0EEF855
:100C9000944800F055F99448006800F0A2F8044622
:100CA0004FF0000100F052F900F04AF98F4800F0CF
:100CB00047F94FF02E0000F0F3F84FF0200000F05D
:100CC000EFF88B4951F82520A24217DD41F8254065
:100CD000884800F035F9A2EB04004FF0000100F065
:100CE00035F900F02DF9814800F02AF94FF029007C
:100CF00000F0D6F84FF02E0000F0D2F87E4800F059
:100D00001FF97E4951F82520224441F825207C49CD
:100D100051F8252002F1010241F82520794951F8C6
:100D2000252002F1010241F82520FFF755FCFEBD08
:100D300003B500F09BF87448006880F0010180B4AE
:100D4000714F396080BC094209D0704800F0F8F852
:100D500003B46F4800686F49086003BC1BE06E482D
:100D600000F0EEF86B48006800F03BF8C0B45E4E4F
:100D7000376807443760C0BCC0B4684E3768074462
:100D80003760C0BC4FF0030100F0E0F800F0D8F885
:100D9000634800F0D5F803BD0EB4A1EB000202F1E8
:100DA00001025B4B1B68B3FBF2F101FB02F1A3EB09
:100DB000010108440EBC704780B45A4F386080BCB3
:100DC00003B4534800684849086003BC7047704743
:100DD0000EB54F490B680A68A2EB03028242FADDA6
:100DE0000EBD04B44A4A1268A2EB000004BC70476E
:100DF00004B5FFF7F6FF88424FF00000A8BF0120BE
:100E000004BD04B54FEAC000A0F1010080B4464F14
:100E1000386080BC454A126842F0070280B4434FF4
:100E20003A6080BC04BD00B5C0B4394E376807F1E4
:100E300001073760C0BCFFF7CAFF00BD3448006837
:100E400070470FB53A48016841F4003101603948F4
:100E50004FF04501C160016841F00D0141F02001F2
:100E600001604FF02600FFF79DF90FBDFFB54FF071
:100E70005B0000F015F8264800684FF0030100F011
:100E800065F84FF008014FF0200200F014F84FF021
:100E90005D0000F005F84FF0200000F001F8FFBD04
:100EA00007B5254A126812F0800FFAD080B4234F9C
:100EB000386080BC07BD0FB5034600F094F8884247
:100EC00008DAA1EB00011046FFF7EAFFA1F10101EA
:100ED0000942F9D113F8010B004202D0FFF7E0FFFD
:100EE000F8E70FBDC104000834040020F404000832
:100EF00088040020F8040008780200087C04002020
:100F000064040020700400203C0400202403000836
:100F100030040020400400203A0300084C04002064
:100F2000550300083804002014E000E010E000E061
:100F30001C100240004400401C4400402844004073
:100F400007B54FF00001FFF7B6FF07BDFCB50D4632
:100F50004E494FF00A0213E0B0FBF2F303FB02F339
:100F6000A0EB0303B0FBF2F003F1300301F8013B07
:100F7000A5F101052D4203D14FF02E0301F8013BED
:100F80000042E9D1002D10DB0BD04FF0300001F80A
:100F9000010BA5F101052D42F9D14FF02E0001F80A
:100FA000010B4FF0300001F8010B4FF0000008700A
:100FB000364800F001F8FCBD0FB5014600F013F80B
:100FC0000844A0F1010080EA010081EA000180EA02
:100FD000010005E002780B7801F8012900F8013BD7
:100FE0008842F7DB0FBD06B5014611F8012B12420E
:100FF000FBD1A1F10101A1EB000006BD0EB56128F6
:101000004FF00001C8BF01217A284FF00002B8BF9D
:101010000122094218BF20380EBDFFB51C490968DE
:10102000FFF724FF1B48FFF78BFF0846FFF738FF49
:101030001948FFF785FF0846FFF7E0FF542818D04E
:10104000532816D0512817D052281BD0502816D01C
:10105000352814D0342805D0362803D00F48FFF7A0
:101060006FFF11E036280CBF01200220FFF7F8FBCC
:101070000AE0FFF71FFC07E0FFF744FD04E0FFF77D
:1010800057FE01E0FFF7F5FCFFBD0000580400200B
:101090002444004046020008590200085E0200088D
:1010A0000FB44FEA501200F01F034FF0010000FA96
:1010B00003F3044951F8220040EA030041F82200FA
:1010C0000FBC704700E100E000000000000800488D
:1010D00000080048000000000000000001000000BF
:1010E0000000004800000048000000480100000027
:1010F00004000000000000000EB5684A52F82020ED
:10110000674B53F8203009420CBF4FF48031012166
:1011100001FA03F191610EBD07B46248016841F420
:10112000602101604FF0904001684FF0F00221EA29
:1011300002014FF0A00241EA020101605A48016831
:101140004FF47F4221EA02014FF4EE4241EA0201EC
:1011500001604FF09040016840F20F3221EA020135
:101160000160524801684FF00F0221EA02014FF07E
:10117000050241EA020101604D48016840F20F3268
:1011800021EA020140F2051241EA020101604948E8
:1011900049494FF0000240F8042B8842FBDB07BCB2
:1011A00070470EB5454A464B52F8202053F8203080
:1011B00010696FEA00004FF0010101FA03F10842E3
:1011C0000CBF002001200EBD02B54FF0100101FB45
:1011D00000F13C48085802BD06B44FF0100100FB76
:1011E00001F03949014408684FF000020A6006BC6A
:1011F000704706B52F494FF0100200FB02F0085867
:101200004FF05001FFF7F4FD06BDFEB50346294A35
:101210004FF0100101FB00F111444A68FFF7C1FFD4
:10122000904204D04860FFF709FE0860FEBD8C685C
:10123000A04226D004461846FFF7DBFF004220D02C
:101240000CE020707265737365642E0D0A002072C5
:10125000656C65617365642E0D0A0000FFF706FE7C
:101260001846FFF778FCFFF76BFE244214BF1748BF
:101270001748FFF765FE8C60244202D04FF0010052
:10128000C860FEBD03B54FF000010846FFF7BDFF83
:1012900001F101010329F8D103BD0000C8100008C5
:1012A000D410000814100240200000480008004834
:1012B0000C0000480000002030000020E010000872
:1012C000EC100008080000200C000020421200086A
:0412D0004E120008B2
:040000050800056981
:00000001FF
