:020000040800F2
:1000000030040020890100088D0100088F010008DC
:10001000910100089301000895010008000000000C
:100020000000000000000000000000009701000830
:1000300099010008000000009B010008C70F00089C
:100040009F0100089F0100089F0100089F01000810
:100050009F0100089F0100089F0100089F01000800
:100060009F0100089F0100089F0100089F010008F0
:100070009F0100089F0100089F0100089F010008E0
:100080009F0100089F0100089F0100089F010008D0
:100090009F0100089F0100089F0100089F010008C0
:1000A0009F0100089F0100089F0100089F010008B0
:1000B0009F0100089F0100089F0100089F010008A0
:1000C0009F0100089F0100089F0100089F01000890
:1000D0009F0100089F0100083F1300089F010008CE
:1000E0009F0100089F0100089F0100089F01000870
:1000F0009F0100089F0100089F0100089F01000860
:100100000000000000000000000000009F01000847
:100110009F0100089F0100089F0100089F0100083F
:100120009F0100089F0100089F0100089F0100082F
:100130009F0100089F01000800000000000000006F
:100140009F0100089F0100089F01000800000000B7
:10015000000000000000000000000000000000009F
:1001600000000000000000009F0100089F0100083F
:100170009F010008000000000000000000000000D7
:10018000000000009F01000805480047FEE7FEE769
:10019000FEE7FEE7FEE7FEE7FEE7FEE7FEE7FEE737
:1001A000AD0600080FB44FEA501200F01F034FF0E5
:1001B000010000FA03F3044951F8220040EA030069
:1001C00041F822000FBC704700E100E054686572FE
:1001D00065206973206E6F20616374697665207491
:1001E00065737420746F20656E64210D0A00546875
:1001F00065207465737420697320616C7265616435
:100200007920696E2070726F67726573732E205447
:100210006F20737461727420616761696E2C207144
:10022000756974207468652063757272656E7420D8
:10023000746573742066697273742C20706C6561C8
:1002400073652E0D0A0052656365697665642063E7
:100250006F6D6D616E64202700436F6D6D616E641C
:10026000206E6F74207265636F676E697A65642EA5
:100270000D0A000D0A004E2F41005468657265207A
:1002800069732063757272656E746C79206E6F206D
:100290007465737420696E2070726F677265737312
:1002A0002C20666F722077686963682072657375A9
:1002B0006C747320636F756C64206265206469736D
:1002C000706C617965642E0D0A000D0A0D0A576580
:1002D0006C636F6D6520746F20566F6D6927732096
:1002E0007265616374696F6E2074657374657220E2
:1002F0007632210D0A5365652074686520646F634A
:10030000756D656E746174696F6E20666F722069B9
:100310006E737472756374696F6E732E0D0A00418B
:1003200070706C69636174696F6E2070617573655C
:10033000642E0D0A004170706C69636174696F6EA0
:1003400020726573756D6564206166746572200046
:10035000207365636F6E64732E0D0A0054657374A9
:1003600020656E646564210D0A0054657374207302
:10037000746172746564210D0A005465737420738E
:100380007461746973746963733A2044757261743B
:10039000696F6E2000206D696E7574657320616EE3
:1003A000642000207365636F6E647320287061752C
:1003B00073656420002025206F662074696D6529AF
:1003C0002E0D0A002073696465206869742000207E
:1003D0006F7574206F6620002C20616363757261F5
:1003E0006379200020252E205265616374696F6E49
:1003F0002074696D653A2000206D73206176657206
:100400006167652C2000206D7320626573742E0D6A
:100410000A0057616974696E6720666F7220757390
:10042000657220746F20707265737320004C65666E
:1004300074005269676874004D6964646C650057A4
:10044000617461206861696C20796F7520646F69DF
:100450006E672C206661696C7572653F20004D796E
:10046000206772616E646D612068617320666173DC
:10047000746572207265616374696F6E7300596F81
:10048000752070726573736564200020746F6F202F
:10049000736F6F6E00496E636F7272656374206272
:1004A0007574746F6E202D20657870656374656453
:1004B000200020616E6420676F74200045786365BA
:1004C0006C6C656E74202874686174206D65616E53
:1004D000732073746F6F6F6F6F6F70696429212061
:1004E0005265616374696F6E20746F6F6B200020BA
:1004F0006D73004E657720626573742074696D6555
:100500002028696D70726F76656D656E74206279F2
:1005100020002073696465206D69737365642E0D16
:100520000A005465737420656E646564210D0A00C9
:100530004E657720746573742067656E65726174AB
:1005400065643A204475726174696F6E2000206D95
:10055000732C20746573746564207369646520006E
:10056000546F20737461727420636F6E666967756F
:10057000726174696F6E206D6F64652C20796F7580
:10058000206D757374206669727374207061757361
:100590006520746865206170706C69636174696F4F
:1005A0006E210D0A00436F6E66696775726174692A
:1005B0006F6E206D6F646520737461727465642C56
:1005C000207573652073796E74617820225B6E618B
:1005D0006D655D3B5B76616C75655D632220746F54
:1005E0002061646A757374206170706C69636174F2
:1005F000696F6E20706172616D65746572732E0D26
:100600000A5573652073706163652028617363699F
:100610006920307832302920746F206572617365EB
:1006200020636861726163746572732E0D0A0050F5
:100630006172616D657465722022002220697320E9
:100640006E6F74207265636F676E697A65642E20C1
:1006500045786974696E6720636F6E666967757245
:100660006174696F6E2E0D0A00506172616D657460
:1006700065722022002220776173207365742074D4
:100680006F206E65772076616C756520002E0D0AEF
:1006900000526563656976656420636F6E6669679D
:1006A00020737472696E673A2000000001B44FF045
:1006B000000080B44A4F386080BC01BC01B44FF0E8
:1006C000000080B4474F386080BC01BC4FF0000090
:1006D00080B4454F386080BC4FF4967080B4434F6F
:1006E000386080BC4FF4487080B4414F386080BCA3
:1006F0004FF4FA7080B43F4F386080BC4FF496706E
:1007000080B43D4F386080BC00F078FF00F069FC99
:100710003A4800F0EFFC4FF47A7000F042FC00F031
:1007200056F880B4364F386080BC4FF0000000F0BF
:1007300013FC00F071F8FCE703B5314A12684FF082
:10074000010002F0010100F049FF4FF0020002F049
:10075000020100F043FF03BD07B501B44FF00000F4
:1007600080B4274F386080BC01BC20480068204915
:10077000096800F0E1FB80B4224F386080BC4FF084
:10078000010000F0E9FB00F022F880B41E4F386051
:1007900080BC00F03BFC1D4800F0ACFC1948006830
:1007A0004FF0000100F002FD00F0A4FC184800F03A
:1007B000A1FC1548006800F09DFA00F09BFC4FF08A
:1007C0002E0000F046FC134800F094FC07BD02B573
:1007D0004FF001004FF0020100F0AEFB02BD00003F
:1007E000300400203C040020A40400206404002005
:1007F000680400206C04002070040020CA02000875
:100800005004002044040020540400203005000857
:100810004E050008730200080FB500F0A5FF00F0B8
:1008200080F8A348006800425DD1FFF785FFA1482A
:100830000068A149D1E810F0A0490968A048006803
:1008400000F0A6FB00424ED0C0B49E4E376887F041
:1008500003073760C0BC4FF0000000F07DFB42E0B2
:10086000994909689648006800F092FB00423AD026
:100870009648006880B4934F386080BC4FF0020007
:1008800000F06AFB00F0C2FB914800F033FC8F4897
:10089000006800F02FFA00F02DFC8E4800F02AFCD2
:1008A00021E08D4909688648006800F071FB00422C
:1008B00019D04FF000004FF0000100F026FA12E0CE
:1008C0007F4800684FF4C87100F062FB00420AD014
:1008D00001B44FF0000080B47A4F386080BC01BC96
:1008E000FFF73AFFFFE70FBD00001400350044009A
:1008F00000B54FF0000000F0EEFE00420ED04FF0C9
:10090000020000F0E8FE004208D04FF0010000F0C5
:10091000E2FE004202D04FF0010000BD4FF00000A7
:1009200000BDFFB5FFF7E4FF004261D04FF00000CB
:1009300000F0C4FE004201D000F0CAFA4FF00200FD
:1009400000F0B4FE01464FF0010000F0AFFE40EAB7
:10095000010212424CD0084215D04FF0020000F0C4
:10096000ADFE004244D04FF0010000F0A7FE00426F
:100970003ED000F054F8004202D000F092F937E087
:1009800000F061F834E04B480068C0B401284FF033
:100990000006A8BF012602284FF00007D8BF012794
:1009A000B7424FF0000008BF0120C0BC00421FD07A
:1009B0003F48006800421BD14FF0020000F07EFE6D
:1009C0004FEA40014FF0010000F078FE40EA0100DC
:1009D0004249D1E810F00BE04FF0020006E04FF082
:1009E000010003E0000004000100000000F001F835
:1009F000FFBD07B502462F480068012809D03348DB
:100A00000068904202D100F00FFA07E04FF00201B7
:100A100001E04FF00101104600F077F907BD2548CD
:100A20000068C0B401284FF00006A8BF01260328C3
:100A30004FF00007D8BF0127B7424FF0000008BFB2
:100A40000120C0BC7047FFB5FFF7E9FF00422BD182
:100A500003B4234800682349086003BC03B420485A
:100A600000682149086003BC01B44FF0000080B465
:100A70001E4F386080BC01BC00F0C8FA1C4800F072
:100A800039FB1C491C4A4FF0000041F8040B91420D
:100A9000FBD1114800684FEA4000184908604860DF
:100AA0008860FFF759FE02E0154800F023FBFFBD08
:100AB0003C04002038040020E80800086C040020F2
:100AC000340400205004002044040020540400207A
:100AD000120400087302000870040020E4090008F2
:100AE0003004002048040020400400204C04002072
:100AF0006A03000874040020A40400209804002065
:100B0000EE01000806B5A54951F82010A44A126864
:100B1000002904BF500004E0A24A52F82020B2FB92
:100B2000F1F006BDFFB5034600F0E4F84FF0050113
:100B30004FF0200200F098FA9B4800F0DBFA4FF0EB
:100B40000001964850F82340204600F02FFB4FF05C
:100B500003014FF0200200F087FA944800F0CAFA2F
:100B6000934850F8235028464FF0000100F01EFB38
:100B70004FF003014FF0200200F076FA8D4800F0AC
:100B8000B9FA002D10D042F2107000FB04F0B0FB57
:100B9000F5F04FF0020100F009FB4FF005014FF0B6
:100BA000200200F061FA06E083484FF005014FF0A3
:100BB000200200F059FA814800F09CFA002C06D17E
:100BC0007D4800F097FA7E4800F094FA1FE018463E
:100BD000FFF798FF4FF0000100F0E8FA4FF0040132
:100BE0004FF0200200F040FA764800F083FA764891
:100BF00050F823004FF0000100F0D8FA4FF0040144
:100C00004FF0200200F030FA704800F073FAFFBD98
:100C1000FFB5FFF704FF00423FD06D4800F06AFACD
:100C20006C48006800F0ADF903464EF66024B3FB53
:100C3000F4F04FF0000100F0B9FA00F05BFA6648FA
:100C400000F058FAB3FBF4F000FB04F0A3EB000053
:100C50004FF0030100F0AAFA00F04CFA5F4800F0F0
:100C600049FA5F480068004205D042F2107400FB68
:100C700004F0B0FBF3F04FF0020100F097FA00F03F
:100C800039FA584800F036FA4FF00200FFF74AFFF1
:100C90004FF00100FFF746FF02E0534800F02AFA48
:100CA000FFBDFFB5FFF7BBFE00421FD04F480068F5
:100CB000004209D04E48006800F063F9C0B4484EC5
:100CC000376807443760C0BC00F0A0F9494800F01D
:100CD00011FAFFF79DFF4FF0000000F03DF9FFF71C
:100CE00076FD80B4444F386080BC02E0434800F099
:100CF00001FAFFBD022802D0012802D003E04048DB
:100D0000704740487047404870471FB50C4603463F
:100D100000F07CF93D4800F0EDF9002C0ED0012CDC
:100D200000D00FE03A4800F0E5F91846FFF7E2FF7F
:100D300000F0E0F9374800F0DDF914E0364800F043
:100D4000D9F910E0354800F0D5F935480068FFF7CB
:100D5000D1FF00F0CFF9334800F0CCF91846FFF787
:100D6000C9FF00F0C7F94FF02E0000F072F91448E7
:100D700000F0C0F94FF0030080B41F4F386080BC12
:100D80004FF0030000F0E8F8254B1B68084951F8C4
:100D9000232002F1010241F823201FBD740400202A
:100DA000700400208C040020C4030008CF03000856
:100DB00080040020D803000876020008E40300083D
:100DC00073020008F80300089804002006040008D5
:100DD0007A0300084804002095030008A3030008D4
:100DE0004C040020B50300087A0200083C040020EF
:100DF000400400202205000850040020CC01000817
:100E00002D04000832040008380400083F040008DC
:100E10007E0400088B0400085E04000895040008A6
:100E200054040020B2040008FEB5054600F0EEF8B8
:100E3000994800F05FF99948006800F0A2F804466C
:100E40004FF0000100F0B2F900F054F9944800F0BE
:100E500051F94FF02E0000F0FCF84FF0200000F0A8
:100E6000F8F8904951F82520A24217DD41F82540B5
:100E70008D4800F03FF9A2EB04004FF0000100F0B4
:100E800095F900F037F9864800F034F94FF0290061
:100E900000F0DFF84FF02E0000F0DBF8834800F0A0
:100EA00029F9834951F82520224441F82520814918
:100EB00051F8252002F1010241F825207E4951F820
:100EC000252002F1010241F82520FFF745FCFEBD77
:100ED00003B500F09BF87948006880F0010180B408
:100EE000764F396080BC094209D0754800F002F99C
:100EF00003B4744800687449086003BC1BE073487D
:100F000000F0F8F87048006800F03BF8C0B4634E99
:100F1000376807443760C0BCC0B46D4E37680744BB
:100F20003760C0BC4FF0030100F040F900F0E2F878
:100F3000684800F0DFF803BD0EB4A1EB000202F137
:100F40000102604B1B68B3FBF2F101FB02F1A3EB62
:100F5000010108440EBC704780B45F4F386080BC0C
:100F600003B4584800684D49086003BC7047704797
:100F70000EB554490B680A68A2EB03028242FADDFF
:100F80000EBD04B44F4A1268A2EB000004BC7047C7
:100F900004B5FFF7F6FF88424FF00000A8BF01201C
:100FA00004BD04B54FEAC000A0F1010080B44B4F6E
:100FB000386080BC4A4A126842F0070280B4484F49
:100FC0003A6080BC04BD00B5C0B43E4E376807F13E
:100FD00001073760C0BCFFF7CAFF00BD3948006891
:100FE00070470FB53F48016841F4003101603E4849
:100FF0004FF04501C160016841F00D0141F0200151
:1010000001604FF02600FFF7CDF80FBDFFB54FF0A0
:101010005B0000F01EF82B4800684FF0030100F061
:10102000C5F84FF008014FF0200200F01DF84FF016
:101030005D0000F00EF84FF0200000F00AF8FFBD50
:1010400000B503E000F005F8A1F101010942F9D172
:1010500000BD07B5254A126812F0800FFAD080B49F
:10106000234F386080BC07BD0FB5034600F0EBF896
:10107000884208DAA1EB00011046FFF7EAFFA1F170
:1010800001010942F9D113F8010B004202D0FFF728
:10109000E0FFF8E70FBD0000BC04000834040020A6
:1010A000EF04000898040020F3040008730200080D
:1010B0008C04002074040020800400203C040020E4
:1010C0001F030008300400204004002035030008FE
:1010D0004C040020500300083804002014E000E015
:1010E00010E000E01C100240004400401C4400409E
:1010F0002844004007B54FF00001FFF7B5FF07BDDA
:101100000EB502780B78124204D11B4202D14FF087
:10111000000007E0D21A04D100F1010001F1010141
:10112000EFE710460EBD0EB502788A4206D0002ABF
:1011300002D000F10100F7E74FF000000EBDFEB550
:101140000446FFF7F0FF004202D0A0EB040002E0EB
:101150004FF0FF30FFE7FEBD3031323334353637E4
:1011600038394142434445464748494A4B4C4D4E25
:101170004F505152535455565758595A0000000079
:10118000FEB503460C464FF000020AE013F8010BCF
:1011900000F064F80146DE48FFF7D1FF02FB04F2DD
:1011A000024418780042F1D11046FEBDFCB50D4650
:1011B000D8494FF00A0213E0B0FBF2F303FB02F34D
:1011C000A0EB0303B0FBF2F003F1300301F8013BA5
:1011D000A5F101052D4203D14FF02E0301F8013B8B
:1011E0000042E9D1002D10DB0BD04FF0300001F8A8
:1011F000010BA5F101052D42F9D14FF02E0001F8A8
:10120000010B4FF0300001F8010B4FF000000870A7
:10121000C04800F001F8FCBD0FB5014600F013F81E
:101220000844A0F1010080EA010081EA000180EA9F
:10123000010005E002780B7801F8012900F8013B74
:101240008842F7DB0FBD06B5014611F8012B1242AB
:10125000FBD1A1F10101A1EB000006BD0EB5612893
:101260004FF00001A8BF01217A284FF00002D8BF3B
:101270000122094218BF20380EBD27202827000070
:101280003EB520281CD00246A3490968012900D098
:101290000AE03B2A18BFA1490DD14FF0020080B4EB
:1012A0009D4F386080BC26E0432A18BF9C4902D17C
:1012B00000F0D7F842E00846FFF7C5FF0A541AE0ED
:1012C0009549096801290CBF944895480146FFF7E4
:1012D000BAFF004205D0A0F101004FF000020A5011
:1012E00009E08D490968022908BF012180B48A4FAD
:1012F000396080BCFFE74FF00D00FFF7AAFE4FF00A
:1013000020004FF07001FFF79BFE4FF00D00FFF73C
:10131000A0FE8448FFF7EEFE4FF02200FFF799FE93
:101320007E48FFF7E7FE4FF03B00FFF792FE7C4858
:10133000FFF7E0FE4FF02200FFF78BFE3EBDFFB54A
:10134000794B1B681846FFF789FF02467248006810
:10135000002803D01046FFF793FF44E0FFF756FE46
:101360007248FFF7C7FE1846FFF773FE7048FFF795
:10137000C1FE10464FF00001FFF718FFFFF7BAFE5D
:101380004FF02900FFF765FE6A48FFF7B3FE1046ED
:1013900054281DD053281BD051281CD0522820D0AF
:1013A00050281BD0352819D034280AD0362808D028
:1013B000432803D06048FFF79DFE14E000F014F8C6
:1013C00011E036280CBF01200220FFF712FB0AE0D3
:1013D000FFF739FB07E0FFF764FC04E0FFF778FD57
:1013E00001E0FFF715FCFFBD07B5FFF70FFE5348FF
:1013F0000068004211D04FF0010080B4464F3860C1
:1014000080BC4F48FFF776FE4E494F4A4FF0000030
:1014100041F8040B9142FBDB02E04C48FFF76AFE07
:1014200007BD544553545F4C454E4754485F4D49A2
:101430004E00544553545F4C454E4754485F4D4110
:10144000580049444C455F424C494E4B5F50455211
:10145000494F440050524553535F54494D454F55F1
:101460005400FFB52E484FF00A01FFF789FE01B482
:101470002A483749FFF744FE004201D1354917E0B9
:1014800026483549FFF73CFE004201D133490FE0C1
:1014900022483349FFF734FE004201D1314907E0C9
:1014A0001E483149FFF72CFE00421BD12F49FFE7B0
:1014B00020BC0D604FF00D00FFF7CBFD2C48FFF76F
:1014C00019FE1648FFF716FE2A48FFF713FE2846B6
:1014D0004FF00001FFF76AFEFFF70CFE2648FFF70A
:1014E00009FE0DE001BC4FF00D00FFF7B2FD2348EF
:1014F000FFF700FE0948FFF7FDFD2148FFF7FAFD61
:101500004FF0000080B4044F386080BCFFBD000085
:101510005811000858040020A4040020A80400204A
:10152000D004002091060008244400404602000830
:101530007A12000873020008590200083C040020D7
:10154000A5050008A8040020F80400206005000894
:101550002214000864040020421400086C040020D7
:10156000541400087004002032140008680400209D
:1015700069060008750600088D0600082F06000899
:101580003B0600080FB44FEA501200F01F034FF063
:10159000010000FA03F3044951F8220040EA030075
:1015A00041F822000FBC704700E100E0000000009D
:1015B000000800480008004800000000000000008B
:1015C0000100000000000048000000480000004842
:1015D0000100000004000000000000000EB5684A91
:1015E00052F82020674B53F8203009420CBF4FF4CB
:1015F0008031012101FA03F191610EBD07B4624807
:10160000016841F4602101604FF0904001684FF0A3
:10161000F00221EA02014FF0A00241EA020101605A
:101620005A4801684FF47F4221EA02014FF4EE422A
:1016300041EA020101604FF09040016840F20F3230
:1016400021EA02010160524801684FF00F0221EACD
:1016500002014FF0050241EA020101604D480168B4
:1016600040F20F3221EA020140F2051241EA020182
:101670000160494849494FF0000240F8042B884274
:10168000FBDB07BC70470EB5454A464B52F820209D
:1016900053F8203010696FEA00004FF0010101FAA1
:1016A00003F108420CBF002001200EBD02B54FF02F
:1016B000100101FB00F13C48085802BD06B44FF090
:1016C000100100FB01F03949014408684FF00002A5
:1016D0000A6006BC704706B52F494FF0100200FBA8
:1016E00002F008584FF05001FFF752FC06BDFEB55E
:1016F0000346294A4FF0100101FB00F111444A68EA
:10170000FFF7C1FF904204D04860FFF767FC086014
:10171000FEBD8C68A04226D004461846FFF7DBFFCA
:10172000004220D00CE020707265737365642E0D4A
:101730000A002072656C65617365642E0D0A0000F5
:10174000FFF764FC1846FFF7D5FAFFF7D3FC2442F5
:1017500014BF17481748FFF7CDFC8C60244202D015
:101760004FF00100C860FEBD03B54FF00001084610
:10177000FFF7BDFF01F101010329F8D103BD00000E
:10178000AC150008B81500081410024020000048ED
:10179000000800480C000048000000203000002035
:1017A000C4150008D0150008080000200C00002017
:0817B00026170008321700089B
:04000005080006AD3C
:00000001FF
