:020000040800F2
:1000000050040020890100088D0100088F010008BC
:10001000910100089301000895010008000000000C
:100020000000000000000000000000009701000830
:1000300099010008000000009B0100088F110008D2
:100040009F0100089F0100089F0100089F01000810
:100050009F0100089F0100089F0100089F01000800
:100060009F0100089F0100089F0100089F010008F0
:100070009F0100089F0100089F0100089F010008E0
:100080009F0100089F0100089F0100089F010008D0
:100090009F0100089F0100089F0100089F010008C0
:1000A0009F0100089F0100089F0100089F010008B0
:1000B0009F0100089F0100089F0100089F010008A0
:1000C0009F0100089F0100089F0100089F01000890
:1000D0009F0100089F0100081B1500089F010008F0
:1000E0009F0100089F0100089F0100089F01000870
:1000F0009F0100089F0100089F0100089F01000860
:100100000000000000000000000000009F01000847
:100110009F0100089F0100089F0100089F0100083F
:100120009F0100089F0100089F0100089F0100082F
:100130009F0100089F01000800000000000000006F
:100140009F0100089F0100089F01000800000000B7
:10015000000000000000000000000000000000009F
:1001600000000000000000009F0100089F0100083F
:100170009F010008000000000000000000000000D7
:10018000000000009F01000805480047FEE7FEE769
:10019000FEE7FEE7FEE7FEE7FEE7FEE7FEE7FEE737
:1001A0000D0800087FB580B4494F386080BC4949CC
:1001B00009684FF0030219E0A2F101024FF00804B0
:1001C00004FB02F420FA04F303F0FF0303FB01F342
:1001D0004FF48075B3FBF5F303FA04F34FF0FF0619
:1001E00006FA04F620EA060040EA03001242E3D1D0
:1001F0003949096821F0010180B4374F396080BC6A
:100200004FF40001354A084214BF1E23102302F8A0
:10021000013B4FEA51010942F5D14FF0180080B47B
:100220002F4F386080BC2C48006840F0010080B43B
:10023000294F386080BC7FBD03B52A48006840F074
:10024000010080B4274F386080BC274880B4274F16
:10025000386080BC214880B4254F386080BC1E487F
:1002600000684FF0900140EA010080B41A4F3860F6
:1002700080BC03BD03B51F48006840F4805080B4C3
:100280001C4F386080BC1C48006840F2024140EAC4
:10029000010080B4184F386080BC184800684FF4E3
:1002A000517140EA010080B4144F386080BC01B441
:1002B0004FF0000080B4064F386080BC01BC01B430
:1002C0004FF0000080B40E4F386080BC01BC03BD0D
:1002D0004C00002094040020300002403000002038
:1002E00034000240141002400C300140380002403B
:1002F0003C00024018100240043001400030014030
:10030000480000200FB44FEA501200F01F034FF0D6
:10031000010000FA03F3044951F8220040EA030007
:1003200041F822000FBC704700E100E0546865729C
:1003300065206973206E6F2061637469766520742F
:1003400065737420746F20656E64210D0A00546813
:1003500065207465737420697320616C72656164D3
:100360007920696E2070726F67726573732E2054E6
:100370006F20737461727420616761696E2C2071E3
:10038000756974207468652063757272656E742077
:10039000746573742066697273742C20706C656167
:1003A00073652E0D0A005265636569766564206386
:1003B0006F6D6D616E64202700436F6D6D616E64BB
:1003C000206E6F74207265636F676E697A65642E44
:1003D0000D0A000D0A004E2F410054686572652019
:1003E00069732063757272656E746C79206E6F200C
:1003F0007465737420696E2070726F6772657373B1
:100400002C20666F72207768696368207265737547
:100410006C747320636F756C64206265206469730B
:10042000706C617965642E0D0A000D0A0D0A57651E
:100430006C636F6D6520746F20566F6D6927732034
:100440007265616374696F6E207465737465722080
:100450007632210D0A5365652074686520646F63E8
:10046000756D656E746174696F6E20666F72206958
:100470006E737472756374696F6E732E0D0A00412A
:1004800070706C69636174696F6E207061757365FB
:10049000642E0D0A004170706C69636174696F6E3F
:1004A00020726573756D65642061667465722000E5
:1004B000207365636F6E64732E0D0A005465737448
:1004C00020656E646564210D0A00546573742073A1
:1004D000746172746564210D0A005465737420732D
:1004E0007461746973746963733A204475726174DA
:1004F000696F6E2000206D696E7574657320616E82
:10050000642000207365636F6E64732028706175CA
:1005100073656420002025206F662074696D65294D
:100520002E0D0A002073696465206869742000201C
:100530006F7574206F6620002C2061636375726193
:100540006379200020252E205265616374696F6EE7
:100550002074696D653A2000206D732061766572A4
:100560006167652C2000206D7320626573742E0D09
:100570000A0057616974696E6720666F722075732F
:10058000657220746F20707265737320004C65660D
:1005900074005269676874004D6964646C65005743
:1005A000617461206861696C20796F7520646F697E
:1005B0006E672C206661696C7572653F20004D790D
:1005C000206772616E646D6120686173206661737B
:1005D000746572207265616374696F6E7300596F20
:1005E000752070726573736564200020746F6F20CE
:1005F000736F6F6E00496E636F7272656374206211
:100600007574746F6E202D206578706563746564F1
:10061000200020616E6420676F7420004578636558
:100620006C6C656E74202874686174206D65616EF1
:10063000732073746F6F6F6F6F6F706964292120FF
:100640005265616374696F6E20746F6F6B20002058
:100650006D73004E657720626573742074696D65F3
:100660002028696D70726F76656D656E7420627991
:1006700020002073696465206D69737365642E0DB5
:100680000A005465737420656E646564210D0A0068
:100690004E657720746573742067656E657261744A
:1006A00065643A204475726174696F6E2000206D34
:1006B000732C20746573746564207369646520000D
:1006C000546F20737461727420636F6E666967750E
:1006D000726174696F6E206D6F64652C20796F751F
:1006E000206D757374206669727374207061757300
:1006F0006520746865206170706C69636174696FEE
:100700006E210D0A00436F6E6669677572617469C8
:100710006F6E206D6F646520737461727465642CF4
:10072000207573652073796E74617820225B6E6129
:100730006D655D3B5B76616C75655D632220746FF2
:100740002061646A757374206170706C6963617490
:10075000696F6E20706172616D65746572732E0DC4
:100760000A5573652073706163652028617363693E
:100770006920307832302920746F2065726173658A
:1007800020636861726163746572732E0D0A005094
:100790006172616D65746572202200222069732088
:1007A0006E6F74207265636F676E697A65642E2060
:1007B00045786974696E6720636F6E6669677572E4
:1007C0006174696F6E2E0D0A00506172616D6574FF
:1007D0006572202200222077617320736574207473
:1007E0006F206E65772076616C756520002E0D0A8E
:1007F00000526563656976656420636F6E6669673C
:1008000020737472696E673A2000000001B44FF0E3
:10081000000080B4504F386080BC01BC01B44FF080
:10082000000080B44D4F386080BC01BC4FF0000028
:1008300080B44B4F386080BC4FF4967080B4494F01
:10084000386080BC4FF4487080B4474F386080BC3B
:100850004FF4FA7080B4454F386080BC4FF0800090
:1008600080B4434F386080BC4FF4C87080B4414FAF
:10087000386080BC00F0CEFF00F097FCFFF7FAFC78
:10088000FFF7DAFC3C48FFF78DFC3C4800F020FD08
:100890004FF47A7000F069FC00F056F880B4384FDD
:1008A000386080BC4FF0000000F03AFC00F074F8B3
:1008B000FCE703B5324A12684FF0010002F0010173
:1008C00000F098FF4FF0020002F0020100F092FFEA
:1008D00003BD07B501B44FF0000080B4284F386065
:1008E00080BC01BC1F4800681F49096800F008FC73
:1008F00080B4244F386080BC4FF0010000F010FC41
:1009000000F022F880B4204F386080BC00F062FC18
:100910001E4800F0DDFC1B4800684FF0000100F0AD
:1009200033FD00F0D5FC1A4800F0D2FC16480068F0
:1009300000F0A9FA00F0CCFC4FF02E0000F06DFCA6
:10094000144800F0C5FC07BD02B54FF001004FF0A0
:10095000020100F0D5FB02BD500400205C04002021
:10096000C804002084040020880400208C04002097
:100970009404002090040020FF0000002A040008D6
:100980007004002064040020740400209006000815
:10099000AE060008D30300080FB501F007F800F019
:1009A00080F8A348006800425DD1FFF782FFA148AC
:1009B0000068A149D1E810F0A0490968A048006882
:1009C00000F0CAFB00424ED0C0B49E4E376887F09C
:1009D00003073760C0BC4FF0000000F0A1FB42E00D
:1009E000994909689648006800F0B6FB00423AD081
:1009F0009648006880B4934F386080BC4FF0020086
:100A000000F08EFB00F0E6FB914800F061FC8F489F
:100A1000006800F038FA00F05BFC8E4800F058FCEB
:100A200021E08D4909688648006800F095FB004286
:100A300019D04FF000004FF0000100F02FFA12E043
:100A40007F4800684FF4C87100F086FB00420AD06E
:100A500001B44FF0000080B47A4F386080BC01BC14
:100A6000FFF737FFFFE70FBD00001400350044001B
:100A700000B54FF0000000F050FF00420ED04FF0E4
:100A8000020000F04AFF004208D04FF0010000F0E1
:100A900044FF004202D04FF0010000BD4FF00000C3
:100AA00000BDFFB5FFF7E4FF004261D04FF000004A
:100AB00000F026FF004201D000F0E1FA4FF0020002
:100AC00000F016FF01464FF0010000F011FF40EA70
:100AD000010212424CD0084215D04FF0020000F043
:100AE0000FFF004244D04FF0010000F009FF004228
:100AF0003ED000F054F8004202D000F092F937E006
:100B000000F061F834E04B480068C0B401284FF0B1
:100B10000006A8BF012602284FF00007D8BF012712
:100B2000B7424FF0000008BF0120C0BC00421FD0F8
:100B30003F48006800421BD14FF0020000F0E0FE89
:100B40004FEA40014FF0010000F0DAFE40EA0100F8
:100B50004249D1E810F00BE04FF0020006E04FF000
:100B6000010003E0000004000100000000F001F8B3
:100B7000FFBD07B502462F480068012809D0334859
:100B80000068904202D100F023FA07E04FF0020122
:100B900001E04FF00101104600F080F907BD254843
:100BA0000068C0B401284FF00006A8BF0126032842
:100BB0004FF00007D8BF0127B7424FF0000008BF31
:100BC0000120C0BC7047FFB5FFF7E9FF00422BD101
:100BD00003B4234800682349086003BC03B42048D9
:100BE00000682149086003BC01B44FF0000080B4E4
:100BF0001E4F386080BC01BC00F0ECFA1C4800F0CD
:100C000067FB1C491C4A4FF0000041F8040B91425D
:100C1000FBD1114800684FEA40001849086048605D
:100C20008860FFF756FE02E0154800F051FBFFBD5B
:100C30005C04002058040020680A00088C0400208E
:100C40005404002070040020640400207404002078
:100C500072050008D303000890040020640B00080C
:100C60005004002068040020600400206C04002070
:100C7000CA04000898040020C8040020BC04002016
:100C80004E03000806B5AB4951F82010AA4A126875
:100C9000002904BF500004E0A84A52F82020B2FB0B
:100CA000F1F006BDFFB5034600F0EDF84FF0050189
:100CB0004FF0200200F0BCFAA14800F009FB4FF011
:100CC00000019C4850F82340204600F05DFB4FF0A7
:100CD00003014FF0200200F0ABFA9A4800F0F8FA56
:100CE000994850F8235028464FF0000100F04CFB83
:100CF0004FF003014FF0200200F09AFA934800F001
:100D0000E7FA002D10D042F2107000FB04F0B0FBA7
:100D1000F5F04FF0020100F037FB4FF005014FF006
:100D2000200200F085FA06E089484FF005014FF0F7
:100D3000200200F07DFA874800F0CAFA002C06D1A4
:100D4000834800F0C5FA844800F0C2FA1FE0184654
:100D5000FFF798FF4FF0000100F016FB4FF0040181
:100D60004FF0200200F064FA7C4800F0B1FA7C48B1
:100D700050F823004FF0000100F006FB4FF0040193
:100D80004FF0200200F054FA764800F0A1FAFFBDBF
:100D9000FFB5FFF704FF00423FD0734800F098FA18
:100DA0007248006800F0D1F903464EF66024B3FBA8
:100DB000F4F04FF0000100F0E7FA00F089FA6C4817
:100DC00000F086FAB3FBF4F000FB04F0A3EB0000A4
:100DD0004FF0030100F0D8FA00F07AFA654800F00D
:100DE00077FA65480068004205D042F2107400FBB3
:100DF00004F0B0FBF3F04FF0020100F0C5FA00F090
:100E000067FA5E4800F064FA4FF00200FFF74AFF0D
:100E10004FF00100FFF746FF02E0594800F058FA92
:100E2000FFBDFFB5FFF7BBFE004228D05548006864
:100E3000004209D05448006800F087F9C0B44E4E13
:100E4000376807443760C0BC5048FFF7ABF903B4BC
:100E50004F4800684F49086003BC00F0BBF94E489A
:100E600000F036FAFFF794FF4FF0000000F058F959
:100E7000FFF76AFD80B4494F386080BC02E0484803
:100E800000F026FAFFBD022802D0012802D003E0BC
:100E90004448704744487047444870471FB50C4663
:100EA00003464348FFF77EF900F094F9414800F00B
:100EB0000FFA002C0ED0012C00D00FE03E4800F0BD
:100EC00007FA1846FFF7DFFF00F002FA3B4800F090
:100ED000FFF914E03A4800F0FBF910E0394800F05F
:100EE000F7F939480068FFF7CEFF00F0F1F937480D
:100EF00000F0EEF91846FFF7C6FF00F0E9F94FF0F1
:100F00002E0000F08AF9144800F0E2F94FF00300D7
:100F100080B4224F386080BC4FF0030000F000F92D
:100F2000294B1B68084951F8232002F1010241F8BE
:100F300023201FBD9804002090040020B00400204E
:100F4000240500082F050008A40400203805000827
:100F5000D603000844050008D3030008580500081C
:100F6000BC04002066050008DA04000868040020BC
:100F7000F5040008030500086C04002015050008AE
:100F8000DA0300085C04002060040020FF00000079
:100F90004C00002048000020820600087004002059
:100FA0002C0300088D05000892050008980500082C
:100FB0000000FF009F050008DE050008EB050008A3
:100FC000BE050008F505000874040020120600089C
:100FD000FEB50546A248FFF7E5F800F0FBF8A1488A
:100FE00000F076F9A048006800F0AFF804464FF032
:100FF000000100F0C9F900F06BF99C4800F068F9B5
:101000004FF02E0000F009F94FF0200000F005F934
:10101000974951F82520A24217DD41F8254095480F
:1010200000F056F9A2EB04004FF0000100F0ACF91B
:1010300000F04EF98D4800F04BF94FF0290000F018
:10104000ECF84FF02E0000F0E8F88B4800F040F983
:101050008A4951F82520224441F82520884951F831
:10106000252002F1010241F82520864951F825206A
:1010700002F1010241F82520FFF72BFCFEBD03B56C
:1010800000F0A8F88048006880F0010180B47E4F2D
:10109000396080BC094212D07C4800F019F903B4D1
:1010A0007B4800687B49086003BC03B47A48006849
:1010B0007A49086003BC7A48FFF774F81FE0774864
:1010C0000068FFF76FF8784800F002F9714800688F
:1010D00000F03BF8C0B4644E376807443760C0BCCA
:1010E000C0B4724E376807443760C0BC4FF003018C
:1010F00000F04AF900F0ECF86D4800F0E9F803BDA3
:101100000EB4A1EB000202F10102614B1B68B3FBBC
:10111000F2F101FB02F1A3EB010108440EBC7047A0
:1011200080B4644F386080BC03B4594800684E49AD
:10113000086003BC704770470EB555490B680A68D4
:10114000A2EB03028242FADD0EBD04B4504A1268DB
:10115000A2EB000004BC704704B5FFF7F6FF88421D
:101160004FF00000A8BF012004BD04B54FEAC00045
:10117000A0F1010080B4504F386080BC4F4A126823
:1011800042F0070280B44D4F3A6080BC04BD00B508
:10119000C0B43F4E376807F101073760C0BCFFF7A6
:1011A000CAFF00BD3A48006870470FB5444801685F
:1011B00041F40031016043484FF04501C1600168CE
:1011C00041F00D0141F0200101604FF02600FFF7D2
:1011D00099F80FBDFFB54FF05B0000F01EF82C48EA
:1011E00000684FF0030100F0CFF84FF008014FF016
:1011F000200200F01DF84FF05D0000F00EF84FF0F7
:10120000200000F00AF8FFBD00B503E000F005F88B
:10121000A1F101010942F9D100BD07B52A4A1268BE
:1012200012F0800FFAD080B4284F386080BC07BD20
:101230000FB5034600F0F5F8884208DAA1EB00018B
:101240001046FFF7EAFFA1F101010942F9D113F8B5
:10125000010B004202D0FFF7E0FFF8E70FBD0000EE
:1012600000FF00001C060008540400204F06000880
:10127000BC04002053060008D3030008B00400207B
:1012800098040020A40400205C0400207F040008CF
:1012900050040020600400204C0000204800002082
:1012A000FFFFFF0000000000950400086C04002010
:1012B000B00400085804002014E000E010E000E052
:1012C0001C100240004400401C44004028440040E0
:1012D00007B54FF00001FFF7ABFF07BD0EB5027871
:1012E0000B78124204D11B4202D14FF0000007E0FC
:1012F000D21A04D100F1010001F10101EFE710461B
:101300000EBD0EB502788A4206D0002A02D000F146
:101310000100F7E74FF000000EBDFEB50446FFF7F1
:10132000F0FF004202D0A0EB040002E04FF0FF30DB
:10133000FFE7FEBD3031323334353637383941427C
:10134000434445464748494A4B4C4D4E4F505152F5
:10135000535455565758595A00000000FEB50346DD
:101360000C464FF000020AE013F8010B00F064F89D
:101370000146EA48FFF7D1FF02FB04F20244187865
:101380000042F1D11046FEBDFCB50D46E4494FF0D8
:101390000A0213E0B0FBF2F303FB02F3A0EB03033A
:1013A000B0FBF2F003F1300301F8013BA5F10105B8
:1013B0002D4203D14FF02E0301F8013B0042E9D149
:1013C000002D10DB0BD04FF0300001F8010BA5F120
:1013D00001052D42F9D14FF02E0001F8010B4FF01D
:1013E000300001F8010B4FF000000870CC4800F00D
:1013F00001F8FCBD0FB5014600F013F80844A0F158
:10140000010080EA010081EA000180EA010005E0B4
:1014100002780B7801F8012900F8013B8842F7DBDC
:101420000FBD06B5014611F8012B1242FBD1A1F107
:101430000101A1EB000006BD0EB561284FF00001CF
:10144000A8BF01217A284FF00002D8BF012209422B
:1014500018BF20380EBD2720282700003EB52028C1
:101460001CD00246AF490968012900D00AE03B2A96
:1014700018BFAD490DD14FF0020080B4A94F3860BC
:1014800080BC26E0432A18BFA84902D100F0E0F84A
:1014900042E00846FFF7C5FF0A541AE0A14909686F
:1014A00001290CBFA048A1480146FFF7BAFF00423E
:1014B00005D0A0F101004FF000020A5009E099495F
:1014C0000968022908BF012180B4964F396080BCA9
:1014D000FFE74FF00D00FFF7A0FE4FF020004FF0A8
:1014E0007001FFF791FE4FF00D00FFF796FE904858
:1014F000FFF7EEFE4FF02200FFF78FFE8A48FFF75E
:10150000E7FE4FF03B00FFF788FE8848FFF7E0FE5C
:101510004FF02200FFF781FE3EBDFFB5854B1B68F3
:101520001846FFF789FF02467E480068002803D06E
:101530001046FFF793FF44E0FFF74CFE7E48FFF7AD
:10154000C7FE1846FFF769FE7C48FFF7C1FE10464C
:101550004FF00001FFF718FFFFF7BAFE4FF0290028
:10156000FFF75BFE7648FFF7B3FE104654281DD008
:1015700053281BD051281CD0522820D050281BD0D3
:10158000352819D034280AD0362808D0432803D06B
:101590006C48FFF79DFE14E000F014F811E03628C7
:1015A0000CBF01200220FFF7E4FA0AE0FFF70BFB73
:1015B00007E0FFF736FC04E0FFF761FD01E0FFF70D
:1015C000E7FBFFBD07B5FFF705FE5F480068004277
:1015D00011D04FF0010080B4524F386080BC5B489E
:1015E000FFF776FE5A495B4A4FF0000041F8040BC2
:1015F0009142FBDB02E05848FFF76AFE07BD544505
:1016000053545F4C454E4754485F4D494E00544536
:1016100053545F4C454E4754485F4D415800494430
:101620004C455F424C494E4B5F504552494F440038
:1016300050524553535F54494D454F5554005247FE
:10164000425F4252494748544E4553530000000000
:10165000FFB536484FF00A01FFF780FE01B432486B
:101660003E49FFF73BFE004201D13D491FE02E48B5
:101670003C49FFF733FE004201D13B4917E02A48BD
:101680003A49FFF72BFE004201D139490FE02648C5
:101690003849FFF723FE004201D1374907E02248CD
:1016A0003649FFF71BFE004222D13549FFE720BC37
:1016B0000D60314A914203D132480068FEF772FD55
:1016C0004FF00D00FFF7A9FD2F48FFF701FE164868
:1016D000FFF7FEFD2D48FFF7FBFD28464FF0000108
:1016E000FFF752FEFFF7F4FD2948FFF7F1FD0DE08B
:1016F00001BC4FF00D00FFF790FD2648FFF7E8FD15
:101700000948FFF7E5FD2448FFF7E2FD4FF0000030
:1017100080B4044F386080BCFFBD00003413000863
:1017200078040020C8040020CC040020F404002029
:10173000F107000824440040A603000856140008DE
:10174000D3030008B90300085C0400200507000863
:10175000CC0400201C050020C0060008FE1500086F
:10176000840400201E1600088C0400203016000897
:10177000900400203E160008940400200E16000875
:10178000880400204C000020C9070008D507000885
:10179000ED0700088F0700089B0700080FB44FEA09
:1017A000501200F01F034FF0010000FA03F3044948
:1017B00051F8220040EA030041F822000FBC7047B4
:1017C00000E100E0000000000008004800080048B8
:1017D00000000000000000000100000000000048C0
:1017E0000000004800000048010000000400000064
:1017F000000000000EB5734A52F82020724B53F8D7
:10180000203009420CBF4FF48031012101FA03F16D
:1018100091610EBD07B46D48016841F4602101601B
:101820004FF0904001684FF0F00221EA02014FF0C2
:10183000A00241EA02010160654801684FF47F425D
:1018400021EA02014FF4EE4241EA020101606148DF
:1018500001684FF4406221EA02014FF4006241EA5C
:10186000020101605C4801684FF4700221EA020144
:101870004FF4A00241EA020101604FF0904001687C
:1018800040F20F3221EA02010160544801684FF032
:101890000F0221EA02014FF0050241EA0201016054
:1018A0004F48016840F20F3221EA020140F205126E
:1018B00041EA020101604B484B494FF0000240F8F9
:1018C000042B8842FBDB07BC70470EB5474A484BE8
:1018D00052F8202053F8203010696FEA00004FF0D2
:1018E000010101FA03F108420CBF002001200EBDE6
:1018F00002B54FF0100101FB00F13E48085802BD4F
:1019000006B44FF0100100FB01F03B4901440868A8
:101910004FF000020A6006BC704706B531494FF02F
:10192000100200FB02F008584FF05001FFF714FCC2
:1019300006BDFEB503462B4A4FF0100101FB00F136
:1019400011444A68FFF7C1FF904204D04860FFF796
:1019500029FC0860FEBD8C68A04226D004461846CB
:10196000FFF7DBFF004220D00CE02070726573733C
:1019700065642E0D0A002072656C65617365642EC6
:101980000D0A0000FFF726FC1846FFF77CFAFFF768
:101990009FFC244214BF19481948FFF799FC8C603A
:1019A000244202D04FF00100C860FEBD03B54FF0E5
:1019B00000010846FFF7BDFF01F101010329F8D13D
:1019C00003BD0000C4170008D0170008141002401F
:1019D0002000004800040048200400480008004897
:1019E0000C0000480000002030000020DC17000838
:1019F000E8170008080000200C0000206A19000801
:041A0000761900084B
:040000050800080DDA
:00000001FF
