:020000040800F2
:1000000000040020890100088D0100088F0100080C
:10001000910100089301000895010008000000000C
:100020000000000000000000000000009701000830
:1000300099010008000000009B0100086D02000803
:100040009F0100089F0100089F0100089F01000810
:100050009F0100089F0100089F0100089F01000800
:100060009F0100089F0100089F0100089F010008F0
:100070009F0100089F0100089F0100089F010008E0
:100080009F0100089F0100089F0100089F010008D0
:100090009F0100089F0100089F0100089F010008C0
:1000A0009F0100089F0100089F0100089F010008B0
:1000B0009F0100089F0100089F0100089F010008A0
:1000C0009F0100089F0100089F0100089F01000890
:1000D0009F0100089F0100089F0100089F01000880
:1000E0009F0100089F0100089F0100089F01000870
:1000F0009F0100089F0100089F0100089F01000860
:100100000000000000000000000000009F01000847
:100110009F0100089F0100089F0100089F0100083F
:100120009F0100089F0100089F0100089F0100082F
:100130009F0100089F01000800000000000000006F
:100140009F0100089F0100089F01000800000000B7
:10015000000000000000000000000000000000009F
:1001600000000000000000009F0100089F0100083F
:100170009F010008000000000000000000000000D7
:10018000000000009F01000805480047FEE7FEE769
:10019000FEE7FEE7FEE7FEE7FEE7FEE7FEE7FEE737
:1001A000A50100084FF000003C4908603C49086088
:1001B0003C49086000F064F84FF01A0000F04BF87A
:1001C000FEE70FB536480168094203D0A1F10101ED
:1001D000016036E03148006814282AD031480268AE
:1001E00002F1010101F003010160124212D0022A62
:1001F00001D005DC25E02C484FF04001016020E0F3
:100200002A484FF0400101602448016801F10101D2
:10021000016016E04FF02003204800684FF0010213
:1002200002FA00F22248104208BF1B041E48036075
:1002300007E01A484FF00001016019484FF0A00193
:1002400001600FBD0EB51B490B680A68A2EB0302E3
:100250008242FADD0EBD06B54FEAC00016490860BD
:1002600016490A6842F007020A6006BD06B5114940
:100270000A6802F101020A60FFF7A3FF06BD70479A
:100280000F48016841F4003101604FF0904001686F
:1002900021F4705141F4A051016070470404002022
:1002A000080400200C040020180000482800004822
:1002B000AC6A0A000004002014E000E010E000E056
:0402C00014100240D4
:04000005080001A549
:00000001FF
